{
  "_format": "hh-sol-artifact-1",
  "contractName": "ChessGame",
  "sourceName": "contracts/Game.sol",
  "abi": [
    {
      "inputs": [
        {
          "internalType": "uint256",
          "name": "_commission",
          "type": "uint256"
        },
        {
          "internalType": "uint256",
          "name": "_MINIMUM_ENTRY_FEE",
          "type": "uint256"
        }
      ],
      "stateMutability": "payable",
      "type": "constructor"
    },
    {
      "anonymous": false,
      "inputs": [
        {
          "indexed": false,
          "internalType": "uint256",
          "name": "gameId",
          "type": "uint256"
        },
        {
          "indexed": false,
          "internalType": "enum ChessGame.Winner",
          "name": "winner",
          "type": "uint8"
        },
        {
          "indexed": false,
          "internalType": "uint256",
          "name": "reward",
          "type": "uint256"
        }
      ],
      "name": "GameFinished",
      "type": "event"
    },
    {
      "anonymous": false,
      "inputs": [
        {
          "indexed": false,
          "internalType": "uint256",
          "name": "gameId",
          "type": "uint256"
        },
        {
          "indexed": false,
          "internalType": "address",
          "name": "player",
          "type": "address"
        },
        {
          "indexed": false,
          "internalType": "uint256",
          "name": "amount",
          "type": "uint256"
        }
      ],
      "name": "GameFunded",
      "type": "event"
    },
    {
      "anonymous": false,
      "inputs": [
        {
          "indexed": false,
          "internalType": "uint256",
          "name": "gameId",
          "type": "uint256"
        },
        {
          "indexed": false,
          "internalType": "address",
          "name": "playerOne",
          "type": "address"
        },
        {
          "indexed": false,
          "internalType": "uint256",
          "name": "entryFee",
          "type": "uint256"
        }
      ],
      "name": "GameStarted",
      "type": "event"
    },
    {
      "inputs": [
        {
          "internalType": "address",
          "name": "",
          "type": "address"
        }
      ],
      "name": "balance",
      "outputs": [
        {
          "internalType": "uint256",
          "name": "",
          "type": "uint256"
        }
      ],
      "stateMutability": "view",
      "type": "function"
    },
    {
      "inputs": [
        {
          "internalType": "uint256",
          "name": "_amount",
          "type": "uint256"
        }
      ],
      "name": "claimRewards",
      "outputs": [],
      "stateMutability": "payable",
      "type": "function"
    },
    {
      "inputs": [],
      "name": "commission",
      "outputs": [
        {
          "internalType": "uint256",
          "name": "",
          "type": "uint256"
        }
      ],
      "stateMutability": "view",
      "type": "function"
    },
    {
      "inputs": [],
      "name": "countGame",
      "outputs": [
        {
          "internalType": "uint256",
          "name": "",
          "type": "uint256"
        }
      ],
      "stateMutability": "view",
      "type": "function"
    },
    {
      "inputs": [
        {
          "internalType": "uint256",
          "name": "_gameId",
          "type": "uint256"
        },
        {
          "internalType": "enum ChessGame.Winner",
          "name": "_winner",
          "type": "uint8"
        }
      ],
      "name": "finishGame",
      "outputs": [],
      "stateMutability": "nonpayable",
      "type": "function"
    },
    {
      "inputs": [
        {
          "internalType": "uint256",
          "name": "_gameId",
          "type": "uint256"
        }
      ],
      "name": "fundGame",
      "outputs": [],
      "stateMutability": "payable",
      "type": "function"
    },
    {
      "inputs": [
        {
          "internalType": "uint256",
          "name": "",
          "type": "uint256"
        }
      ],
      "name": "games",
      "outputs": [
        {
          "internalType": "uint256",
          "name": "gameId",
          "type": "uint256"
        },
        {
          "internalType": "uint256",
          "name": "creatingTime",
          "type": "uint256"
        },
        {
          "internalType": "address",
          "name": "playerOne",
          "type": "address"
        },
        {
          "internalType": "address",
          "name": "playerTwo",
          "type": "address"
        },
        {
          "internalType": "uint256",
          "name": "rewardPool",
          "type": "uint256"
        },
        {
          "internalType": "bool",
          "name": "isStarted",
          "type": "bool"
        },
        {
          "internalType": "bool",
          "name": "isFinished",
          "type": "bool"
        }
      ],
      "stateMutability": "view",
      "type": "function"
    },
    {
      "inputs": [],
      "name": "owner",
      "outputs": [
        {
          "internalType": "address payable",
          "name": "",
          "type": "address"
        }
      ],
      "stateMutability": "view",
      "type": "function"
    },
    {
      "inputs": [],
      "name": "pausedAllGames",
      "outputs": [
        {
          "internalType": "bool",
          "name": "",
          "type": "bool"
        }
      ],
      "stateMutability": "view",
      "type": "function"
    },
    {
      "inputs": [],
      "name": "startGame",
      "outputs": [],
      "stateMutability": "nonpayable",
      "type": "function"
    },
    {
      "inputs": [],
      "name": "toggleContract",
      "outputs": [],
      "stateMutability": "nonpayable",
      "type": "function"
    },
    {
      "inputs": [
        {
          "internalType": "uint256",
          "name": "_amount",
          "type": "uint256"
        }
      ],
      "name": "withdraw",
      "outputs": [],
      "stateMutability": "payable",
      "type": "function"
    }
  ],
  "bytecode": "0x60a060405260018055604051620020363803806200203683398181016040528101906200002d919062000151565b6032821062000073576040517f08c379a00000000000000000000000000000000000000000000000000000000081526004016200006a90620001f9565b60405180910390fd5b6064811015620000ba576040517f08c379a0000000000000000000000000000000000000000000000000000000008152600401620000b1906200026b565b60405180910390fd5b336000806101000a81548173ffffffffffffffffffffffffffffffffffffffff021916908373ffffffffffffffffffffffffffffffffffffffff16021790555081600381905550806080818152505050506200028d565b600080fd5b6000819050919050565b6200012b8162000116565b81146200013757600080fd5b50565b6000815190506200014b8162000120565b92915050565b600080604083850312156200016b576200016a62000111565b5b60006200017b858286016200013a565b92505060206200018e858286016200013a565b9150509250929050565b600082825260208201905092915050565b7f436f6d6d697373696f6e2073686f756c64206265203c2035302e000000000000600082015250565b6000620001e1601a8362000198565b9150620001ee82620001a9565b602082019050919050565b600060208201905081810360008301526200021481620001d2565b9050919050565b7f4d696e206665652073686f756c64206265203e3d203130300000000000000000600082015250565b60006200025360188362000198565b915062000260826200021b565b602082019050919050565b60006020820190508181036000830152620002868162000244565b9050919050565b608051611d8d620002a9600039600061092e0152611d8d6000f3fe6080604052600436106100a75760003560e01c80638da5cb5b116100645780638da5cb5b146101975780639df90028146101c2578063d0232c70146101d9578063d65ab5f214610204578063e14891911461021b578063e3d670d714610246576100a7565b80630962ef79146100ac578063117a5b90146100c85780632d4e8c461461010b5780632e1a7d4d146101345780632e55a767146101505780633bb6c5f41461016c575b600080fd5b6100c660048036038101906100c191906113ec565b610283565b005b3480156100d457600080fd5b506100ef60048036038101906100ea91906113ec565b61040b565b6040516101029796959493929190611484565b60405180910390f35b34801561011757600080fd5b50610132600480360381019061012d9190611518565b6104b7565b005b61014e600480360381019061014991906113ec565b6106c6565b005b61016a600480360381019061016591906113ec565b6108dc565b005b34801561017857600080fd5b50610181610c80565b60405161018e9190611558565b60405180910390f35b3480156101a357600080fd5b506101ac610c86565b6040516101b99190611594565b60405180910390f35b3480156101ce57600080fd5b506101d7610caa565b005b3480156101e557600080fd5b506101ee610d64565b6040516101fb91906115af565b60405180910390f35b34801561021057600080fd5b50610219610d77565b005b34801561022757600080fd5b50610230610fe6565b60405161023d9190611558565b60405180910390f35b34801561025257600080fd5b5061026d600480360381019061026891906115f6565b610fec565b60405161027a9190611558565b60405180910390f35b80600460003373ffffffffffffffffffffffffffffffffffffffff1673ffffffffffffffffffffffffffffffffffffffff168152602001908152602001600020541015610305576040517f08c379a00000000000000000000000000000000000000000000000000000000081526004016102fc90611680565b60405180910390fd5b80600460003373ffffffffffffffffffffffffffffffffffffffff1673ffffffffffffffffffffffffffffffffffffffff168152602001908152602001600020600082825461035491906116cf565b9250508190555060003373ffffffffffffffffffffffffffffffffffffffff168260405161038190611734565b60006040518083038185875af1925050503d80600081146103be576040519150601f19603f3d011682016040523d82523d6000602084013e6103c3565b606091505b5050905080610407576040517f08c379a00000000000000000000000000000000000000000000000000000000081526004016103fe90611795565b60405180910390fd5b5050565b6005818154811061041b57600080fd5b90600052602060002090600602016000915090508060000154908060010154908060020160009054906101000a900473ffffffffffffffffffffffffffffffffffffffff16908060030160009054906101000a900473ffffffffffffffffffffffffffffffffffffffff16908060040154908060050160009054906101000a900460ff16908060050160019054906101000a900460ff16905087565b60008054906101000a900473ffffffffffffffffffffffffffffffffffffffff1673ffffffffffffffffffffffffffffffffffffffff163373ffffffffffffffffffffffffffffffffffffffff1614610545576040517f08c379a000000000000000000000000000000000000000000000000000000000815260040161053c90611801565b60405180910390fd5b60006005838154811061055b5761055a611821565b5b906000526020600020906006020190508060050160009054906101000a900460ff166105bc576040517f08c379a00000000000000000000000000000000000000000000000000000000081526004016105b39061189c565b60405180910390fd5b8060050160019054906101000a900460ff161561060e576040517f08c379a000000000000000000000000000000000000000000000000000000000815260040161060590611908565b60405180910390fd5b60018160050160016101000a81548160ff0219169083151502179055507e21feea4608e6756f982d5bd71c09645176b4865cf6bd600fcc4aa990f02404838383600401546040516106619392919061199f565b60405180910390a16106c18160040154838360020160009054906101000a900473ffffffffffffffffffffffffffffffffffffffff168460030160009054906101000a900473ffffffffffffffffffffffffffffffffffffffff16611004565b505050565b60008054906101000a900473ffffffffffffffffffffffffffffffffffffffff1673ffffffffffffffffffffffffffffffffffffffff163373ffffffffffffffffffffffffffffffffffffffff1614610754576040517f08c379a000000000000000000000000000000000000000000000000000000000815260040161074b90611801565b60405180910390fd5b80600460003073ffffffffffffffffffffffffffffffffffffffff1673ffffffffffffffffffffffffffffffffffffffff1681526020019081526020016000205410156107d6576040517f08c379a00000000000000000000000000000000000000000000000000000000081526004016107cd90611680565b60405180910390fd5b80600460003073ffffffffffffffffffffffffffffffffffffffff1673ffffffffffffffffffffffffffffffffffffffff168152602001908152602001600020600082825461082591906116cf565b9250508190555060003373ffffffffffffffffffffffffffffffffffffffff168260405161085290611734565b60006040518083038185875af1925050503d806000811461088f576040519150601f19603f3d011682016040523d82523d6000602084013e610894565b606091505b50509050806108d8576040517f08c379a00000000000000000000000000000000000000000000000000000000081526004016108cf90611a22565b60405180910390fd5b5050565b600260009054906101000a900460ff161561092c576040517f08c379a000000000000000000000000000000000000000000000000000000000815260040161092390611a8e565b60405180910390fd5b7f000000000000000000000000000000000000000000000000000000000000000034101561098f576040517f08c379a000000000000000000000000000000000000000000000000000000000815260040161098690611afa565b60405180910390fd5b600073ffffffffffffffffffffffffffffffffffffffff16600582815481106109bb576109ba611821565b5b906000526020600020906006020160020160009054906101000a900473ffffffffffffffffffffffffffffffffffffffff1673ffffffffffffffffffffffffffffffffffffffff161480610a805750600073ffffffffffffffffffffffffffffffffffffffff1660058281548110610a3657610a35611821565b5b906000526020600020906006020160030160009054906101000a900473ffffffffffffffffffffffffffffffffffffffff1673ffffffffffffffffffffffffffffffffffffffff16145b610abf576040517f08c379a0000000000000000000000000000000000000000000000000000000008152600401610ab690611b66565b60405180910390fd5b600073ffffffffffffffffffffffffffffffffffffffff1660058281548110610aeb57610aea611821565b5b906000526020600020906006020160020160009054906101000a900473ffffffffffffffffffffffffffffffffffffffff1673ffffffffffffffffffffffffffffffffffffffff1603610ba1573360058281548110610b4d57610b4c611821565b5b906000526020600020906006020160020160006101000a81548173ffffffffffffffffffffffffffffffffffffffff021916908373ffffffffffffffffffffffffffffffffffffffff160217905550610c06565b3360058281548110610bb657610bb5611821565b5b906000526020600020906006020160030160006101000a81548173ffffffffffffffffffffffffffffffffffffffff021916908373ffffffffffffffffffffffffffffffffffffffff1602179055505b3460058281548110610c1b57610c1a611821565b5b90600052602060002090600602016004016000828254610c3b9190611b86565b925050819055507f6e5dff57840481c0c5b3c034761443b66d1c4067515620c33653f38fca6f41a4813334604051610c7593929190611bba565b60405180910390a150565b60015481565b60008054906101000a900473ffffffffffffffffffffffffffffffffffffffff1681565b60008054906101000a900473ffffffffffffffffffffffffffffffffffffffff1673ffffffffffffffffffffffffffffffffffffffff163373ffffffffffffffffffffffffffffffffffffffff1614610d38576040517f08c379a0000000000000000000000000000000000000000000000000000000008152600401610d2f90611801565b60405180910390fd5b600260009054906101000a900460ff1615600260006101000a81548160ff021916908315150217905550565b600260009054906101000a900460ff1681565b60008054906101000a900473ffffffffffffffffffffffffffffffffffffffff1673ffffffffffffffffffffffffffffffffffffffff163373ffffffffffffffffffffffffffffffffffffffff1614610e05576040517f08c379a0000000000000000000000000000000000000000000000000000000008152600401610dfc90611801565b60405180910390fd5b600260009054906101000a900460ff1615610e55576040517f08c379a0000000000000000000000000000000000000000000000000000000008152600401610e4c90611a8e565b60405180910390fd5b610e5d611344565b600154816000018181525050428160200181815250506005819080600181540180825580915050600190039060005260206000209060060201600090919091909150600082015181600001556020820151816001015560408201518160020160006101000a81548173ffffffffffffffffffffffffffffffffffffffff021916908373ffffffffffffffffffffffffffffffffffffffff16021790555060608201518160030160006101000a81548173ffffffffffffffffffffffffffffffffffffffff021916908373ffffffffffffffffffffffffffffffffffffffff1602179055506080820151816004015560a08201518160050160006101000a81548160ff02191690831515021790555060c08201518160050160016101000a81548160ff02191690831515021790555050507f0c82908456d66c43e9de63edd66f9faf875c8f3a12f936e162d675ec42c35444600154600080604051610fc393929190611c36565b60405180910390a160016000815480929190610fde90611c6d565b919050555050565b60035481565b60046020528060005260406000206000915090505481565b6001600381111561101857611017611928565b5b83600381111561102b5761102a611928565b5b0361112b5760006064600354606461104391906116cf565b8661104e9190611cb5565b6110589190611d26565b9050600060646003548761106c9190611cb5565b6110769190611d26565b905081600460008673ffffffffffffffffffffffffffffffffffffffff1673ffffffffffffffffffffffffffffffffffffffff16815260200190815260200160002060008282546110c79190611b86565b9250508190555080600460003073ffffffffffffffffffffffffffffffffffffffff1673ffffffffffffffffffffffffffffffffffffffff168152602001908152602001600020600082825461111d9190611b86565b92505081905550505061133e565b6002600381111561113f5761113e611928565b5b83600381111561115257611151611928565b5b036112525760006064600354606461116a91906116cf565b866111759190611cb5565b61117f9190611d26565b905060006064600354876111939190611cb5565b61119d9190611d26565b905081600460008573ffffffffffffffffffffffffffffffffffffffff1673ffffffffffffffffffffffffffffffffffffffff16815260200190815260200160002060008282546111ee9190611b86565b9250508190555080600460003073ffffffffffffffffffffffffffffffffffffffff1673ffffffffffffffffffffffffffffffffffffffff16815260200190815260200160002060008282546112449190611b86565b92505081905550505061133d565b60038081111561126557611264611928565b5b83600381111561127857611277611928565b5b0361133c57600060028561128c9190611d26565b905080600460008573ffffffffffffffffffffffffffffffffffffffff1673ffffffffffffffffffffffffffffffffffffffff16815260200190815260200160002060008282546112dd9190611b86565b9250508190555080600460008473ffffffffffffffffffffffffffffffffffffffff1673ffffffffffffffffffffffffffffffffffffffff16815260200190815260200160002060008282546113339190611b86565b92505081905550505b5b5b50505050565b6040518060e001604052806000815260200160008152602001600073ffffffffffffffffffffffffffffffffffffffff168152602001600073ffffffffffffffffffffffffffffffffffffffff168152602001600081526020016000151581526020016000151581525090565b600080fd5b6000819050919050565b6113c9816113b6565b81146113d457600080fd5b50565b6000813590506113e6816113c0565b92915050565b600060208284031215611402576114016113b1565b5b6000611410848285016113d7565b91505092915050565b611422816113b6565b82525050565b600073ffffffffffffffffffffffffffffffffffffffff82169050919050565b600061145382611428565b9050919050565b61146381611448565b82525050565b60008115159050919050565b61147e81611469565b82525050565b600060e082019050611499600083018a611419565b6114a66020830189611419565b6114b3604083018861145a565b6114c0606083018761145a565b6114cd6080830186611419565b6114da60a0830185611475565b6114e760c0830184611475565b98975050505050505050565b6004811061150057600080fd5b50565b600081359050611512816114f3565b92915050565b6000806040838503121561152f5761152e6113b1565b5b600061153d858286016113d7565b925050602061154e85828601611503565b9150509250929050565b600060208201905061156d6000830184611419565b92915050565b600061157e82611428565b9050919050565b61158e81611573565b82525050565b60006020820190506115a96000830184611585565b92915050565b60006020820190506115c46000830184611475565b92915050565b6115d381611448565b81146115de57600080fd5b50565b6000813590506115f0816115ca565b92915050565b60006020828403121561160c5761160b6113b1565b5b600061161a848285016115e1565b91505092915050565b600082825260208201905092915050565b7f4e6f7420656e6f7567682062616c616e63652e00000000000000000000000000600082015250565b600061166a601383611623565b915061167582611634565b602082019050919050565b600060208201905081810360008301526116998161165d565b9050919050565b7f4e487b7100000000000000000000000000000000000000000000000000000000600052601160045260246000fd5b60006116da826113b6565b91506116e5836113b6565b92508282039050818111156116fd576116fc6116a0565b5b92915050565b600081905092915050565b50565b600061171e600083611703565b91506117298261170e565b600082019050919050565b600061173f82611711565b9150819050919050565b7f4661696c656420746f20636c61696d20726577617264732e0000000000000000600082015250565b600061177f601883611623565b915061178a82611749565b602082019050919050565b600060208201905081810360008301526117ae81611772565b9050919050565b7f4e6f74206f776e65722e00000000000000000000000000000000000000000000600082015250565b60006117eb600a83611623565b91506117f6826117b5565b602082019050919050565b6000602082019050818103600083015261181a816117de565b9050919050565b7f4e487b7100000000000000000000000000000000000000000000000000000000600052603260045260246000fd5b7f47616d65206e6f7420737461727465642e000000000000000000000000000000600082015250565b6000611886601183611623565b915061189182611850565b602082019050919050565b600060208201905081810360008301526118b581611879565b9050919050565b7f47616d6520616c72656164792066696e69736865642e00000000000000000000600082015250565b60006118f2601683611623565b91506118fd826118bc565b602082019050919050565b60006020820190508181036000830152611921816118e5565b9050919050565b7f4e487b7100000000000000000000000000000000000000000000000000000000600052602160045260246000fd5b6004811061196857611967611928565b5b50565b600081905061197982611957565b919050565b60006119898261196b565b9050919050565b6119998161197e565b82525050565b60006060820190506119b46000830186611419565b6119c16020830185611990565b6119ce6040830184611419565b949350505050565b7f4661696c656420746f2077697468647261772e00000000000000000000000000600082015250565b6000611a0c601383611623565b9150611a17826119d6565b602082019050919050565b60006020820190508181036000830152611a3b816119ff565b9050919050565b7f47616d657320617265207061757365642e000000000000000000000000000000600082015250565b6000611a78601183611623565b9150611a8382611a42565b602082019050919050565b60006020820190508181036000830152611aa781611a6b565b9050919050565b7f496e73756666696369656e742066756e64732e00000000000000000000000000600082015250565b6000611ae4601383611623565b9150611aef82611aae565b602082019050919050565b60006020820190508181036000830152611b1381611ad7565b9050919050565b7f47616d6520616c72656164792066756c6c2e0000000000000000000000000000600082015250565b6000611b50601283611623565b9150611b5b82611b1a565b602082019050919050565b60006020820190508181036000830152611b7f81611b43565b9050919050565b6000611b91826113b6565b9150611b9c836113b6565b9250828201905080821115611bb457611bb36116a0565b5b92915050565b6000606082019050611bcf6000830186611419565b611bdc602083018561145a565b611be96040830184611419565b949350505050565b6000819050919050565b6000819050919050565b6000611c20611c1b611c1684611bf1565b611bfb565b6113b6565b9050919050565b611c3081611c05565b82525050565b6000606082019050611c4b6000830186611419565b611c58602083018561145a565b611c656040830184611c27565b949350505050565b6000611c78826113b6565b91507fffffffffffffffffffffffffffffffffffffffffffffffffffffffffffffffff8203611caa57611ca96116a0565b5b600182019050919050565b6000611cc0826113b6565b9150611ccb836113b6565b9250828202611cd9816113b6565b91508282048414831517611cf057611cef6116a0565b5b5092915050565b7f4e487b7100000000000000000000000000000000000000000000000000000000600052601260045260246000fd5b6000611d31826113b6565b9150611d3c836113b6565b925082611d4c57611d4b611cf7565b5b82820490509291505056fea2646970667358221220d0cca927d32de93cb79a95df44a2d30711a0bacd6377c4dd2609fcd8c39add0b64736f6c63430008180033",
  "linkReferences": {},
  "deployedLinkReferences": {}
}