{
  "_format": "hh-sol-artifact-1",
  "contractName": "Chess",
  "sourceName": "contracts/Chess.sol",
  "abi": [
    {
      "inputs": [
        {
          "internalType": "address payable",
          "name": "_creator",
          "type": "address"
        },
        {
          "internalType": "uint256",
          "name": "_entryFee",
          "type": "uint256"
        },
        {
          "internalType": "uint256",
          "name": "_commission",
          "type": "uint256"
        }
      ],
      "stateMutability": "payable",
      "type": "constructor"
    },
    {
      "anonymous": false,
      "inputs": [
        {
          "indexed": false,
          "internalType": "address",
          "name": "winner",
          "type": "address"
        },
        {
          "indexed": false,
          "internalType": "uint256",
          "name": "amount",
          "type": "uint256"
        }
      ],
      "name": "GameFinished",
      "type": "event"
    },
    {
      "anonymous": false,
      "inputs": [
        {
          "indexed": false,
          "internalType": "address",
          "name": "player",
          "type": "address"
        },
        {
          "indexed": false,
          "internalType": "uint256",
          "name": "entryFee",
          "type": "uint256"
        }
      ],
      "name": "GameJoined",
      "type": "event"
    },
    {
      "anonymous": false,
      "inputs": [
        {
          "indexed": false,
          "internalType": "address",
          "name": "player1",
          "type": "address"
        },
        {
          "indexed": false,
          "internalType": "address",
          "name": "player2",
          "type": "address"
        },
        {
          "indexed": false,
          "internalType": "uint256",
          "name": "entryFee",
          "type": "uint256"
        }
      ],
      "name": "GamePrimed",
      "type": "event"
    },
    {
      "inputs": [],
      "name": "cancelGame",
      "outputs": [],
      "stateMutability": "nonpayable",
      "type": "function"
    },
    {
      "inputs": [],
      "name": "commission",
      "outputs": [
        {
          "internalType": "uint256",
          "name": "",
          "type": "uint256"
        }
      ],
      "stateMutability": "view",
      "type": "function"
    },
    {
      "inputs": [],
      "name": "creator",
      "outputs": [
        {
          "internalType": "address payable",
          "name": "",
          "type": "address"
        }
      ],
      "stateMutability": "view",
      "type": "function"
    },
    {
      "inputs": [],
      "name": "entryFee",
      "outputs": [
        {
          "internalType": "uint256",
          "name": "",
          "type": "uint256"
        }
      ],
      "stateMutability": "view",
      "type": "function"
    },
    {
      "inputs": [
        {
          "internalType": "address",
          "name": "_winner",
          "type": "address"
        }
      ],
      "name": "finishGame",
      "outputs": [],
      "stateMutability": "nonpayable",
      "type": "function"
    },
    {
      "inputs": [],
      "name": "finished",
      "outputs": [
        {
          "internalType": "bool",
          "name": "",
          "type": "bool"
        }
      ],
      "stateMutability": "view",
      "type": "function"
    },
    {
      "inputs": [],
      "name": "getEntryFee",
      "outputs": [
        {
          "internalType": "uint256",
          "name": "",
          "type": "uint256"
        }
      ],
      "stateMutability": "view",
      "type": "function"
    },
    {
      "inputs": [],
      "name": "getOwner",
      "outputs": [
        {
          "internalType": "address",
          "name": "",
          "type": "address"
        }
      ],
      "stateMutability": "view",
      "type": "function"
    },
    {
      "inputs": [
        {
          "internalType": "address",
          "name": "",
          "type": "address"
        }
      ],
      "name": "hasJoined",
      "outputs": [
        {
          "internalType": "bool",
          "name": "",
          "type": "bool"
        }
      ],
      "stateMutability": "view",
      "type": "function"
    },
    {
      "inputs": [],
      "name": "joinGame",
      "outputs": [],
      "stateMutability": "payable",
      "type": "function"
    },
    {
      "inputs": [],
      "name": "player1",
      "outputs": [
        {
          "internalType": "address payable",
          "name": "",
          "type": "address"
        }
      ],
      "stateMutability": "view",
      "type": "function"
    },
    {
      "inputs": [],
      "name": "player2",
      "outputs": [
        {
          "internalType": "address payable",
          "name": "",
          "type": "address"
        }
      ],
      "stateMutability": "view",
      "type": "function"
    },
    {
      "inputs": [],
      "name": "started",
      "outputs": [
        {
          "internalType": "bool",
          "name": "",
          "type": "bool"
        }
      ],
      "stateMutability": "view",
      "type": "function"
    },
    {
      "inputs": [],
      "name": "winner",
      "outputs": [
        {
          "internalType": "address",
          "name": "",
          "type": "address"
        }
      ],
      "stateMutability": "view",
      "type": "function"
    },
    {
      "stateMutability": "payable",
      "type": "receive"
    }
  ],
  "bytecode": "0x608060405260405162001f4b38038062001f4b833981810160405281019062000029919062000223565b600073ffffffffffffffffffffffffffffffffffffffff168373ffffffffffffffffffffffffffffffffffffffff16036200009b576040517f08c379a0000000000000000000000000000000000000000000000000000000008152600401620000929062000306565b60405180910390fd5b60008211620000e1576040517f08c379a0000000000000000000000000000000000000000000000000000000008152600401620000d8906200039e565b60405180910390fd5b6064811062000127576040517f08c379a00000000000000000000000000000000000000000000000000000000081526004016200011e9062000436565b60405180910390fd5b826000806101000a81548173ffffffffffffffffffffffffffffffffffffffff021916908373ffffffffffffffffffffffffffffffffffffffff160217905550816003819055508060048190555050505062000458565b600080fd5b600073ffffffffffffffffffffffffffffffffffffffff82169050919050565b6000620001b08262000183565b9050919050565b620001c281620001a3565b8114620001ce57600080fd5b50565b600081519050620001e281620001b7565b92915050565b6000819050919050565b620001fd81620001e8565b81146200020957600080fd5b50565b6000815190506200021d81620001f2565b92915050565b6000806000606084860312156200023f576200023e6200017e565b5b60006200024f86828701620001d1565b935050602062000262868287016200020c565b925050604062000275868287016200020c565b9150509250925092565b600082825260208201905092915050565b7f43726561746f7220616464726573732063616e6e6f74206265207a65726f206160008201527f6464726573730000000000000000000000000000000000000000000000000000602082015250565b6000620002ee6026836200027f565b9150620002fb8262000290565b604082019050919050565b600060208201905081810360008301526200032181620002df565b9050919050565b7f456e74727920666565206d7573742062652067726561746572207468616e207a60008201527f65726f2e00000000000000000000000000000000000000000000000000000000602082015250565b6000620003866024836200027f565b9150620003938262000328565b604082019050919050565b60006020820190508181036000830152620003b98162000377565b9050919050565b7f436f6d6d697373696f6e206d757374206265206c657373207468616e2031303060008201527f2e00000000000000000000000000000000000000000000000000000000000000602082015250565b60006200041e6021836200027f565b91506200042b82620003c0565b604082019050919050565b6000602082019050818103600083015262000451816200040f565b9050919050565b611ae380620004686000396000f3fe6080604052600436106100e15760003560e01c8063d30895e41161007f578063dfbf53ae11610059578063dfbf53ae1461036f578063e14891911461039a578063e586a4f0146103c5578063e9652a19146103f0576101df565b8063d30895e414610323578063d4f77b1c1461034e578063d84c1ac914610358576101df565b806359a5f12d116100bb57806359a5f12d14610265578063877f4e1214610290578063893d20e8146102cd578063bef4876b146102f8576101df565b806302d05d3f146101e4578063072ea61c1461020f5780631f2698ab1461023a576101df565b366101df57600560009054906101000a900460ff161580156101105750600560019054906101000a900460ff16155b61014f576040517f08c379a0000000000000000000000000000000000000000000000000000000008152600401610146906111bd565b60405180910390fd5b60008054906101000a900473ffffffffffffffffffffffffffffffffffffffff1673ffffffffffffffffffffffffffffffffffffffff163373ffffffffffffffffffffffffffffffffffffffff16146101dd576040517f08c379a00000000000000000000000000000000000000000000000000000000081526004016101d49061124f565b60405180910390fd5b005b600080fd5b3480156101f057600080fd5b506101f9610419565b60405161020691906112b0565b60405180910390f35b34801561021b57600080fd5b5061022461043d565b60405161023191906112e4565b60405180910390f35b34801561024657600080fd5b5061024f610443565b60405161025c919061131a565b60405180910390f35b34801561027157600080fd5b5061027a610456565b60405161028791906112b0565b60405180910390f35b34801561029c57600080fd5b506102b760048036038101906102b29190611378565b61047c565b6040516102c4919061131a565b60405180910390f35b3480156102d957600080fd5b506102e261049c565b6040516102ef91906113b4565b60405180910390f35b34801561030457600080fd5b5061030d6104c5565b60405161031a919061131a565b60405180910390f35b34801561032f57600080fd5b506103386104d8565b60405161034591906112b0565b60405180910390f35b6103566104fe565b005b34801561036457600080fd5b5061036d610a88565b005b34801561037b57600080fd5b50610384610ca6565b60405161039191906113b4565b60405180910390f35b3480156103a657600080fd5b506103af610ccc565b6040516103bc91906112e4565b60405180910390f35b3480156103d157600080fd5b506103da610cd2565b6040516103e791906112e4565b60405180910390f35b3480156103fc57600080fd5b5061041760048036038101906104129190611378565b610cdc565b005b60008054906101000a900473ffffffffffffffffffffffffffffffffffffffff1681565b60035481565b600560009054906101000a900460ff1681565b600260009054906101000a900473ffffffffffffffffffffffffffffffffffffffff1681565b60066020528060005260406000206000915054906101000a900460ff1681565b60008060009054906101000a900473ffffffffffffffffffffffffffffffffffffffff16905090565b600560019054906101000a900460ff1681565b600160009054906101000a900473ffffffffffffffffffffffffffffffffffffffff1681565b600560009054906101000a900460ff161580156105285750600560019054906101000a900460ff16155b610567576040517f08c379a000000000000000000000000000000000000000000000000000000000815260040161055e906111bd565b60405180910390fd5b600354341460035460405160200161057f9190611447565b604051602081830303815290604052906105cf576040517f08c379a00000000000000000000000000000000000000000000000000000000081526004016105c691906114ec565b60405180910390fd5b50600660003373ffffffffffffffffffffffffffffffffffffffff1673ffffffffffffffffffffffffffffffffffffffff16815260200190815260200160002060009054906101000a900460ff161561065d576040517f08c379a000000000000000000000000000000000000000000000000000000000815260040161065490611580565b60405180910390fd5b600073ffffffffffffffffffffffffffffffffffffffff16600160009054906101000a900473ffffffffffffffffffffffffffffffffffffffff1673ffffffffffffffffffffffffffffffffffffffff16036107ae5733600160006101000a81548173ffffffffffffffffffffffffffffffffffffffff021916908373ffffffffffffffffffffffffffffffffffffffff1602179055506001600660003373ffffffffffffffffffffffffffffffffffffffff1673ffffffffffffffffffffffffffffffffffffffff16815260200190815260200160002060006101000a81548160ff0219169083151502179055507fc7f886847371dba98b78e0d0d59e29f4abfaf6e953d6897a761992cb2627e687600160009054906101000a900473ffffffffffffffffffffffffffffffffffffffff166003546040516107a19291906115ff565b60405180910390a1610936565b600073ffffffffffffffffffffffffffffffffffffffff16600260009054906101000a900473ffffffffffffffffffffffffffffffffffffffff1673ffffffffffffffffffffffffffffffffffffffff161461083f576040517f08c379a000000000000000000000000000000000000000000000000000000000815260040161083690611674565b60405180910390fd5b33600260006101000a81548173ffffffffffffffffffffffffffffffffffffffff021916908373ffffffffffffffffffffffffffffffffffffffff1602179055506001600660003373ffffffffffffffffffffffffffffffffffffffff1673ffffffffffffffffffffffffffffffffffffffff16815260200190815260200160002060006101000a81548160ff0219169083151502179055507fc7f886847371dba98b78e0d0d59e29f4abfaf6e953d6897a761992cb2627e687600260009054906101000a900473ffffffffffffffffffffffffffffffffffffffff1660035460405161092d9291906115ff565b60405180910390a15b600073ffffffffffffffffffffffffffffffffffffffff16600160009054906101000a900473ffffffffffffffffffffffffffffffffffffffff1673ffffffffffffffffffffffffffffffffffffffff16141580156109e45750600073ffffffffffffffffffffffffffffffffffffffff16600260009054906101000a900473ffffffffffffffffffffffffffffffffffffffff1673ffffffffffffffffffffffffffffffffffffffff1614155b15610a86576001600560006101000a81548160ff0219169083151502179055507f89fa9c4e385bdcb6e765e7156075926c8660c57d15923201c5cf4de0ab23d5ec600160009054906101000a900473ffffffffffffffffffffffffffffffffffffffff16600260009054906101000a900473ffffffffffffffffffffffffffffffffffffffff16600354604051610a7d93929190611694565b60405180910390a15b565b60008054906101000a900473ffffffffffffffffffffffffffffffffffffffff1673ffffffffffffffffffffffffffffffffffffffff163373ffffffffffffffffffffffffffffffffffffffff1614610b16576040517f08c379a0000000000000000000000000000000000000000000000000000000008152600401610b0d9061173d565b60405180910390fd5b600560009054906101000a900460ff16158015610b405750600560019054906101000a900460ff16155b610b7f576040517f08c379a0000000000000000000000000000000000000000000000000000000008152600401610b76906111bd565b60405180910390fd5b600073ffffffffffffffffffffffffffffffffffffffff16600160009054906101000a900473ffffffffffffffffffffffffffffffffffffffff1673ffffffffffffffffffffffffffffffffffffffff1614610c0457610c03600160009054906101000a900473ffffffffffffffffffffffffffffffffffffffff1660035461103d565b5b600073ffffffffffffffffffffffffffffffffffffffff16600260009054906101000a900473ffffffffffffffffffffffffffffffffffffffff1673ffffffffffffffffffffffffffffffffffffffff1614610c8957610c88600260009054906101000a900473ffffffffffffffffffffffffffffffffffffffff1660035461103d565b5b6001600560016101000a81548160ff021916908315150217905550565b600560029054906101000a900473ffffffffffffffffffffffffffffffffffffffff1681565b60045481565b6000600354905090565b60008054906101000a900473ffffffffffffffffffffffffffffffffffffffff1673ffffffffffffffffffffffffffffffffffffffff163373ffffffffffffffffffffffffffffffffffffffff1614610d6a576040517f08c379a0000000000000000000000000000000000000000000000000000000008152600401610d61906117cf565b60405180910390fd5b600560009054906101000a900460ff168015610d935750600560019054906101000a900460ff16155b610dd2576040517f08c379a0000000000000000000000000000000000000000000000000000000008152600401610dc990611861565b60405180910390fd5b80600560026101000a81548173ffffffffffffffffffffffffffffffffffffffff021916908373ffffffffffffffffffffffffffffffffffffffff1602179055506001600560016101000a81548160ff021916908315150217905550600073ffffffffffffffffffffffffffffffffffffffff168173ffffffffffffffffffffffffffffffffffffffff1603610ec357610e90600160009054906101000a900473ffffffffffffffffffffffffffffffffffffffff1660035461103d565b610ebe600260009054906101000a900473ffffffffffffffffffffffffffffffffffffffff1660035461103d565b61103a565b60004790506000606460045483610eda91906118b0565b610ee49190611921565b905060008183610ef49190611952565b9050600160009054906101000a900473ffffffffffffffffffffffffffffffffffffffff1673ffffffffffffffffffffffffffffffffffffffff168473ffffffffffffffffffffffffffffffffffffffff1603610fa657610f77600160009054906101000a900473ffffffffffffffffffffffffffffffffffffffff168261103d565b610fa160008054906101000a900473ffffffffffffffffffffffffffffffffffffffff168361103d565b610ffd565b610fd2600260009054906101000a900473ffffffffffffffffffffffffffffffffffffffff168261103d565b610ffc60008054906101000a900473ffffffffffffffffffffffffffffffffffffffff168361103d565b5b7f27223f8d1d659564536abdf661d810b8a16ca4f6c69034f2a73b74b0853d9829848260405161102e929190611986565b60405180910390a15050505b50565b600073ffffffffffffffffffffffffffffffffffffffff168273ffffffffffffffffffffffffffffffffffffffff16036110ac576040517f08c379a00000000000000000000000000000000000000000000000000000000081526004016110a3906119fb565b60405180910390fd5b600081116110ef576040517f08c379a00000000000000000000000000000000000000000000000000000000081526004016110e690611a8d565b60405180910390fd5b8173ffffffffffffffffffffffffffffffffffffffff166108fc829081150290604051600060405180830381858888f19350505050158015611135573d6000803e3d6000fd5b505050565b600082825260208201905092915050565b7f47616d6520616c72656164792073746172746564206f722066696e697368656460008201527f2e00000000000000000000000000000000000000000000000000000000000000602082015250565b60006111a760218361113a565b91506111b28261114b565b604082019050919050565b600060208201905081810360008301526111d68161119a565b9050919050565b7f4f6e6c792063726561746f722063616e2073656e6420696e697469616c20667560008201527f6e64732e00000000000000000000000000000000000000000000000000000000602082015250565b600061123960248361113a565b9150611244826111dd565b604082019050919050565b600060208201905081810360008301526112688161122c565b9050919050565b600073ffffffffffffffffffffffffffffffffffffffff82169050919050565b600061129a8261126f565b9050919050565b6112aa8161128f565b82525050565b60006020820190506112c560008301846112a1565b92915050565b6000819050919050565b6112de816112cb565b82525050565b60006020820190506112f960008301846112d5565b92915050565b60008115159050919050565b611314816112ff565b82525050565b600060208201905061132f600083018461130b565b92915050565b600080fd5b60006113458261126f565b9050919050565b6113558161133a565b811461136057600080fd5b50565b6000813590506113728161134c565b92915050565b60006020828403121561138e5761138d611335565b5b600061139c84828501611363565b91505092915050565b6113ae8161133a565b82525050565b60006020820190506113c960008301846113a5565b92915050565b600081905092915050565b7f496e636f727265637420656e747279206665652e2045787065637465643a2000600082015250565b6000611410601f836113cf565b915061141b826113da565b601f82019050919050565b6000819050919050565b61144161143c826112cb565b611426565b82525050565b600061145282611403565b915061145e8284611430565b60208201915081905092915050565b600081519050919050565b60005b8381101561149657808201518184015260208101905061147b565b60008484015250505050565b6000601f19601f8301169050919050565b60006114be8261146d565b6114c8818561113a565b93506114d8818560208601611478565b6114e1816114a2565b840191505092915050565b6000602082019050818103600083015261150681846114b3565b905092915050565b7f596f75206861766520616c7265616479206a6f696e6564207468652067616d6560008201527f2e00000000000000000000000000000000000000000000000000000000000000602082015250565b600061156a60218361113a565b91506115758261150e565b604082019050919050565b600060208201905081810360008301526115998161155d565b9050919050565b6000819050919050565b60006115c56115c06115bb8461126f565b6115a0565b61126f565b9050919050565b60006115d7826115aa565b9050919050565b60006115e9826115cc565b9050919050565b6115f9816115de565b82525050565b600060408201905061161460008301856115f0565b61162160208301846112d5565b9392505050565b7f47616d6520697320616c72656164792066756c6c2e0000000000000000000000600082015250565b600061165e60158361113a565b915061166982611628565b602082019050919050565b6000602082019050818103600083015261168d81611651565b9050919050565b60006060820190506116a960008301866115f0565b6116b660208301856115f0565b6116c360408301846112d5565b949350505050565b7f4f6e6c792063726561746f722063616e2063616e63656c207468652067616d6560008201527f2e00000000000000000000000000000000000000000000000000000000000000602082015250565b600061172760218361113a565b9150611732826116cb565b604082019050919050565b600060208201905081810360008301526117568161171a565b9050919050565b7f4f6e6c792063726561746f722063616e2066696e697368207468652067616d6560008201527f2e00000000000000000000000000000000000000000000000000000000000000602082015250565b60006117b960218361113a565b91506117c48261175d565b604082019050919050565b600060208201905081810360008301526117e8816117ac565b9050919050565b7f47616d65206e6f742073746172746564206f7220616c72656164792066696e6960008201527f736865642e000000000000000000000000000000000000000000000000000000602082015250565b600061184b60258361113a565b9150611856826117ef565b604082019050919050565b6000602082019050818103600083015261187a8161183e565b9050919050565b7f4e487b7100000000000000000000000000000000000000000000000000000000600052601160045260246000fd5b60006118bb826112cb565b91506118c6836112cb565b92508282026118d4816112cb565b915082820484148315176118eb576118ea611881565b5b5092915050565b7f4e487b7100000000000000000000000000000000000000000000000000000000600052601260045260246000fd5b600061192c826112cb565b9150611937836112cb565b925082611947576119466118f2565b5b828204905092915050565b600061195d826112cb565b9150611968836112cb565b92508282039050818111156119805761197f611881565b5b92915050565b600060408201905061199b60008301856113a5565b6119a860208301846112d5565b9392505050565b7f496e76616c696420726563697069656e7420616464726573732e000000000000600082015250565b60006119e5601a8361113a565b91506119f0826119af565b602082019050919050565b60006020820190508181036000830152611a14816119d8565b9050919050565b7f416d6f756e74206d7573742062652067726561746572207468616e207a65726f60008201527f2e00000000000000000000000000000000000000000000000000000000000000602082015250565b6000611a7760218361113a565b9150611a8282611a1b565b604082019050919050565b60006020820190508181036000830152611aa681611a6a565b905091905056fea2646970667358221220d511afc48bd52e798215bfef93a8ed5ee887a4f4fd8772cdf83277a37551053664736f6c63430008180033",
  "linkReferences": {},
  "deployedLinkReferences": {}
}