{
  "_format": "hh-sol-artifact-1",
  "contractName": "Chess",
  "sourceName": "contracts/Chess.sol",
  "abi": [
    {
      "inputs": [
        {
          "internalType": "uint256",
          "name": "_entryFee",
          "type": "uint256"
        },
        {
          "internalType": "uint256",
          "name": "_commission",
          "type": "uint256"
        }
      ],
      "stateMutability": "payable",
      "type": "constructor"
    },
    {
      "inputs": [],
      "name": "cancelGame",
      "outputs": [],
      "stateMutability": "nonpayable",
      "type": "function"
    },
    {
      "inputs": [],
      "name": "commission",
      "outputs": [
        {
          "internalType": "uint256",
          "name": "",
          "type": "uint256"
        }
      ],
      "stateMutability": "view",
      "type": "function"
    },
    {
      "inputs": [],
      "name": "creator",
      "outputs": [
        {
          "internalType": "address payable",
          "name": "",
          "type": "address"
        }
      ],
      "stateMutability": "view",
      "type": "function"
    },
    {
      "inputs": [],
      "name": "entryFee",
      "outputs": [
        {
          "internalType": "uint256",
          "name": "",
          "type": "uint256"
        }
      ],
      "stateMutability": "view",
      "type": "function"
    },
    {
      "inputs": [
        {
          "internalType": "address",
          "name": "_winner",
          "type": "address"
        }
      ],
      "name": "finishGame",
      "outputs": [],
      "stateMutability": "nonpayable",
      "type": "function"
    },
    {
      "inputs": [],
      "name": "finished",
      "outputs": [
        {
          "internalType": "bool",
          "name": "",
          "type": "bool"
        }
      ],
      "stateMutability": "view",
      "type": "function"
    },
    {
      "inputs": [],
      "name": "getEntryFee",
      "outputs": [
        {
          "internalType": "uint256",
          "name": "",
          "type": "uint256"
        }
      ],
      "stateMutability": "view",
      "type": "function"
    },
    {
      "inputs": [
        {
          "internalType": "address",
          "name": "",
          "type": "address"
        }
      ],
      "name": "hasJoined",
      "outputs": [
        {
          "internalType": "bool",
          "name": "",
          "type": "bool"
        }
      ],
      "stateMutability": "view",
      "type": "function"
    },
    {
      "inputs": [],
      "name": "joinGame",
      "outputs": [],
      "stateMutability": "payable",
      "type": "function"
    },
    {
      "inputs": [],
      "name": "player1",
      "outputs": [
        {
          "internalType": "address payable",
          "name": "",
          "type": "address"
        }
      ],
      "stateMutability": "view",
      "type": "function"
    },
    {
      "inputs": [],
      "name": "player2",
      "outputs": [
        {
          "internalType": "address payable",
          "name": "",
          "type": "address"
        }
      ],
      "stateMutability": "view",
      "type": "function"
    },
    {
      "inputs": [],
      "name": "started",
      "outputs": [
        {
          "internalType": "bool",
          "name": "",
          "type": "bool"
        }
      ],
      "stateMutability": "view",
      "type": "function"
    },
    {
      "inputs": [],
      "name": "winner",
      "outputs": [
        {
          "internalType": "address",
          "name": "",
          "type": "address"
        }
      ],
      "stateMutability": "view",
      "type": "function"
    },
    {
      "inputs": [],
      "name": "withdrawCommission",
      "outputs": [],
      "stateMutability": "nonpayable",
      "type": "function"
    },
    {
      "inputs": [],
      "name": "withdrawWinnings",
      "outputs": [],
      "stateMutability": "nonpayable",
      "type": "function"
    },
    {
      "stateMutability": "payable",
      "type": "receive"
    }
  ],
  "bytecode": "0x608060405260405162001cd838038062001cd883398181016040528101906200002991906200014b565b600082116200006f576040517f08c379a0000000000000000000000000000000000000000000000000000000008152600401620000669062000219565b60405180910390fd5b60648110620000b5576040517f08c379a0000000000000000000000000000000000000000000000000000000008152600401620000ac90620002b1565b60405180910390fd5b336000806101000a81548173ffffffffffffffffffffffffffffffffffffffff021916908373ffffffffffffffffffffffffffffffffffffffff16021790555081600381905550806004819055505050620002d3565b600080fd5b6000819050919050565b620001258162000110565b81146200013157600080fd5b50565b60008151905062000145816200011a565b92915050565b600080604083850312156200016557620001646200010b565b5b6000620001758582860162000134565b9250506020620001888582860162000134565b9150509250929050565b600082825260208201905092915050565b7f456e74727920666565206d7573742062652067726561746572207468616e207a60008201527f65726f2e00000000000000000000000000000000000000000000000000000000602082015250565b60006200020160248362000192565b91506200020e82620001a3565b604082019050919050565b600060208201905081810360008301526200023481620001f2565b9050919050565b7f436f6d6d697373696f6e206d757374206265206c657373207468616e2031303060008201527f2e00000000000000000000000000000000000000000000000000000000000000602082015250565b60006200029960218362000192565b9150620002a6826200023b565b604082019050919050565b60006020820190508181036000830152620002cc816200028a565b9050919050565b6119f580620002e36000396000f3fe6080604052600436106100ec5760003560e01c8063cc42e83a1161008a578063dfbf53ae11610059578063dfbf53ae1461037d578063e1489191146103a8578063e586a4f0146103d3578063e9652a19146103fe576101ea565b8063cc42e83a1461031a578063d30895e414610331578063d4f77b1c1461035c578063d84c1ac914610366576101ea565b80633e25e837116100c65780633e25e8371461027057806359a5f12d14610287578063877f4e12146102b2578063bef4876b146102ef576101ea565b806302d05d3f146101ef578063072ea61c1461021a5780631f2698ab14610245576101ea565b366101ea57600560009054906101000a900460ff1615801561011b5750600560019054906101000a900460ff16155b61015a576040517f08c379a000000000000000000000000000000000000000000000000000000000815260040161015190611015565b60405180910390fd5b60008054906101000a900473ffffffffffffffffffffffffffffffffffffffff1673ffffffffffffffffffffffffffffffffffffffff163373ffffffffffffffffffffffffffffffffffffffff16146101e8576040517f08c379a00000000000000000000000000000000000000000000000000000000081526004016101df906110a7565b60405180910390fd5b005b600080fd5b3480156101fb57600080fd5b50610204610427565b6040516102119190611108565b60405180910390f35b34801561022657600080fd5b5061022f61044b565b60405161023c919061113c565b60405180910390f35b34801561025157600080fd5b5061025a610451565b6040516102679190611172565b60405180910390f35b34801561027c57600080fd5b50610285610464565b005b34801561029357600080fd5b5061029c610612565b6040516102a99190611108565b60405180910390f35b3480156102be57600080fd5b506102d960048036038101906102d491906111d0565b610638565b6040516102e69190611172565b60405180910390f35b3480156102fb57600080fd5b50610304610658565b6040516103119190611172565b60405180910390f35b34801561032657600080fd5b5061032f61066b565b005b34801561033d57600080fd5b506103466107fe565b6040516103539190611108565b60405180910390f35b610364610824565b005b34801561037257600080fd5b5061037b610bbf565b005b34801561038957600080fd5b50610392610d1f565b60405161039f919061120c565b60405180910390f35b3480156103b457600080fd5b506103bd610d45565b6040516103ca919061113c565b60405180910390f35b3480156103df57600080fd5b506103e8610d4b565b6040516103f5919061113c565b60405180910390f35b34801561040a57600080fd5b50610425600480360381019061042091906111d0565b610d55565b005b60008054906101000a900473ffffffffffffffffffffffffffffffffffffffff1681565b60035481565b600560009054906101000a900460ff1681565b600560019054906101000a900460ff166104b3576040517f08c379a00000000000000000000000000000000000000000000000000000000081526004016104aa90611273565b60405180910390fd5b60008054906101000a900473ffffffffffffffffffffffffffffffffffffffff1673ffffffffffffffffffffffffffffffffffffffff163373ffffffffffffffffffffffffffffffffffffffff1614610541576040517f08c379a000000000000000000000000000000000000000000000000000000000815260040161053890611305565b60405180910390fd5b600047905060006064600454836105589190611354565b61056291906113c5565b9050600081116105a7576040517f08c379a000000000000000000000000000000000000000000000000000000000815260040161059e90611442565b60405180910390fd5b60008054906101000a900473ffffffffffffffffffffffffffffffffffffffff1673ffffffffffffffffffffffffffffffffffffffff166108fc829081150290604051600060405180830381858888f1935050505015801561060d573d6000803e3d6000fd5b505050565b600260009054906101000a900473ffffffffffffffffffffffffffffffffffffffff1681565b60066020528060005260406000206000915054906101000a900460ff1681565b600560019054906101000a900460ff1681565b600560019054906101000a900460ff166106ba576040517f08c379a00000000000000000000000000000000000000000000000000000000081526004016106b190611273565b60405180910390fd5b600560029054906101000a900473ffffffffffffffffffffffffffffffffffffffff1673ffffffffffffffffffffffffffffffffffffffff163373ffffffffffffffffffffffffffffffffffffffff161461074a576040517f08c379a0000000000000000000000000000000000000000000000000000000008152600401610741906114d4565b60405180910390fd5b600047905060008111610792576040517f08c379a000000000000000000000000000000000000000000000000000000000815260040161078990611540565b60405180910390fd5b600560029054906101000a900473ffffffffffffffffffffffffffffffffffffffff1673ffffffffffffffffffffffffffffffffffffffff166108fc829081150290604051600060405180830381858888f193505050501580156107fa573d6000803e3d6000fd5b5050565b600160009054906101000a900473ffffffffffffffffffffffffffffffffffffffff1681565b600560009054906101000a900460ff1615801561084e5750600560019054906101000a900460ff16155b61088d576040517f08c379a000000000000000000000000000000000000000000000000000000000815260040161088490611015565b60405180910390fd5b60035434146003546040516020016108a591906115d8565b604051602081830303815290604052906108f5576040517f08c379a00000000000000000000000000000000000000000000000000000000081526004016108ec919061167d565b60405180910390fd5b50600660003373ffffffffffffffffffffffffffffffffffffffff1673ffffffffffffffffffffffffffffffffffffffff16815260200190815260200160002060009054906101000a900460ff1615610983576040517f08c379a000000000000000000000000000000000000000000000000000000000815260040161097a90611711565b60405180910390fd5b600073ffffffffffffffffffffffffffffffffffffffff16600160009054906101000a900473ffffffffffffffffffffffffffffffffffffffff1673ffffffffffffffffffffffffffffffffffffffff1603610a775733600160006101000a81548173ffffffffffffffffffffffffffffffffffffffff021916908373ffffffffffffffffffffffffffffffffffffffff1602179055506001600660003373ffffffffffffffffffffffffffffffffffffffff1673ffffffffffffffffffffffffffffffffffffffff16815260200190815260200160002060006101000a81548160ff021916908315150217905550610bbd565b600073ffffffffffffffffffffffffffffffffffffffff16600260009054906101000a900473ffffffffffffffffffffffffffffffffffffffff1673ffffffffffffffffffffffffffffffffffffffff1614610b08576040517f08c379a0000000000000000000000000000000000000000000000000000000008152600401610aff9061177d565b60405180910390fd5b33600260006101000a81548173ffffffffffffffffffffffffffffffffffffffff021916908373ffffffffffffffffffffffffffffffffffffffff1602179055506001600660003373ffffffffffffffffffffffffffffffffffffffff1673ffffffffffffffffffffffffffffffffffffffff16815260200190815260200160002060006101000a81548160ff0219169083151502179055506001600560006101000a81548160ff0219169083151502179055505b565b60008054906101000a900473ffffffffffffffffffffffffffffffffffffffff1673ffffffffffffffffffffffffffffffffffffffff163373ffffffffffffffffffffffffffffffffffffffff1614610c4d576040517f08c379a0000000000000000000000000000000000000000000000000000000008152600401610c449061180f565b60405180910390fd5b600560009054906101000a900460ff16158015610c775750600560019054906101000a900460ff16155b610cb6576040517f08c379a0000000000000000000000000000000000000000000000000000000008152600401610cad90611015565b60405180910390fd5b60008054906101000a900473ffffffffffffffffffffffffffffffffffffffff1673ffffffffffffffffffffffffffffffffffffffff166108fc479081150290604051600060405180830381858888f19350505050158015610d1c573d6000803e3d6000fd5b50565b600560029054906101000a900473ffffffffffffffffffffffffffffffffffffffff1681565b60045481565b6000600354905090565b60008054906101000a900473ffffffffffffffffffffffffffffffffffffffff1673ffffffffffffffffffffffffffffffffffffffff163373ffffffffffffffffffffffffffffffffffffffff1614610de3576040517f08c379a0000000000000000000000000000000000000000000000000000000008152600401610dda906118a1565b60405180910390fd5b600560009054906101000a900460ff168015610e0c5750600560019054906101000a900460ff16155b610e4b576040517f08c379a0000000000000000000000000000000000000000000000000000000008152600401610e4290611933565b60405180910390fd5b600160009054906101000a900473ffffffffffffffffffffffffffffffffffffffff1673ffffffffffffffffffffffffffffffffffffffff168173ffffffffffffffffffffffffffffffffffffffff161480610ef45750600260009054906101000a900473ffffffffffffffffffffffffffffffffffffffff1673ffffffffffffffffffffffffffffffffffffffff168173ffffffffffffffffffffffffffffffffffffffff16145b610f33576040517f08c379a0000000000000000000000000000000000000000000000000000000008152600401610f2a9061199f565b60405180910390fd5b80600560026101000a81548173ffffffffffffffffffffffffffffffffffffffff021916908373ffffffffffffffffffffffffffffffffffffffff1602179055506001600560016101000a81548160ff02191690831515021790555050565b600082825260208201905092915050565b7f47616d6520616c72656164792073746172746564206f722066696e697368656460008201527f2e00000000000000000000000000000000000000000000000000000000000000602082015250565b6000610fff602183610f92565b915061100a82610fa3565b604082019050919050565b6000602082019050818103600083015261102e81610ff2565b9050919050565b7f4f6e6c792063726561746f722063616e2073656e6420696e697469616c20667560008201527f6e64732e00000000000000000000000000000000000000000000000000000000602082015250565b6000611091602483610f92565b915061109c82611035565b604082019050919050565b600060208201905081810360008301526110c081611084565b9050919050565b600073ffffffffffffffffffffffffffffffffffffffff82169050919050565b60006110f2826110c7565b9050919050565b611102816110e7565b82525050565b600060208201905061111d60008301846110f9565b92915050565b6000819050919050565b61113681611123565b82525050565b6000602082019050611151600083018461112d565b92915050565b60008115159050919050565b61116c81611157565b82525050565b60006020820190506111876000830184611163565b92915050565b600080fd5b600061119d826110c7565b9050919050565b6111ad81611192565b81146111b857600080fd5b50565b6000813590506111ca816111a4565b92915050565b6000602082840312156111e6576111e561118d565b5b60006111f4848285016111bb565b91505092915050565b61120681611192565b82525050565b600060208201905061122160008301846111fd565b92915050565b7f47616d65206e6f742066696e6973686564207965742e00000000000000000000600082015250565b600061125d601683610f92565b915061126882611227565b602082019050919050565b6000602082019050818103600083015261128c81611250565b9050919050565b7f4f6e6c792063726561746f722063616e20776974686472617720636f6d6d697360008201527f73696f6e2e000000000000000000000000000000000000000000000000000000602082015250565b60006112ef602583610f92565b91506112fa82611293565b604082019050919050565b6000602082019050818103600083015261131e816112e2565b9050919050565b7f4e487b7100000000000000000000000000000000000000000000000000000000600052601160045260246000fd5b600061135f82611123565b915061136a83611123565b925082820261137881611123565b9150828204841483151761138f5761138e611325565b5b5092915050565b7f4e487b7100000000000000000000000000000000000000000000000000000000600052601260045260246000fd5b60006113d082611123565b91506113db83611123565b9250826113eb576113ea611396565b5b828204905092915050565b7f436f6d6d697373696f6e2062616c616e636520697320656d7074790000000000600082015250565b600061142c601b83610f92565b9150611437826113f6565b602082019050919050565b6000602082019050818103600083015261145b8161141f565b9050919050565b7f4f6e6c792077696e6e65722063616e2077697468647261772077696e6e696e6760008201527f732e000000000000000000000000000000000000000000000000000000000000602082015250565b60006114be602283610f92565b91506114c982611462565b604082019050919050565b600060208201905081810360008301526114ed816114b1565b9050919050565b7f436f6e74726163742062616c616e636520697320656d70747900000000000000600082015250565b600061152a601983610f92565b9150611535826114f4565b602082019050919050565b600060208201905081810360008301526115598161151d565b9050919050565b600081905092915050565b7f496e636f727265637420656e747279206665652e2045787065637465643a2000600082015250565b60006115a1601f83611560565b91506115ac8261156b565b601f82019050919050565b6000819050919050565b6115d26115cd82611123565b6115b7565b82525050565b60006115e382611594565b91506115ef82846115c1565b60208201915081905092915050565b600081519050919050565b60005b8381101561162757808201518184015260208101905061160c565b60008484015250505050565b6000601f19601f8301169050919050565b600061164f826115fe565b6116598185610f92565b9350611669818560208601611609565b61167281611633565b840191505092915050565b600060208201905081810360008301526116978184611644565b905092915050565b7f596f75206861766520616c7265616479206a6f696e6564207468652067616d6560008201527f2e00000000000000000000000000000000000000000000000000000000000000602082015250565b60006116fb602183610f92565b91506117068261169f565b604082019050919050565b6000602082019050818103600083015261172a816116ee565b9050919050565b7f47616d6520697320616c72656164792066756c6c2e0000000000000000000000600082015250565b6000611767601583610f92565b915061177282611731565b602082019050919050565b600060208201905081810360008301526117968161175a565b9050919050565b7f4f6e6c792063726561746f722063616e2063616e63656c207468652067616d6560008201527f2e00000000000000000000000000000000000000000000000000000000000000602082015250565b60006117f9602183610f92565b91506118048261179d565b604082019050919050565b60006020820190508181036000830152611828816117ec565b9050919050565b7f4f6e6c792063726561746f722063616e2066696e697368207468652067616d6560008201527f2e00000000000000000000000000000000000000000000000000000000000000602082015250565b600061188b602183610f92565b91506118968261182f565b604082019050919050565b600060208201905081810360008301526118ba8161187e565b9050919050565b7f47616d65206e6f742073746172746564206f7220616c72656164792066696e6960008201527f736865642e000000000000000000000000000000000000000000000000000000602082015250565b600061191d602583610f92565b9150611928826118c1565b604082019050919050565b6000602082019050818103600083015261194c81611910565b9050919050565b7f496e76616c69642077696e6e657220616464726573732e000000000000000000600082015250565b6000611989601783610f92565b915061199482611953565b602082019050919050565b600060208201905081810360008301526119b88161197c565b905091905056fea2646970667358221220ecfb8d5d385a3034263a4b129a41d9611c430d962352f0142be4bc41c7beb6dc64736f6c63430008180033",
  "linkReferences": {},
  "deployedLinkReferences": {}
}