{
  "_format": "hh-sol-artifact-1",
  "contractName": "Chess",
  "sourceName": "contracts/Chess.sol",
  "abi": [
    {
      "inputs": [
        {
          "internalType": "address payable",
          "name": "_creator",
          "type": "address"
        },
        {
          "internalType": "uint256",
          "name": "_entryFee",
          "type": "uint256"
        },
        {
          "internalType": "uint256",
          "name": "_commission",
          "type": "uint256"
        }
      ],
      "stateMutability": "payable",
      "type": "constructor"
    },
    {
      "anonymous": false,
      "inputs": [
        {
          "indexed": false,
          "internalType": "address",
          "name": "recipient",
          "type": "address"
        },
        {
          "indexed": false,
          "internalType": "uint256",
          "name": "amount",
          "type": "uint256"
        }
      ],
      "name": "FundsTransferred",
      "type": "event"
    },
    {
      "anonymous": false,
      "inputs": [
        {
          "indexed": false,
          "internalType": "address",
          "name": "winner",
          "type": "address"
        },
        {
          "indexed": false,
          "internalType": "uint256",
          "name": "winnings",
          "type": "uint256"
        },
        {
          "indexed": false,
          "internalType": "uint256",
          "name": "commission",
          "type": "uint256"
        }
      ],
      "name": "GameFinished",
      "type": "event"
    },
    {
      "anonymous": false,
      "inputs": [
        {
          "indexed": false,
          "internalType": "address",
          "name": "player",
          "type": "address"
        },
        {
          "indexed": false,
          "internalType": "uint256",
          "name": "entryFee",
          "type": "uint256"
        }
      ],
      "name": "GameJoined",
      "type": "event"
    },
    {
      "anonymous": false,
      "inputs": [
        {
          "indexed": false,
          "internalType": "address",
          "name": "player1",
          "type": "address"
        },
        {
          "indexed": false,
          "internalType": "address",
          "name": "player2",
          "type": "address"
        },
        {
          "indexed": false,
          "internalType": "uint256",
          "name": "entryFee",
          "type": "uint256"
        },
        {
          "indexed": false,
          "internalType": "uint256",
          "name": "totalPot",
          "type": "uint256"
        }
      ],
      "name": "GamePrimed",
      "type": "event"
    },
    {
      "anonymous": false,
      "inputs": [],
      "name": "Locked",
      "type": "event"
    },
    {
      "anonymous": false,
      "inputs": [],
      "name": "Unlocked",
      "type": "event"
    },
    {
      "inputs": [],
      "name": "cancelGame",
      "outputs": [],
      "stateMutability": "nonpayable",
      "type": "function"
    },
    {
      "inputs": [],
      "name": "commission",
      "outputs": [
        {
          "internalType": "uint256",
          "name": "",
          "type": "uint256"
        }
      ],
      "stateMutability": "view",
      "type": "function"
    },
    {
      "inputs": [],
      "name": "creator",
      "outputs": [
        {
          "internalType": "address payable",
          "name": "",
          "type": "address"
        }
      ],
      "stateMutability": "view",
      "type": "function"
    },
    {
      "inputs": [],
      "name": "entryFee",
      "outputs": [
        {
          "internalType": "uint256",
          "name": "",
          "type": "uint256"
        }
      ],
      "stateMutability": "view",
      "type": "function"
    },
    {
      "inputs": [
        {
          "internalType": "address",
          "name": "_winner",
          "type": "address"
        }
      ],
      "name": "finishGame",
      "outputs": [],
      "stateMutability": "nonpayable",
      "type": "function"
    },
    {
      "inputs": [],
      "name": "finished",
      "outputs": [
        {
          "internalType": "bool",
          "name": "",
          "type": "bool"
        }
      ],
      "stateMutability": "view",
      "type": "function"
    },
    {
      "inputs": [],
      "name": "getEntryFee",
      "outputs": [
        {
          "internalType": "uint256",
          "name": "",
          "type": "uint256"
        }
      ],
      "stateMutability": "view",
      "type": "function"
    },
    {
      "inputs": [],
      "name": "getOwner",
      "outputs": [
        {
          "internalType": "address",
          "name": "",
          "type": "address"
        }
      ],
      "stateMutability": "view",
      "type": "function"
    },
    {
      "inputs": [
        {
          "internalType": "address",
          "name": "",
          "type": "address"
        }
      ],
      "name": "hasJoined",
      "outputs": [
        {
          "internalType": "bool",
          "name": "",
          "type": "bool"
        }
      ],
      "stateMutability": "view",
      "type": "function"
    },
    {
      "inputs": [],
      "name": "joinGame",
      "outputs": [],
      "stateMutability": "payable",
      "type": "function"
    },
    {
      "inputs": [],
      "name": "lock",
      "outputs": [],
      "stateMutability": "nonpayable",
      "type": "function"
    },
    {
      "inputs": [],
      "name": "locked",
      "outputs": [
        {
          "internalType": "bool",
          "name": "",
          "type": "bool"
        }
      ],
      "stateMutability": "view",
      "type": "function"
    },
    {
      "inputs": [],
      "name": "player1",
      "outputs": [
        {
          "internalType": "address payable",
          "name": "",
          "type": "address"
        }
      ],
      "stateMutability": "view",
      "type": "function"
    },
    {
      "inputs": [],
      "name": "player2",
      "outputs": [
        {
          "internalType": "address payable",
          "name": "",
          "type": "address"
        }
      ],
      "stateMutability": "view",
      "type": "function"
    },
    {
      "inputs": [],
      "name": "started",
      "outputs": [
        {
          "internalType": "bool",
          "name": "",
          "type": "bool"
        }
      ],
      "stateMutability": "view",
      "type": "function"
    },
    {
      "inputs": [],
      "name": "unlock",
      "outputs": [],
      "stateMutability": "nonpayable",
      "type": "function"
    },
    {
      "inputs": [],
      "name": "winner",
      "outputs": [
        {
          "internalType": "address",
          "name": "",
          "type": "address"
        }
      ],
      "stateMutability": "view",
      "type": "function"
    },
    {
      "stateMutability": "payable",
      "type": "receive"
    }
  ],
  "bytecode": "0x60806040526040516200231b3803806200231b833981810160405281019062000029919062000223565b600073ffffffffffffffffffffffffffffffffffffffff168373ffffffffffffffffffffffffffffffffffffffff16036200009b576040517f08c379a0000000000000000000000000000000000000000000000000000000008152600401620000929062000306565b60405180910390fd5b60008211620000e1576040517f08c379a0000000000000000000000000000000000000000000000000000000008152600401620000d8906200039e565b60405180910390fd5b6064811062000127576040517f08c379a00000000000000000000000000000000000000000000000000000000081526004016200011e9062000436565b60405180910390fd5b826000806101000a81548173ffffffffffffffffffffffffffffffffffffffff021916908373ffffffffffffffffffffffffffffffffffffffff160217905550816003819055508060048190555050505062000458565b600080fd5b600073ffffffffffffffffffffffffffffffffffffffff82169050919050565b6000620001b08262000183565b9050919050565b620001c281620001a3565b8114620001ce57600080fd5b50565b600081519050620001e281620001b7565b92915050565b6000819050919050565b620001fd81620001e8565b81146200020957600080fd5b50565b6000815190506200021d81620001f2565b92915050565b6000806000606084860312156200023f576200023e6200017e565b5b60006200024f86828701620001d1565b935050602062000262868287016200020c565b925050604062000275868287016200020c565b9150509250925092565b600082825260208201905092915050565b7f43726561746f7220616464726573732063616e6e6f74206265207a65726f206160008201527f6464726573730000000000000000000000000000000000000000000000000000602082015250565b6000620002ee6026836200027f565b9150620002fb8262000290565b604082019050919050565b600060208201905081810360008301526200032181620002df565b9050919050565b7f456e74727920666565206d7573742062652067726561746572207468616e207a60008201527f65726f2e00000000000000000000000000000000000000000000000000000000602082015250565b6000620003866024836200027f565b9150620003938262000328565b604082019050919050565b60006020820190508181036000830152620003b98162000377565b9050919050565b7f436f6d6d697373696f6e206d757374206265206c657373207468616e2031303060008201527f2e00000000000000000000000000000000000000000000000000000000000000602082015250565b60006200041e6021836200027f565b91506200042b82620003c0565b604082019050919050565b6000602082019050818103600083015262000451816200040f565b9050919050565b611eb380620004686000396000f3fe6080604052600436106101025760003560e01c8063cf30901211610095578063dfbf53ae11610064578063dfbf53ae146103d2578063e1489191146103fd578063e586a4f014610428578063e9652a1914610453578063f83d08ba1461047c57610200565b8063cf3090121461035b578063d30895e414610386578063d4f77b1c146103b1578063d84c1ac9146103bb57610200565b8063877f4e12116100d1578063877f4e12146102b1578063893d20e8146102ee578063a69df4b514610319578063bef4876b1461033057610200565b806302d05d3f14610205578063072ea61c146102305780631f2698ab1461025b57806359a5f12d1461028657610200565b3661020057600560009054906101000a900460ff161580156101315750600560019054906101000a900460ff16155b610170576040517f08c379a0000000000000000000000000000000000000000000000000000000008152600401610167906115f8565b60405180910390fd5b60008054906101000a900473ffffffffffffffffffffffffffffffffffffffff1673ffffffffffffffffffffffffffffffffffffffff163373ffffffffffffffffffffffffffffffffffffffff16146101fe576040517f08c379a00000000000000000000000000000000000000000000000000000000081526004016101f59061168a565b60405180910390fd5b005b600080fd5b34801561021157600080fd5b5061021a610493565b60405161022791906116eb565b60405180910390f35b34801561023c57600080fd5b506102456104b7565b604051610252919061171f565b60405180910390f35b34801561026757600080fd5b506102706104bd565b60405161027d9190611755565b60405180910390f35b34801561029257600080fd5b5061029b6104d0565b6040516102a891906116eb565b60405180910390f35b3480156102bd57600080fd5b506102d860048036038101906102d391906117b3565b6104f6565b6040516102e59190611755565b60405180910390f35b3480156102fa57600080fd5b50610303610516565b60405161031091906117ef565b60405180910390f35b34801561032557600080fd5b5061032e61053f565b005b34801561033c57600080fd5b50610345610616565b6040516103529190611755565b60405180910390f35b34801561036757600080fd5b50610370610629565b60405161037d9190611755565b60405180910390f35b34801561039257600080fd5b5061039b61063c565b6040516103a891906116eb565b60405180910390f35b6103b9610662565b005b3480156103c757600080fd5b506103d0610c19565b005b3480156103de57600080fd5b506103e7610e73565b6040516103f491906117ef565b60405180910390f35b34801561040957600080fd5b50610412610e99565b60405161041f919061171f565b60405180910390f35b34801561043457600080fd5b5061043d610e9f565b60405161044a919061171f565b60405180910390f35b34801561045f57600080fd5b5061047a600480360381019061047591906117b3565b610ea9565b005b34801561048857600080fd5b50610491611318565b005b60008054906101000a900473ffffffffffffffffffffffffffffffffffffffff1681565b60035481565b600560009054906101000a900460ff1681565b600260009054906101000a900473ffffffffffffffffffffffffffffffffffffffff1681565b60066020528060005260406000206000915054906101000a900460ff1681565b60008060009054906101000a900473ffffffffffffffffffffffffffffffffffffffff16905090565b60008054906101000a900473ffffffffffffffffffffffffffffffffffffffff1673ffffffffffffffffffffffffffffffffffffffff163373ffffffffffffffffffffffffffffffffffffffff16146105cd576040517f08c379a00000000000000000000000000000000000000000000000000000000081526004016105c49061187c565b60405180910390fd5b6000600560026101000a81548160ff0219169083151502179055507f19aad37188a1d3921e29eb3c66acf43d81975e107cb650d58cca878627955fd660405160405180910390a1565b600560019054906101000a900460ff1681565b600560029054906101000a900460ff1681565b600160009054906101000a900473ffffffffffffffffffffffffffffffffffffffff1681565b600560009054906101000a900460ff1615801561068c5750600560019054906101000a900460ff16155b6106cb576040517f08c379a00000000000000000000000000000000000000000000000000000000081526004016106c2906115f8565b60405180910390fd5b600560029054906101000a900460ff161561071b576040517f08c379a0000000000000000000000000000000000000000000000000000000008152600401610712906118e8565b60405180910390fd5b600354341461075f576040517f08c379a000000000000000000000000000000000000000000000000000000000815260040161075690611954565b60405180910390fd5b600660003373ffffffffffffffffffffffffffffffffffffffff1673ffffffffffffffffffffffffffffffffffffffff16815260200190815260200160002060009054906101000a900460ff16156107ec576040517f08c379a00000000000000000000000000000000000000000000000000000000081526004016107e3906119e6565b60405180910390fd5b600073ffffffffffffffffffffffffffffffffffffffff16600160009054906101000a900473ffffffffffffffffffffffffffffffffffffffff1673ffffffffffffffffffffffffffffffffffffffff160361093d5733600160006101000a81548173ffffffffffffffffffffffffffffffffffffffff021916908373ffffffffffffffffffffffffffffffffffffffff1602179055506001600660003373ffffffffffffffffffffffffffffffffffffffff1673ffffffffffffffffffffffffffffffffffffffff16815260200190815260200160002060006101000a81548160ff0219169083151502179055507fc7f886847371dba98b78e0d0d59e29f4abfaf6e953d6897a761992cb2627e687600160009054906101000a900473ffffffffffffffffffffffffffffffffffffffff16600354604051610930929190611a65565b60405180910390a1610ac5565b600073ffffffffffffffffffffffffffffffffffffffff16600260009054906101000a900473ffffffffffffffffffffffffffffffffffffffff1673ffffffffffffffffffffffffffffffffffffffff16146109ce576040517f08c379a00000000000000000000000000000000000000000000000000000000081526004016109c590611ada565b60405180910390fd5b33600260006101000a81548173ffffffffffffffffffffffffffffffffffffffff021916908373ffffffffffffffffffffffffffffffffffffffff1602179055506001600660003373ffffffffffffffffffffffffffffffffffffffff1673ffffffffffffffffffffffffffffffffffffffff16815260200190815260200160002060006101000a81548160ff0219169083151502179055507fc7f886847371dba98b78e0d0d59e29f4abfaf6e953d6897a761992cb2627e687600260009054906101000a900473ffffffffffffffffffffffffffffffffffffffff16600354604051610abc929190611a65565b60405180910390a15b600073ffffffffffffffffffffffffffffffffffffffff16600160009054906101000a900473ffffffffffffffffffffffffffffffffffffffff1673ffffffffffffffffffffffffffffffffffffffff1614158015610b735750600073ffffffffffffffffffffffffffffffffffffffff16600260009054906101000a900473ffffffffffffffffffffffffffffffffffffffff1673ffffffffffffffffffffffffffffffffffffffff1614155b15610c17576001600560006101000a81548160ff0219169083151502179055507fca38ccd7f8642f05ed7adc3fbb334274260499cc3ed4dab50f9c182f7b63a1ee600160009054906101000a900473ffffffffffffffffffffffffffffffffffffffff16600260009054906101000a900473ffffffffffffffffffffffffffffffffffffffff1660035447604051610c0e9493929190611afa565b60405180910390a15b565b60008054906101000a900473ffffffffffffffffffffffffffffffffffffffff1673ffffffffffffffffffffffffffffffffffffffff163373ffffffffffffffffffffffffffffffffffffffff1614610ca7576040517f08c379a0000000000000000000000000000000000000000000000000000000008152600401610c9e9061187c565b60405180910390fd5b600560009054906101000a900460ff16158015610cd15750600560019054906101000a900460ff16155b610d10576040517f08c379a0000000000000000000000000000000000000000000000000000000008152600401610d07906115f8565b60405180910390fd5b600560029054906101000a900460ff1615610d60576040517f08c379a0000000000000000000000000000000000000000000000000000000008152600401610d57906118e8565b60405180910390fd5b600073ffffffffffffffffffffffffffffffffffffffff16600160009054906101000a900473ffffffffffffffffffffffffffffffffffffffff1673ffffffffffffffffffffffffffffffffffffffff1614610de557610de4600160009054906101000a900473ffffffffffffffffffffffffffffffffffffffff166003546113ef565b5b6000471115610e1957610e1860008054906101000a900473ffffffffffffffffffffffffffffffffffffffff16476113ef565b5b6001600560016101000a81548160ff0219169083151502179055507f78a60e74fb8763e847bf469d5a723591e763dc72c2bb6a63e0fb5e6b697a311f6000806000604051610e6993929190611b7a565b60405180910390a1565b600560039054906101000a900473ffffffffffffffffffffffffffffffffffffffff1681565b60045481565b6000600354905090565b60008054906101000a900473ffffffffffffffffffffffffffffffffffffffff1673ffffffffffffffffffffffffffffffffffffffff163373ffffffffffffffffffffffffffffffffffffffff1614610f37576040517f08c379a0000000000000000000000000000000000000000000000000000000008152600401610f2e9061187c565b60405180910390fd5b600560009054906101000a900460ff168015610f605750600560019054906101000a900460ff16155b610f9f576040517f08c379a0000000000000000000000000000000000000000000000000000000008152600401610f9690611c23565b60405180910390fd5b600560029054906101000a900460ff1615610fef576040517f08c379a0000000000000000000000000000000000000000000000000000000008152600401610fe6906118e8565b60405180910390fd5b80600560036101000a81548173ffffffffffffffffffffffffffffffffffffffff021916908373ffffffffffffffffffffffffffffffffffffffff1602179055506001600560016101000a81548160ff021916908315150217905550600073ffffffffffffffffffffffffffffffffffffffff168173ffffffffffffffffffffffffffffffffffffffff160361111d576110ad600160009054906101000a900473ffffffffffffffffffffffffffffffffffffffff166003546113ef565b6110db600260009054906101000a900473ffffffffffffffffffffffffffffffffffffffff166003546113ef565b7f78a60e74fb8763e847bf469d5a723591e763dc72c2bb6a63e0fb5e6b697a311f600080600060405161111093929190611b7a565b60405180910390a1611315565b600047905060006064600454836111349190611c72565b61113e9190611ce3565b90506000818361114e9190611d14565b9050600160009054906101000a900473ffffffffffffffffffffffffffffffffffffffff1673ffffffffffffffffffffffffffffffffffffffff168473ffffffffffffffffffffffffffffffffffffffff160361125d576111d1600160009054906101000a900473ffffffffffffffffffffffffffffffffffffffff16826113ef565b6111fb60008054906101000a900473ffffffffffffffffffffffffffffffffffffffff16836113ef565b7f78a60e74fb8763e847bf469d5a723591e763dc72c2bb6a63e0fb5e6b697a311f600160009054906101000a900473ffffffffffffffffffffffffffffffffffffffff16828460405161125093929190611d48565b60405180910390a1611311565b611289600260009054906101000a900473ffffffffffffffffffffffffffffffffffffffff16826113ef565b6112b360008054906101000a900473ffffffffffffffffffffffffffffffffffffffff16836113ef565b7f78a60e74fb8763e847bf469d5a723591e763dc72c2bb6a63e0fb5e6b697a311f600260009054906101000a900473ffffffffffffffffffffffffffffffffffffffff16828460405161130893929190611d48565b60405180910390a15b5050505b50565b60008054906101000a900473ffffffffffffffffffffffffffffffffffffffff1673ffffffffffffffffffffffffffffffffffffffff163373ffffffffffffffffffffffffffffffffffffffff16146113a6576040517f08c379a000000000000000000000000000000000000000000000000000000000815260040161139d9061187c565b60405180910390fd5b6001600560026101000a81548160ff0219169083151502179055507f0f2e5b6c72c6a4491efd919a9f9a409f324ef0708c11ee57d410c2cb06c0992b60405160405180910390a1565b600560029054906101000a900460ff161561143f576040517f08c379a0000000000000000000000000000000000000000000000000000000008152600401611436906118e8565b60405180910390fd5b600073ffffffffffffffffffffffffffffffffffffffff168273ffffffffffffffffffffffffffffffffffffffff16036114ae576040517f08c379a00000000000000000000000000000000000000000000000000000000081526004016114a590611dcb565b60405180910390fd5b600081116114f1576040517f08c379a00000000000000000000000000000000000000000000000000000000081526004016114e890611e5d565b60405180910390fd5b8173ffffffffffffffffffffffffffffffffffffffff166108fc829081150290604051600060405180830381858888f19350505050158015611537573d6000803e3d6000fd5b507f8c9a4f13b67cb64d7c6aa1ae0c9bf07694af521a28b93e7060020810ab4bc59f8282604051611569929190611a65565b60405180910390a15050565b600082825260208201905092915050565b7f47616d6520616c72656164792073746172746564206f722066696e697368656460008201527f2e00000000000000000000000000000000000000000000000000000000000000602082015250565b60006115e2602183611575565b91506115ed82611586565b604082019050919050565b60006020820190508181036000830152611611816115d5565b9050919050565b7f4f6e6c792063726561746f722063616e2073656e6420696e697469616c20667560008201527f6e64732e00000000000000000000000000000000000000000000000000000000602082015250565b6000611674602483611575565b915061167f82611618565b604082019050919050565b600060208201905081810360008301526116a381611667565b9050919050565b600073ffffffffffffffffffffffffffffffffffffffff82169050919050565b60006116d5826116aa565b9050919050565b6116e5816116ca565b82525050565b600060208201905061170060008301846116dc565b92915050565b6000819050919050565b61171981611706565b82525050565b60006020820190506117346000830184611710565b92915050565b60008115159050919050565b61174f8161173a565b82525050565b600060208201905061176a6000830184611746565b92915050565b600080fd5b6000611780826116aa565b9050919050565b61179081611775565b811461179b57600080fd5b50565b6000813590506117ad81611787565b92915050565b6000602082840312156117c9576117c8611770565b5b60006117d78482850161179e565b91505092915050565b6117e981611775565b82525050565b600060208201905061180460008301846117e0565b92915050565b7f4f6e6c792063726561746f722063616e2063616c6c20746869732066756e637460008201527f696f6e2e00000000000000000000000000000000000000000000000000000000602082015250565b6000611866602483611575565b91506118718261180a565b604082019050919050565b6000602082019050818103600083015261189581611859565b9050919050565b7f436f6e7472616374206973206c6f636b65642e00000000000000000000000000600082015250565b60006118d2601383611575565b91506118dd8261189c565b602082019050919050565b60006020820190508181036000830152611901816118c5565b9050919050565b7f496e636f727265637420656e7472792066656500000000000000000000000000600082015250565b600061193e601383611575565b915061194982611908565b602082019050919050565b6000602082019050818103600083015261196d81611931565b9050919050565b7f596f75206861766520616c7265616479206a6f696e6564207468652067616d6560008201527f2e00000000000000000000000000000000000000000000000000000000000000602082015250565b60006119d0602183611575565b91506119db82611974565b604082019050919050565b600060208201905081810360008301526119ff816119c3565b9050919050565b6000819050919050565b6000611a2b611a26611a21846116aa565b611a06565b6116aa565b9050919050565b6000611a3d82611a10565b9050919050565b6000611a4f82611a32565b9050919050565b611a5f81611a44565b82525050565b6000604082019050611a7a6000830185611a56565b611a876020830184611710565b9392505050565b7f47616d6520697320616c72656164792066756c6c2e0000000000000000000000600082015250565b6000611ac4601583611575565b9150611acf82611a8e565b602082019050919050565b60006020820190508181036000830152611af381611ab7565b9050919050565b6000608082019050611b0f6000830187611a56565b611b1c6020830186611a56565b611b296040830185611710565b611b366060830184611710565b95945050505050565b6000819050919050565b6000611b64611b5f611b5a84611b3f565b611a06565b611706565b9050919050565b611b7481611b49565b82525050565b6000606082019050611b8f60008301866117e0565b611b9c6020830185611b6b565b611ba96040830184611b6b565b949350505050565b7f47616d65206e6f742073746172746564206f7220616c72656164792066696e6960008201527f736865642e000000000000000000000000000000000000000000000000000000602082015250565b6000611c0d602583611575565b9150611c1882611bb1565b604082019050919050565b60006020820190508181036000830152611c3c81611c00565b9050919050565b7f4e487b7100000000000000000000000000000000000000000000000000000000600052601160045260246000fd5b6000611c7d82611706565b9150611c8883611706565b9250828202611c9681611706565b91508282048414831517611cad57611cac611c43565b5b5092915050565b7f4e487b7100000000000000000000000000000000000000000000000000000000600052601260045260246000fd5b6000611cee82611706565b9150611cf983611706565b925082611d0957611d08611cb4565b5b828204905092915050565b6000611d1f82611706565b9150611d2a83611706565b9250828203905081811115611d4257611d41611c43565b5b92915050565b6000606082019050611d5d6000830186611a56565b611d6a6020830185611710565b611d776040830184611710565b949350505050565b7f496e76616c696420726563697069656e7420616464726573732e000000000000600082015250565b6000611db5601a83611575565b9150611dc082611d7f565b602082019050919050565b60006020820190508181036000830152611de481611da8565b9050919050565b7f416d6f756e74206d7573742062652067726561746572207468616e207a65726f60008201527f2e00000000000000000000000000000000000000000000000000000000000000602082015250565b6000611e47602183611575565b9150611e5282611deb565b604082019050919050565b60006020820190508181036000830152611e7681611e3a565b905091905056fea264697066735822122004f79530ec2acbb1c3befe6ed6aa96fcf945ca8e51d121cbab02c05cd10d39fb64736f6c63430008180033",
  "linkReferences": {},
  "deployedLinkReferences": {}
}