{
  "_format": "hh-sol-artifact-1",
  "contractName": "Chess",
  "sourceName": "contracts/Chess.sol",
  "abi": [
    {
      "inputs": [
        {
          "internalType": "address payable",
          "name": "_creator",
          "type": "address"
        },
        {
          "internalType": "uint256",
          "name": "_entryFee",
          "type": "uint256"
        },
        {
          "internalType": "uint256",
          "name": "_commission",
          "type": "uint256"
        }
      ],
      "stateMutability": "payable",
      "type": "constructor"
    },
    {
      "anonymous": false,
      "inputs": [
        {
          "indexed": false,
          "internalType": "address",
          "name": "winner",
          "type": "address"
        },
        {
          "indexed": false,
          "internalType": "uint256",
          "name": "amount",
          "type": "uint256"
        }
      ],
      "name": "GameFinished",
      "type": "event"
    },
    {
      "anonymous": false,
      "inputs": [
        {
          "indexed": false,
          "internalType": "address",
          "name": "player1",
          "type": "address"
        },
        {
          "indexed": false,
          "internalType": "address",
          "name": "player2",
          "type": "address"
        },
        {
          "indexed": false,
          "internalType": "uint256",
          "name": "entryFee",
          "type": "uint256"
        }
      ],
      "name": "GamePrimed",
      "type": "event"
    },
    {
      "inputs": [],
      "name": "cancelGame",
      "outputs": [],
      "stateMutability": "nonpayable",
      "type": "function"
    },
    {
      "inputs": [],
      "name": "commission",
      "outputs": [
        {
          "internalType": "uint256",
          "name": "",
          "type": "uint256"
        }
      ],
      "stateMutability": "view",
      "type": "function"
    },
    {
      "inputs": [],
      "name": "creator",
      "outputs": [
        {
          "internalType": "address payable",
          "name": "",
          "type": "address"
        }
      ],
      "stateMutability": "view",
      "type": "function"
    },
    {
      "inputs": [],
      "name": "entryFee",
      "outputs": [
        {
          "internalType": "uint256",
          "name": "",
          "type": "uint256"
        }
      ],
      "stateMutability": "view",
      "type": "function"
    },
    {
      "inputs": [
        {
          "internalType": "address",
          "name": "_winner",
          "type": "address"
        }
      ],
      "name": "finishGame",
      "outputs": [],
      "stateMutability": "nonpayable",
      "type": "function"
    },
    {
      "inputs": [],
      "name": "finished",
      "outputs": [
        {
          "internalType": "bool",
          "name": "",
          "type": "bool"
        }
      ],
      "stateMutability": "view",
      "type": "function"
    },
    {
      "inputs": [],
      "name": "getEntryFee",
      "outputs": [
        {
          "internalType": "uint256",
          "name": "",
          "type": "uint256"
        }
      ],
      "stateMutability": "view",
      "type": "function"
    },
    {
      "inputs": [],
      "name": "getOwner",
      "outputs": [
        {
          "internalType": "address",
          "name": "",
          "type": "address"
        }
      ],
      "stateMutability": "view",
      "type": "function"
    },
    {
      "inputs": [
        {
          "internalType": "address",
          "name": "",
          "type": "address"
        }
      ],
      "name": "hasJoined",
      "outputs": [
        {
          "internalType": "bool",
          "name": "",
          "type": "bool"
        }
      ],
      "stateMutability": "view",
      "type": "function"
    },
    {
      "inputs": [],
      "name": "joinGame",
      "outputs": [],
      "stateMutability": "payable",
      "type": "function"
    },
    {
      "inputs": [],
      "name": "player1",
      "outputs": [
        {
          "internalType": "address payable",
          "name": "",
          "type": "address"
        }
      ],
      "stateMutability": "view",
      "type": "function"
    },
    {
      "inputs": [],
      "name": "player2",
      "outputs": [
        {
          "internalType": "address payable",
          "name": "",
          "type": "address"
        }
      ],
      "stateMutability": "view",
      "type": "function"
    },
    {
      "inputs": [],
      "name": "started",
      "outputs": [
        {
          "internalType": "bool",
          "name": "",
          "type": "bool"
        }
      ],
      "stateMutability": "view",
      "type": "function"
    },
    {
      "inputs": [],
      "name": "winner",
      "outputs": [
        {
          "internalType": "address",
          "name": "",
          "type": "address"
        }
      ],
      "stateMutability": "view",
      "type": "function"
    },
    {
      "stateMutability": "payable",
      "type": "receive"
    }
  ],
  "bytecode": "0x608060405260405162001e6838038062001e68833981810160405281019062000029919062000223565b600073ffffffffffffffffffffffffffffffffffffffff168373ffffffffffffffffffffffffffffffffffffffff16036200009b576040517f08c379a0000000000000000000000000000000000000000000000000000000008152600401620000929062000306565b60405180910390fd5b60008211620000e1576040517f08c379a0000000000000000000000000000000000000000000000000000000008152600401620000d8906200039e565b60405180910390fd5b6064811062000127576040517f08c379a00000000000000000000000000000000000000000000000000000000081526004016200011e9062000436565b60405180910390fd5b826000806101000a81548173ffffffffffffffffffffffffffffffffffffffff021916908373ffffffffffffffffffffffffffffffffffffffff160217905550816003819055508060048190555050505062000458565b600080fd5b600073ffffffffffffffffffffffffffffffffffffffff82169050919050565b6000620001b08262000183565b9050919050565b620001c281620001a3565b8114620001ce57600080fd5b50565b600081519050620001e281620001b7565b92915050565b6000819050919050565b620001fd81620001e8565b81146200020957600080fd5b50565b6000815190506200021d81620001f2565b92915050565b6000806000606084860312156200023f576200023e6200017e565b5b60006200024f86828701620001d1565b935050602062000262868287016200020c565b925050604062000275868287016200020c565b9150509250925092565b600082825260208201905092915050565b7f43726561746f7220616464726573732063616e6e6f74206265207a65726f206160008201527f6464726573730000000000000000000000000000000000000000000000000000602082015250565b6000620002ee6026836200027f565b9150620002fb8262000290565b604082019050919050565b600060208201905081810360008301526200032181620002df565b9050919050565b7f456e74727920666565206d7573742062652067726561746572207468616e207a60008201527f65726f2e00000000000000000000000000000000000000000000000000000000602082015250565b6000620003866024836200027f565b9150620003938262000328565b604082019050919050565b60006020820190508181036000830152620003b98162000377565b9050919050565b7f436f6d6d697373696f6e206d757374206265206c657373207468616e2031303060008201527f2e00000000000000000000000000000000000000000000000000000000000000602082015250565b60006200041e6021836200027f565b91506200042b82620003c0565b604082019050919050565b6000602082019050818103600083015262000451816200040f565b9050919050565b611a0080620004686000396000f3fe6080604052600436106100e15760003560e01c8063d30895e41161007f578063dfbf53ae11610059578063dfbf53ae1461036f578063e14891911461039a578063e586a4f0146103c5578063e9652a19146103f0576101df565b8063d30895e414610323578063d4f77b1c1461034e578063d84c1ac914610358576101df565b806359a5f12d116100bb57806359a5f12d14610265578063877f4e1214610290578063893d20e8146102cd578063bef4876b146102f8576101df565b806302d05d3f146101e4578063072ea61c1461020f5780631f2698ab1461023a576101df565b366101df57600560009054906101000a900460ff161580156101105750600560019054906101000a900460ff16155b61014f576040517f08c379a000000000000000000000000000000000000000000000000000000000815260040161014690611103565b60405180910390fd5b60008054906101000a900473ffffffffffffffffffffffffffffffffffffffff1673ffffffffffffffffffffffffffffffffffffffff163373ffffffffffffffffffffffffffffffffffffffff16146101dd576040517f08c379a00000000000000000000000000000000000000000000000000000000081526004016101d490611195565b60405180910390fd5b005b600080fd5b3480156101f057600080fd5b506101f9610419565b60405161020691906111f6565b60405180910390f35b34801561021b57600080fd5b5061022461043d565b604051610231919061122a565b60405180910390f35b34801561024657600080fd5b5061024f610443565b60405161025c9190611260565b60405180910390f35b34801561027157600080fd5b5061027a610456565b60405161028791906111f6565b60405180910390f35b34801561029c57600080fd5b506102b760048036038101906102b291906112be565b61047c565b6040516102c49190611260565b60405180910390f35b3480156102d957600080fd5b506102e261049c565b6040516102ef91906112fa565b60405180910390f35b34801561030457600080fd5b5061030d6104c5565b60405161031a9190611260565b60405180910390f35b34801561032f57600080fd5b506103386104d8565b60405161034591906111f6565b60405180910390f35b6103566104fe565b005b34801561036457600080fd5b5061036d6109ce565b005b34801561037b57600080fd5b50610384610bec565b60405161039191906112fa565b60405180910390f35b3480156103a657600080fd5b506103af610c12565b6040516103bc919061122a565b60405180910390f35b3480156103d157600080fd5b506103da610c18565b6040516103e7919061122a565b60405180910390f35b3480156103fc57600080fd5b50610417600480360381019061041291906112be565b610c22565b005b60008054906101000a900473ffffffffffffffffffffffffffffffffffffffff1681565b60035481565b600560009054906101000a900460ff1681565b600260009054906101000a900473ffffffffffffffffffffffffffffffffffffffff1681565b60066020528060005260406000206000915054906101000a900460ff1681565b60008060009054906101000a900473ffffffffffffffffffffffffffffffffffffffff16905090565b600560019054906101000a900460ff1681565b600160009054906101000a900473ffffffffffffffffffffffffffffffffffffffff1681565b600560009054906101000a900460ff161580156105285750600560019054906101000a900460ff16155b610567576040517f08c379a000000000000000000000000000000000000000000000000000000000815260040161055e90611103565b60405180910390fd5b600354341460035460405160200161057f919061138d565b604051602081830303815290604052906105cf576040517f08c379a00000000000000000000000000000000000000000000000000000000081526004016105c69190611432565b60405180910390fd5b50600660003373ffffffffffffffffffffffffffffffffffffffff1673ffffffffffffffffffffffffffffffffffffffff16815260200190815260200160002060009054906101000a900460ff161561065d576040517f08c379a0000000000000000000000000000000000000000000000000000000008152600401610654906114c6565b60405180910390fd5b600073ffffffffffffffffffffffffffffffffffffffff16600160009054906101000a900473ffffffffffffffffffffffffffffffffffffffff1673ffffffffffffffffffffffffffffffffffffffff16036107515733600160006101000a81548173ffffffffffffffffffffffffffffffffffffffff021916908373ffffffffffffffffffffffffffffffffffffffff1602179055506001600660003373ffffffffffffffffffffffffffffffffffffffff1673ffffffffffffffffffffffffffffffffffffffff16815260200190815260200160002060006101000a81548160ff02191690831515021790555061087c565b600073ffffffffffffffffffffffffffffffffffffffff16600260009054906101000a900473ffffffffffffffffffffffffffffffffffffffff1673ffffffffffffffffffffffffffffffffffffffff16146107e2576040517f08c379a00000000000000000000000000000000000000000000000000000000081526004016107d990611532565b60405180910390fd5b33600260006101000a81548173ffffffffffffffffffffffffffffffffffffffff021916908373ffffffffffffffffffffffffffffffffffffffff1602179055506001600660003373ffffffffffffffffffffffffffffffffffffffff1673ffffffffffffffffffffffffffffffffffffffff16815260200190815260200160002060006101000a81548160ff0219169083151502179055505b600073ffffffffffffffffffffffffffffffffffffffff16600160009054906101000a900473ffffffffffffffffffffffffffffffffffffffff1673ffffffffffffffffffffffffffffffffffffffff161415801561092a5750600073ffffffffffffffffffffffffffffffffffffffff16600260009054906101000a900473ffffffffffffffffffffffffffffffffffffffff1673ffffffffffffffffffffffffffffffffffffffff1614155b156109cc576001600560006101000a81548160ff0219169083151502179055507f89fa9c4e385bdcb6e765e7156075926c8660c57d15923201c5cf4de0ab23d5ec600160009054906101000a900473ffffffffffffffffffffffffffffffffffffffff16600260009054906101000a900473ffffffffffffffffffffffffffffffffffffffff166003546040516109c3939291906115b1565b60405180910390a15b565b60008054906101000a900473ffffffffffffffffffffffffffffffffffffffff1673ffffffffffffffffffffffffffffffffffffffff163373ffffffffffffffffffffffffffffffffffffffff1614610a5c576040517f08c379a0000000000000000000000000000000000000000000000000000000008152600401610a539061165a565b60405180910390fd5b600560009054906101000a900460ff16158015610a865750600560019054906101000a900460ff16155b610ac5576040517f08c379a0000000000000000000000000000000000000000000000000000000008152600401610abc90611103565b60405180910390fd5b600073ffffffffffffffffffffffffffffffffffffffff16600160009054906101000a900473ffffffffffffffffffffffffffffffffffffffff1673ffffffffffffffffffffffffffffffffffffffff1614610b4a57610b49600160009054906101000a900473ffffffffffffffffffffffffffffffffffffffff16600354610f83565b5b600073ffffffffffffffffffffffffffffffffffffffff16600260009054906101000a900473ffffffffffffffffffffffffffffffffffffffff1673ffffffffffffffffffffffffffffffffffffffff1614610bcf57610bce600260009054906101000a900473ffffffffffffffffffffffffffffffffffffffff16600354610f83565b5b6001600560016101000a81548160ff021916908315150217905550565b600560029054906101000a900473ffffffffffffffffffffffffffffffffffffffff1681565b60045481565b6000600354905090565b60008054906101000a900473ffffffffffffffffffffffffffffffffffffffff1673ffffffffffffffffffffffffffffffffffffffff163373ffffffffffffffffffffffffffffffffffffffff1614610cb0576040517f08c379a0000000000000000000000000000000000000000000000000000000008152600401610ca7906116ec565b60405180910390fd5b600560009054906101000a900460ff168015610cd95750600560019054906101000a900460ff16155b610d18576040517f08c379a0000000000000000000000000000000000000000000000000000000008152600401610d0f9061177e565b60405180910390fd5b80600560026101000a81548173ffffffffffffffffffffffffffffffffffffffff021916908373ffffffffffffffffffffffffffffffffffffffff1602179055506001600560016101000a81548160ff021916908315150217905550600073ffffffffffffffffffffffffffffffffffffffff168173ffffffffffffffffffffffffffffffffffffffff1603610e0957610dd6600160009054906101000a900473ffffffffffffffffffffffffffffffffffffffff16600354610f83565b610e04600260009054906101000a900473ffffffffffffffffffffffffffffffffffffffff16600354610f83565b610f80565b60004790506000606460045483610e2091906117cd565b610e2a919061183e565b905060008183610e3a919061186f565b9050600160009054906101000a900473ffffffffffffffffffffffffffffffffffffffff1673ffffffffffffffffffffffffffffffffffffffff168473ffffffffffffffffffffffffffffffffffffffff1603610eec57610ebd600160009054906101000a900473ffffffffffffffffffffffffffffffffffffffff1682610f83565b610ee760008054906101000a900473ffffffffffffffffffffffffffffffffffffffff1683610f83565b610f43565b610f18600260009054906101000a900473ffffffffffffffffffffffffffffffffffffffff1682610f83565b610f4260008054906101000a900473ffffffffffffffffffffffffffffffffffffffff1683610f83565b5b7f27223f8d1d659564536abdf661d810b8a16ca4f6c69034f2a73b74b0853d98298482604051610f749291906118a3565b60405180910390a15050505b50565b600073ffffffffffffffffffffffffffffffffffffffff168273ffffffffffffffffffffffffffffffffffffffff1603610ff2576040517f08c379a0000000000000000000000000000000000000000000000000000000008152600401610fe990611918565b60405180910390fd5b60008111611035576040517f08c379a000000000000000000000000000000000000000000000000000000000815260040161102c906119aa565b60405180910390fd5b8173ffffffffffffffffffffffffffffffffffffffff166108fc829081150290604051600060405180830381858888f1935050505015801561107b573d6000803e3d6000fd5b505050565b600082825260208201905092915050565b7f47616d6520616c72656164792073746172746564206f722066696e697368656460008201527f2e00000000000000000000000000000000000000000000000000000000000000602082015250565b60006110ed602183611080565b91506110f882611091565b604082019050919050565b6000602082019050818103600083015261111c816110e0565b9050919050565b7f4f6e6c792063726561746f722063616e2073656e6420696e697469616c20667560008201527f6e64732e00000000000000000000000000000000000000000000000000000000602082015250565b600061117f602483611080565b915061118a82611123565b604082019050919050565b600060208201905081810360008301526111ae81611172565b9050919050565b600073ffffffffffffffffffffffffffffffffffffffff82169050919050565b60006111e0826111b5565b9050919050565b6111f0816111d5565b82525050565b600060208201905061120b60008301846111e7565b92915050565b6000819050919050565b61122481611211565b82525050565b600060208201905061123f600083018461121b565b92915050565b60008115159050919050565b61125a81611245565b82525050565b60006020820190506112756000830184611251565b92915050565b600080fd5b600061128b826111b5565b9050919050565b61129b81611280565b81146112a657600080fd5b50565b6000813590506112b881611292565b92915050565b6000602082840312156112d4576112d361127b565b5b60006112e2848285016112a9565b91505092915050565b6112f481611280565b82525050565b600060208201905061130f60008301846112eb565b92915050565b600081905092915050565b7f496e636f727265637420656e747279206665652e2045787065637465643a2000600082015250565b6000611356601f83611315565b915061136182611320565b601f82019050919050565b6000819050919050565b61138761138282611211565b61136c565b82525050565b600061139882611349565b91506113a48284611376565b60208201915081905092915050565b600081519050919050565b60005b838110156113dc5780820151818401526020810190506113c1565b60008484015250505050565b6000601f19601f8301169050919050565b6000611404826113b3565b61140e8185611080565b935061141e8185602086016113be565b611427816113e8565b840191505092915050565b6000602082019050818103600083015261144c81846113f9565b905092915050565b7f596f75206861766520616c7265616479206a6f696e6564207468652067616d6560008201527f2e00000000000000000000000000000000000000000000000000000000000000602082015250565b60006114b0602183611080565b91506114bb82611454565b604082019050919050565b600060208201905081810360008301526114df816114a3565b9050919050565b7f47616d6520697320616c72656164792066756c6c2e0000000000000000000000600082015250565b600061151c601583611080565b9150611527826114e6565b602082019050919050565b6000602082019050818103600083015261154b8161150f565b9050919050565b6000819050919050565b600061157761157261156d846111b5565b611552565b6111b5565b9050919050565b60006115898261155c565b9050919050565b600061159b8261157e565b9050919050565b6115ab81611590565b82525050565b60006060820190506115c660008301866115a2565b6115d360208301856115a2565b6115e0604083018461121b565b949350505050565b7f4f6e6c792063726561746f722063616e2063616e63656c207468652067616d6560008201527f2e00000000000000000000000000000000000000000000000000000000000000602082015250565b6000611644602183611080565b915061164f826115e8565b604082019050919050565b6000602082019050818103600083015261167381611637565b9050919050565b7f4f6e6c792063726561746f722063616e2066696e697368207468652067616d6560008201527f2e00000000000000000000000000000000000000000000000000000000000000602082015250565b60006116d6602183611080565b91506116e18261167a565b604082019050919050565b60006020820190508181036000830152611705816116c9565b9050919050565b7f47616d65206e6f742073746172746564206f7220616c72656164792066696e6960008201527f736865642e000000000000000000000000000000000000000000000000000000602082015250565b6000611768602583611080565b91506117738261170c565b604082019050919050565b600060208201905081810360008301526117978161175b565b9050919050565b7f4e487b7100000000000000000000000000000000000000000000000000000000600052601160045260246000fd5b60006117d882611211565b91506117e383611211565b92508282026117f181611211565b915082820484148315176118085761180761179e565b5b5092915050565b7f4e487b7100000000000000000000000000000000000000000000000000000000600052601260045260246000fd5b600061184982611211565b915061185483611211565b9250826118645761186361180f565b5b828204905092915050565b600061187a82611211565b915061188583611211565b925082820390508181111561189d5761189c61179e565b5b92915050565b60006040820190506118b860008301856112eb565b6118c5602083018461121b565b9392505050565b7f496e76616c696420726563697069656e7420616464726573732e000000000000600082015250565b6000611902601a83611080565b915061190d826118cc565b602082019050919050565b60006020820190508181036000830152611931816118f5565b9050919050565b7f416d6f756e74206d7573742062652067726561746572207468616e207a65726f60008201527f2e00000000000000000000000000000000000000000000000000000000000000602082015250565b6000611994602183611080565b915061199f82611938565b604082019050919050565b600060208201905081810360008301526119c381611987565b905091905056fea26469706673582212202bbf869dc5169ce7bee1008cfc5714a37aa67ae7e381a84eac7b74a4e521d8f664736f6c63430008180033",
  "linkReferences": {},
  "deployedLinkReferences": {}
}