{
  "_format": "hh-sol-artifact-1",
  "contractName": "ChessFactory",
  "sourceName": "contracts/ChessFactory.sol",
  "abi": [
    {
      "anonymous": false,
      "inputs": [
        {
          "indexed": false,
          "internalType": "address",
          "name": "game",
          "type": "address"
        },
        {
          "indexed": false,
          "internalType": "address",
          "name": "creator",
          "type": "address"
        }
      ],
      "name": "GameCreated",
      "type": "event"
    },
    {
      "inputs": [
        {
          "internalType": "uint256",
          "name": "entryFee",
          "type": "uint256"
        },
        {
          "internalType": "uint256",
          "name": "commission",
          "type": "uint256"
        }
      ],
      "name": "createGame",
      "outputs": [],
      "stateMutability": "nonpayable",
      "type": "function"
    }
  ],
  "bytecode": "0x608060405234801561001057600080fd5b506121d9806100206000396000f3fe608060405234801561001057600080fd5b506004361061002b5760003560e01c806360104cef14610030575b600080fd5b61004a6004803603810190610045919061010e565b61004c565b005b600033838360405161005d906100c6565b6100699392919061019e565b604051809103906000f080158015610085573d6000803e3d6000fd5b5090507fb60d84e37a6658effce28870b1d123cb86f86409df5888679310c0f276e1f5d281336040516100b99291906101f6565b60405180910390a1505050565b611f848061022083390190565b600080fd5b6000819050919050565b6100eb816100d8565b81146100f657600080fd5b50565b600081359050610108816100e2565b92915050565b60008060408385031215610125576101246100d3565b5b6000610133858286016100f9565b9250506020610144858286016100f9565b9150509250929050565b600073ffffffffffffffffffffffffffffffffffffffff82169050919050565b60006101798261014e565b9050919050565b6101898161016e565b82525050565b610198816100d8565b82525050565b60006060820190506101b36000830186610180565b6101c0602083018561018f565b6101cd604083018461018f565b949350505050565b60006101e08261014e565b9050919050565b6101f0816101d5565b82525050565b600060408201905061020b60008301856101e7565b61021860208301846101e7565b939250505056fe608060405260405162001f8438038062001f84833981810160405281019062000029919062000223565b600073ffffffffffffffffffffffffffffffffffffffff168373ffffffffffffffffffffffffffffffffffffffff16036200009b576040517f08c379a0000000000000000000000000000000000000000000000000000000008152600401620000929062000306565b60405180910390fd5b60008211620000e1576040517f08c379a0000000000000000000000000000000000000000000000000000000008152600401620000d8906200039e565b60405180910390fd5b6064811062000127576040517f08c379a00000000000000000000000000000000000000000000000000000000081526004016200011e9062000436565b60405180910390fd5b826000806101000a81548173ffffffffffffffffffffffffffffffffffffffff021916908373ffffffffffffffffffffffffffffffffffffffff160217905550816003819055508060048190555050505062000458565b600080fd5b600073ffffffffffffffffffffffffffffffffffffffff82169050919050565b6000620001b08262000183565b9050919050565b620001c281620001a3565b8114620001ce57600080fd5b50565b600081519050620001e281620001b7565b92915050565b6000819050919050565b620001fd81620001e8565b81146200020957600080fd5b50565b6000815190506200021d81620001f2565b92915050565b6000806000606084860312156200023f576200023e6200017e565b5b60006200024f86828701620001d1565b935050602062000262868287016200020c565b925050604062000275868287016200020c565b9150509250925092565b600082825260208201905092915050565b7f43726561746f7220616464726573732063616e6e6f74206265207a65726f206160008201527f6464726573730000000000000000000000000000000000000000000000000000602082015250565b6000620002ee6026836200027f565b9150620002fb8262000290565b604082019050919050565b600060208201905081810360008301526200032181620002df565b9050919050565b7f456e74727920666565206d7573742062652067726561746572207468616e207a60008201527f65726f2e00000000000000000000000000000000000000000000000000000000602082015250565b6000620003866024836200027f565b9150620003938262000328565b604082019050919050565b60006020820190508181036000830152620003b98162000377565b9050919050565b7f436f6d6d697373696f6e206d757374206265206c657373207468616e2031303060008201527f2e00000000000000000000000000000000000000000000000000000000000000602082015250565b60006200041e6021836200027f565b91506200042b82620003c0565b604082019050919050565b6000602082019050818103600083015262000451816200040f565b9050919050565b611b1c80620004686000396000f3fe6080604052600436106100e15760003560e01c8063d30895e41161007f578063dfbf53ae11610059578063dfbf53ae1461036f578063e14891911461039a578063e586a4f0146103c5578063e9652a19146103f0576101df565b8063d30895e414610323578063d4f77b1c1461034e578063d84c1ac914610358576101df565b806359a5f12d116100bb57806359a5f12d14610265578063877f4e1214610290578063893d20e8146102cd578063bef4876b146102f8576101df565b806302d05d3f146101e4578063072ea61c1461020f5780631f2698ab1461023a576101df565b366101df57600560009054906101000a900460ff161580156101105750600560019054906101000a900460ff16155b61014f576040517f08c379a0000000000000000000000000000000000000000000000000000000008152600401610146906111f6565b60405180910390fd5b60008054906101000a900473ffffffffffffffffffffffffffffffffffffffff1673ffffffffffffffffffffffffffffffffffffffff163373ffffffffffffffffffffffffffffffffffffffff16146101dd576040517f08c379a00000000000000000000000000000000000000000000000000000000081526004016101d490611288565b60405180910390fd5b005b600080fd5b3480156101f057600080fd5b506101f9610419565b60405161020691906112e9565b60405180910390f35b34801561021b57600080fd5b5061022461043d565b604051610231919061131d565b60405180910390f35b34801561024657600080fd5b5061024f610443565b60405161025c9190611353565b60405180910390f35b34801561027157600080fd5b5061027a610456565b60405161028791906112e9565b60405180910390f35b34801561029c57600080fd5b506102b760048036038101906102b291906113b1565b61047c565b6040516102c49190611353565b60405180910390f35b3480156102d957600080fd5b506102e261049c565b6040516102ef91906113ed565b60405180910390f35b34801561030457600080fd5b5061030d6104c5565b60405161031a9190611353565b60405180910390f35b34801561032f57600080fd5b506103386104d8565b60405161034591906112e9565b60405180910390f35b6103566104fe565b005b34801561036457600080fd5b5061036d610a88565b005b34801561037b57600080fd5b50610384610ca6565b60405161039191906113ed565b60405180910390f35b3480156103a657600080fd5b506103af610ccc565b6040516103bc919061131d565b60405180910390f35b3480156103d157600080fd5b506103da610cd2565b6040516103e7919061131d565b60405180910390f35b3480156103fc57600080fd5b50610417600480360381019061041291906113b1565b610cdc565b005b60008054906101000a900473ffffffffffffffffffffffffffffffffffffffff1681565b60035481565b600560009054906101000a900460ff1681565b600260009054906101000a900473ffffffffffffffffffffffffffffffffffffffff1681565b60066020528060005260406000206000915054906101000a900460ff1681565b60008060009054906101000a900473ffffffffffffffffffffffffffffffffffffffff16905090565b600560019054906101000a900460ff1681565b600160009054906101000a900473ffffffffffffffffffffffffffffffffffffffff1681565b600560009054906101000a900460ff161580156105285750600560019054906101000a900460ff16155b610567576040517f08c379a000000000000000000000000000000000000000000000000000000000815260040161055e906111f6565b60405180910390fd5b600354341460035460405160200161057f9190611480565b604051602081830303815290604052906105cf576040517f08c379a00000000000000000000000000000000000000000000000000000000081526004016105c69190611525565b60405180910390fd5b50600660003373ffffffffffffffffffffffffffffffffffffffff1673ffffffffffffffffffffffffffffffffffffffff16815260200190815260200160002060009054906101000a900460ff161561065d576040517f08c379a0000000000000000000000000000000000000000000000000000000008152600401610654906115b9565b60405180910390fd5b600073ffffffffffffffffffffffffffffffffffffffff16600160009054906101000a900473ffffffffffffffffffffffffffffffffffffffff1673ffffffffffffffffffffffffffffffffffffffff16036107ae5733600160006101000a81548173ffffffffffffffffffffffffffffffffffffffff021916908373ffffffffffffffffffffffffffffffffffffffff1602179055506001600660003373ffffffffffffffffffffffffffffffffffffffff1673ffffffffffffffffffffffffffffffffffffffff16815260200190815260200160002060006101000a81548160ff0219169083151502179055507fc7f886847371dba98b78e0d0d59e29f4abfaf6e953d6897a761992cb2627e687600160009054906101000a900473ffffffffffffffffffffffffffffffffffffffff166003546040516107a1929190611638565b60405180910390a1610936565b600073ffffffffffffffffffffffffffffffffffffffff16600260009054906101000a900473ffffffffffffffffffffffffffffffffffffffff1673ffffffffffffffffffffffffffffffffffffffff161461083f576040517f08c379a0000000000000000000000000000000000000000000000000000000008152600401610836906116ad565b60405180910390fd5b33600260006101000a81548173ffffffffffffffffffffffffffffffffffffffff021916908373ffffffffffffffffffffffffffffffffffffffff1602179055506001600660003373ffffffffffffffffffffffffffffffffffffffff1673ffffffffffffffffffffffffffffffffffffffff16815260200190815260200160002060006101000a81548160ff0219169083151502179055507fc7f886847371dba98b78e0d0d59e29f4abfaf6e953d6897a761992cb2627e687600260009054906101000a900473ffffffffffffffffffffffffffffffffffffffff1660035460405161092d929190611638565b60405180910390a15b600073ffffffffffffffffffffffffffffffffffffffff16600160009054906101000a900473ffffffffffffffffffffffffffffffffffffffff1673ffffffffffffffffffffffffffffffffffffffff16141580156109e45750600073ffffffffffffffffffffffffffffffffffffffff16600260009054906101000a900473ffffffffffffffffffffffffffffffffffffffff1673ffffffffffffffffffffffffffffffffffffffff1614155b15610a86576001600560006101000a81548160ff0219169083151502179055507f89fa9c4e385bdcb6e765e7156075926c8660c57d15923201c5cf4de0ab23d5ec600160009054906101000a900473ffffffffffffffffffffffffffffffffffffffff16600260009054906101000a900473ffffffffffffffffffffffffffffffffffffffff16600354604051610a7d939291906116cd565b60405180910390a15b565b60008054906101000a900473ffffffffffffffffffffffffffffffffffffffff1673ffffffffffffffffffffffffffffffffffffffff163373ffffffffffffffffffffffffffffffffffffffff1614610b16576040517f08c379a0000000000000000000000000000000000000000000000000000000008152600401610b0d90611776565b60405180910390fd5b600560009054906101000a900460ff16158015610b405750600560019054906101000a900460ff16155b610b7f576040517f08c379a0000000000000000000000000000000000000000000000000000000008152600401610b76906111f6565b60405180910390fd5b600073ffffffffffffffffffffffffffffffffffffffff16600160009054906101000a900473ffffffffffffffffffffffffffffffffffffffff1673ffffffffffffffffffffffffffffffffffffffff1614610c0457610c03600160009054906101000a900473ffffffffffffffffffffffffffffffffffffffff1660035461103d565b5b600073ffffffffffffffffffffffffffffffffffffffff16600260009054906101000a900473ffffffffffffffffffffffffffffffffffffffff1673ffffffffffffffffffffffffffffffffffffffff1614610c8957610c88600260009054906101000a900473ffffffffffffffffffffffffffffffffffffffff1660035461103d565b5b6001600560016101000a81548160ff021916908315150217905550565b600560029054906101000a900473ffffffffffffffffffffffffffffffffffffffff1681565b60045481565b6000600354905090565b60008054906101000a900473ffffffffffffffffffffffffffffffffffffffff1673ffffffffffffffffffffffffffffffffffffffff163373ffffffffffffffffffffffffffffffffffffffff1614610d6a576040517f08c379a0000000000000000000000000000000000000000000000000000000008152600401610d6190611808565b60405180910390fd5b600560009054906101000a900460ff168015610d935750600560019054906101000a900460ff16155b610dd2576040517f08c379a0000000000000000000000000000000000000000000000000000000008152600401610dc99061189a565b60405180910390fd5b80600560026101000a81548173ffffffffffffffffffffffffffffffffffffffff021916908373ffffffffffffffffffffffffffffffffffffffff1602179055506001600560016101000a81548160ff021916908315150217905550600073ffffffffffffffffffffffffffffffffffffffff168173ffffffffffffffffffffffffffffffffffffffff1603610ec357610e90600160009054906101000a900473ffffffffffffffffffffffffffffffffffffffff1660035461103d565b610ebe600260009054906101000a900473ffffffffffffffffffffffffffffffffffffffff1660035461103d565b61103a565b60004790506000606460045483610eda91906118e9565b610ee4919061195a565b905060008183610ef4919061198b565b9050600160009054906101000a900473ffffffffffffffffffffffffffffffffffffffff1673ffffffffffffffffffffffffffffffffffffffff168473ffffffffffffffffffffffffffffffffffffffff1603610fa657610f77600160009054906101000a900473ffffffffffffffffffffffffffffffffffffffff168261103d565b610fa160008054906101000a900473ffffffffffffffffffffffffffffffffffffffff168361103d565b610ffd565b610fd2600260009054906101000a900473ffffffffffffffffffffffffffffffffffffffff168261103d565b610ffc60008054906101000a900473ffffffffffffffffffffffffffffffffffffffff168361103d565b5b7f27223f8d1d659564536abdf661d810b8a16ca4f6c69034f2a73b74b0853d9829848260405161102e9291906119bf565b60405180910390a15050505b50565b600073ffffffffffffffffffffffffffffffffffffffff168273ffffffffffffffffffffffffffffffffffffffff16036110ac576040517f08c379a00000000000000000000000000000000000000000000000000000000081526004016110a390611a34565b60405180910390fd5b600081116110ef576040517f08c379a00000000000000000000000000000000000000000000000000000000081526004016110e690611ac6565b60405180910390fd5b8173ffffffffffffffffffffffffffffffffffffffff166108fc829081150290604051600060405180830381858888f19350505050158015611135573d6000803e3d6000fd5b507f8c9a4f13b67cb64d7c6aa1ae0c9bf07694af521a28b93e7060020810ab4bc59f8282604051611167929190611638565b60405180910390a15050565b600082825260208201905092915050565b7f47616d6520616c72656164792073746172746564206f722066696e697368656460008201527f2e00000000000000000000000000000000000000000000000000000000000000602082015250565b60006111e0602183611173565b91506111eb82611184565b604082019050919050565b6000602082019050818103600083015261120f816111d3565b9050919050565b7f4f6e6c792063726561746f722063616e2073656e6420696e697469616c20667560008201527f6e64732e00000000000000000000000000000000000000000000000000000000602082015250565b6000611272602483611173565b915061127d82611216565b604082019050919050565b600060208201905081810360008301526112a181611265565b9050919050565b600073ffffffffffffffffffffffffffffffffffffffff82169050919050565b60006112d3826112a8565b9050919050565b6112e3816112c8565b82525050565b60006020820190506112fe60008301846112da565b92915050565b6000819050919050565b61131781611304565b82525050565b6000602082019050611332600083018461130e565b92915050565b60008115159050919050565b61134d81611338565b82525050565b60006020820190506113686000830184611344565b92915050565b600080fd5b600061137e826112a8565b9050919050565b61138e81611373565b811461139957600080fd5b50565b6000813590506113ab81611385565b92915050565b6000602082840312156113c7576113c661136e565b5b60006113d58482850161139c565b91505092915050565b6113e781611373565b82525050565b600060208201905061140260008301846113de565b92915050565b600081905092915050565b7f496e636f727265637420656e747279206665652e2045787065637465643a2000600082015250565b6000611449601f83611408565b915061145482611413565b601f82019050919050565b6000819050919050565b61147a61147582611304565b61145f565b82525050565b600061148b8261143c565b91506114978284611469565b60208201915081905092915050565b600081519050919050565b60005b838110156114cf5780820151818401526020810190506114b4565b60008484015250505050565b6000601f19601f8301169050919050565b60006114f7826114a6565b6115018185611173565b93506115118185602086016114b1565b61151a816114db565b840191505092915050565b6000602082019050818103600083015261153f81846114ec565b905092915050565b7f596f75206861766520616c7265616479206a6f696e6564207468652067616d6560008201527f2e00000000000000000000000000000000000000000000000000000000000000602082015250565b60006115a3602183611173565b91506115ae82611547565b604082019050919050565b600060208201905081810360008301526115d281611596565b9050919050565b6000819050919050565b60006115fe6115f96115f4846112a8565b6115d9565b6112a8565b9050919050565b6000611610826115e3565b9050919050565b600061162282611605565b9050919050565b61163281611617565b82525050565b600060408201905061164d6000830185611629565b61165a602083018461130e565b9392505050565b7f47616d6520697320616c72656164792066756c6c2e0000000000000000000000600082015250565b6000611697601583611173565b91506116a282611661565b602082019050919050565b600060208201905081810360008301526116c68161168a565b9050919050565b60006060820190506116e26000830186611629565b6116ef6020830185611629565b6116fc604083018461130e565b949350505050565b7f4f6e6c792063726561746f722063616e2063616e63656c207468652067616d6560008201527f2e00000000000000000000000000000000000000000000000000000000000000602082015250565b6000611760602183611173565b915061176b82611704565b604082019050919050565b6000602082019050818103600083015261178f81611753565b9050919050565b7f4f6e6c792063726561746f722063616e2066696e697368207468652067616d6560008201527f2e00000000000000000000000000000000000000000000000000000000000000602082015250565b60006117f2602183611173565b91506117fd82611796565b604082019050919050565b60006020820190508181036000830152611821816117e5565b9050919050565b7f47616d65206e6f742073746172746564206f7220616c72656164792066696e6960008201527f736865642e000000000000000000000000000000000000000000000000000000602082015250565b6000611884602583611173565b915061188f82611828565b604082019050919050565b600060208201905081810360008301526118b381611877565b9050919050565b7f4e487b7100000000000000000000000000000000000000000000000000000000600052601160045260246000fd5b60006118f482611304565b91506118ff83611304565b925082820261190d81611304565b91508282048414831517611924576119236118ba565b5b5092915050565b7f4e487b7100000000000000000000000000000000000000000000000000000000600052601260045260246000fd5b600061196582611304565b915061197083611304565b9250826119805761197f61192b565b5b828204905092915050565b600061199682611304565b91506119a183611304565b92508282039050818111156119b9576119b86118ba565b5b92915050565b60006040820190506119d460008301856113de565b6119e1602083018461130e565b9392505050565b7f496e76616c696420726563697069656e7420616464726573732e000000000000600082015250565b6000611a1e601a83611173565b9150611a29826119e8565b602082019050919050565b60006020820190508181036000830152611a4d81611a11565b9050919050565b7f416d6f756e74206d7573742062652067726561746572207468616e207a65726f60008201527f2e00000000000000000000000000000000000000000000000000000000000000602082015250565b6000611ab0602183611173565b9150611abb82611a54565b604082019050919050565b60006020820190508181036000830152611adf81611aa3565b905091905056fea26469706673582212202e6ff7c586c8d3615bb7382ea9d755d3fa46618d8bccfe3442d834eb3a903c5364736f6c63430008180033a2646970667358221220798689082ddc2fdbb796bd940f1dbc56828b51ea5ff13b059aab99a90965e26464736f6c63430008180033",
  "linkReferences": {},
  "deployedLinkReferences": {}
}