{
  "_format": "hh-sol-artifact-1",
  "contractName": "Chess",
  "sourceName": "contracts/Chess.sol",
  "abi": [
    {
      "inputs": [
        {
          "internalType": "uint256",
          "name": "_entryFee",
          "type": "uint256"
        },
        {
          "internalType": "uint256",
          "name": "_commission",
          "type": "uint256"
        }
      ],
      "stateMutability": "payable",
      "type": "constructor"
    },
    {
      "inputs": [],
      "name": "cancelGame",
      "outputs": [],
      "stateMutability": "nonpayable",
      "type": "function"
    },
    {
      "inputs": [],
      "name": "commission",
      "outputs": [
        {
          "internalType": "uint256",
          "name": "",
          "type": "uint256"
        }
      ],
      "stateMutability": "view",
      "type": "function"
    },
    {
      "inputs": [],
      "name": "creator",
      "outputs": [
        {
          "internalType": "address payable",
          "name": "",
          "type": "address"
        }
      ],
      "stateMutability": "view",
      "type": "function"
    },
    {
      "inputs": [],
      "name": "entryFee",
      "outputs": [
        {
          "internalType": "uint256",
          "name": "",
          "type": "uint256"
        }
      ],
      "stateMutability": "view",
      "type": "function"
    },
    {
      "inputs": [
        {
          "internalType": "address",
          "name": "_winner",
          "type": "address"
        }
      ],
      "name": "finishGame",
      "outputs": [],
      "stateMutability": "nonpayable",
      "type": "function"
    },
    {
      "inputs": [],
      "name": "finished",
      "outputs": [
        {
          "internalType": "bool",
          "name": "",
          "type": "bool"
        }
      ],
      "stateMutability": "view",
      "type": "function"
    },
    {
      "inputs": [],
      "name": "getEntryFee",
      "outputs": [
        {
          "internalType": "uint256",
          "name": "",
          "type": "uint256"
        }
      ],
      "stateMutability": "view",
      "type": "function"
    },
    {
      "inputs": [
        {
          "internalType": "address",
          "name": "",
          "type": "address"
        }
      ],
      "name": "hasJoined",
      "outputs": [
        {
          "internalType": "bool",
          "name": "",
          "type": "bool"
        }
      ],
      "stateMutability": "view",
      "type": "function"
    },
    {
      "inputs": [],
      "name": "joinGame",
      "outputs": [],
      "stateMutability": "payable",
      "type": "function"
    },
    {
      "inputs": [],
      "name": "player1",
      "outputs": [
        {
          "internalType": "address payable",
          "name": "",
          "type": "address"
        }
      ],
      "stateMutability": "view",
      "type": "function"
    },
    {
      "inputs": [],
      "name": "player2",
      "outputs": [
        {
          "internalType": "address payable",
          "name": "",
          "type": "address"
        }
      ],
      "stateMutability": "view",
      "type": "function"
    },
    {
      "inputs": [],
      "name": "started",
      "outputs": [
        {
          "internalType": "bool",
          "name": "",
          "type": "bool"
        }
      ],
      "stateMutability": "view",
      "type": "function"
    },
    {
      "inputs": [],
      "name": "winner",
      "outputs": [
        {
          "internalType": "address",
          "name": "",
          "type": "address"
        }
      ],
      "stateMutability": "view",
      "type": "function"
    },
    {
      "inputs": [],
      "name": "withdrawCommission",
      "outputs": [],
      "stateMutability": "nonpayable",
      "type": "function"
    },
    {
      "inputs": [],
      "name": "withdrawWinnings",
      "outputs": [],
      "stateMutability": "nonpayable",
      "type": "function"
    },
    {
      "stateMutability": "payable",
      "type": "receive"
    }
  ],
  "bytecode": "0x608060405260405162001f3538038062001f3583398181016040528101906200002991906200014b565b600082116200006f576040517f08c379a0000000000000000000000000000000000000000000000000000000008152600401620000669062000219565b60405180910390fd5b60648110620000b5576040517f08c379a0000000000000000000000000000000000000000000000000000000008152600401620000ac90620002b1565b60405180910390fd5b336000806101000a81548173ffffffffffffffffffffffffffffffffffffffff021916908373ffffffffffffffffffffffffffffffffffffffff16021790555081600381905550806004819055505050620002d3565b600080fd5b6000819050919050565b620001258162000110565b81146200013157600080fd5b50565b60008151905062000145816200011a565b92915050565b600080604083850312156200016557620001646200010b565b5b6000620001758582860162000134565b9250506020620001888582860162000134565b9150509250929050565b600082825260208201905092915050565b7f456e74727920666565206d7573742062652067726561746572207468616e207a60008201527f65726f2e00000000000000000000000000000000000000000000000000000000602082015250565b60006200020160248362000192565b91506200020e82620001a3565b604082019050919050565b600060208201905081810360008301526200023481620001f2565b9050919050565b7f436f6d6d697373696f6e206d757374206265206c657373207468616e2031303060008201527f2e00000000000000000000000000000000000000000000000000000000000000602082015250565b60006200029960218362000192565b9150620002a6826200023b565b604082019050919050565b60006020820190508181036000830152620002cc816200028a565b9050919050565b611c5280620002e36000396000f3fe6080604052600436106100ec5760003560e01c8063cc42e83a1161008a578063dfbf53ae11610059578063dfbf53ae1461037d578063e1489191146103a8578063e586a4f0146103d3578063e9652a19146103fe576101ea565b8063cc42e83a1461031a578063d30895e414610331578063d4f77b1c1461035c578063d84c1ac914610366576101ea565b80633e25e837116100c65780633e25e8371461027057806359a5f12d14610287578063877f4e12146102b2578063bef4876b146102ef576101ea565b806302d05d3f146101ef578063072ea61c1461021a5780631f2698ab14610245576101ea565b366101ea57600560009054906101000a900460ff1615801561011b5750600560019054906101000a900460ff16155b61015a576040517f08c379a000000000000000000000000000000000000000000000000000000000815260040161015190611272565b60405180910390fd5b60008054906101000a900473ffffffffffffffffffffffffffffffffffffffff1673ffffffffffffffffffffffffffffffffffffffff163373ffffffffffffffffffffffffffffffffffffffff16146101e8576040517f08c379a00000000000000000000000000000000000000000000000000000000081526004016101df90611304565b60405180910390fd5b005b600080fd5b3480156101fb57600080fd5b50610204610427565b6040516102119190611365565b60405180910390f35b34801561022657600080fd5b5061022f61044b565b60405161023c9190611399565b60405180910390f35b34801561025157600080fd5b5061025a610451565b60405161026791906113cf565b60405180910390f35b34801561027c57600080fd5b50610285610464565b005b34801561029357600080fd5b5061029c610612565b6040516102a99190611365565b60405180910390f35b3480156102be57600080fd5b506102d960048036038101906102d4919061142d565b610638565b6040516102e691906113cf565b60405180910390f35b3480156102fb57600080fd5b50610304610658565b60405161031191906113cf565b60405180910390f35b34801561032657600080fd5b5061032f61066b565b005b34801561033d57600080fd5b506103466107fe565b6040516103539190611365565b60405180910390f35b610364610824565b005b34801561037257600080fd5b5061037b610c73565b005b34801561038957600080fd5b50610392610f7c565b60405161039f9190611469565b60405180910390f35b3480156103b457600080fd5b506103bd610fa2565b6040516103ca9190611399565b60405180910390f35b3480156103df57600080fd5b506103e8610fa8565b6040516103f59190611399565b60405180910390f35b34801561040a57600080fd5b506104256004803603810190610420919061142d565b610fb2565b005b60008054906101000a900473ffffffffffffffffffffffffffffffffffffffff1681565b60035481565b600560009054906101000a900460ff1681565b600560019054906101000a900460ff166104b3576040517f08c379a00000000000000000000000000000000000000000000000000000000081526004016104aa906114d0565b60405180910390fd5b60008054906101000a900473ffffffffffffffffffffffffffffffffffffffff1673ffffffffffffffffffffffffffffffffffffffff163373ffffffffffffffffffffffffffffffffffffffff1614610541576040517f08c379a000000000000000000000000000000000000000000000000000000000815260040161053890611562565b60405180910390fd5b6000479050600060646004548361055891906115b1565b6105629190611622565b9050600081116105a7576040517f08c379a000000000000000000000000000000000000000000000000000000000815260040161059e9061169f565b60405180910390fd5b60008054906101000a900473ffffffffffffffffffffffffffffffffffffffff1673ffffffffffffffffffffffffffffffffffffffff166108fc829081150290604051600060405180830381858888f1935050505015801561060d573d6000803e3d6000fd5b505050565b600260009054906101000a900473ffffffffffffffffffffffffffffffffffffffff1681565b60066020528060005260406000206000915054906101000a900460ff1681565b600560019054906101000a900460ff1681565b600560019054906101000a900460ff166106ba576040517f08c379a00000000000000000000000000000000000000000000000000000000081526004016106b1906114d0565b60405180910390fd5b600560029054906101000a900473ffffffffffffffffffffffffffffffffffffffff1673ffffffffffffffffffffffffffffffffffffffff163373ffffffffffffffffffffffffffffffffffffffff161461074a576040517f08c379a000000000000000000000000000000000000000000000000000000000815260040161074190611731565b60405180910390fd5b600047905060008111610792576040517f08c379a00000000000000000000000000000000000000000000000000000000081526004016107899061179d565b60405180910390fd5b600560029054906101000a900473ffffffffffffffffffffffffffffffffffffffff1673ffffffffffffffffffffffffffffffffffffffff166108fc829081150290604051600060405180830381858888f193505050501580156107fa573d6000803e3d6000fd5b5050565b600160009054906101000a900473ffffffffffffffffffffffffffffffffffffffff1681565b600560009054906101000a900460ff1615801561084e5750600560019054906101000a900460ff16155b61088d576040517f08c379a000000000000000000000000000000000000000000000000000000000815260040161088490611272565b60405180910390fd5b60035434146003546040516020016108a59190611835565b604051602081830303815290604052906108f5576040517f08c379a00000000000000000000000000000000000000000000000000000000081526004016108ec91906118da565b60405180910390fd5b50600660003373ffffffffffffffffffffffffffffffffffffffff1673ffffffffffffffffffffffffffffffffffffffff16815260200190815260200160002060009054906101000a900460ff1615610983576040517f08c379a000000000000000000000000000000000000000000000000000000000815260040161097a9061196e565b60405180910390fd5b600073ffffffffffffffffffffffffffffffffffffffff16600160009054906101000a900473ffffffffffffffffffffffffffffffffffffffff1673ffffffffffffffffffffffffffffffffffffffff1603610a775733600160006101000a81548173ffffffffffffffffffffffffffffffffffffffff021916908373ffffffffffffffffffffffffffffffffffffffff1602179055506001600660003373ffffffffffffffffffffffffffffffffffffffff1673ffffffffffffffffffffffffffffffffffffffff16815260200190815260200160002060006101000a81548160ff021916908315150217905550610ba2565b600073ffffffffffffffffffffffffffffffffffffffff16600260009054906101000a900473ffffffffffffffffffffffffffffffffffffffff1673ffffffffffffffffffffffffffffffffffffffff1614610b08576040517f08c379a0000000000000000000000000000000000000000000000000000000008152600401610aff906119da565b60405180910390fd5b33600260006101000a81548173ffffffffffffffffffffffffffffffffffffffff021916908373ffffffffffffffffffffffffffffffffffffffff1602179055506001600660003373ffffffffffffffffffffffffffffffffffffffff1673ffffffffffffffffffffffffffffffffffffffff16815260200190815260200160002060006101000a81548160ff0219169083151502179055505b600073ffffffffffffffffffffffffffffffffffffffff16600160009054906101000a900473ffffffffffffffffffffffffffffffffffffffff1673ffffffffffffffffffffffffffffffffffffffff1614158015610c505750600073ffffffffffffffffffffffffffffffffffffffff16600260009054906101000a900473ffffffffffffffffffffffffffffffffffffffff1673ffffffffffffffffffffffffffffffffffffffff1614155b15610c71576001600560006101000a81548160ff0219169083151502179055505b565b60008054906101000a900473ffffffffffffffffffffffffffffffffffffffff1673ffffffffffffffffffffffffffffffffffffffff163373ffffffffffffffffffffffffffffffffffffffff1614610d01576040517f08c379a0000000000000000000000000000000000000000000000000000000008152600401610cf890611a6c565b60405180910390fd5b600560009054906101000a900460ff16158015610d2b5750600560019054906101000a900460ff16155b610d6a576040517f08c379a0000000000000000000000000000000000000000000000000000000008152600401610d6190611272565b60405180910390fd5b600073ffffffffffffffffffffffffffffffffffffffff16600160009054906101000a900473ffffffffffffffffffffffffffffffffffffffff1673ffffffffffffffffffffffffffffffffffffffff1614610e2c57600160009054906101000a900473ffffffffffffffffffffffffffffffffffffffff1673ffffffffffffffffffffffffffffffffffffffff166108fc6003549081150290604051600060405180830381858888f19350505050158015610e2a573d6000803e3d6000fd5b505b600073ffffffffffffffffffffffffffffffffffffffff16600260009054906101000a900473ffffffffffffffffffffffffffffffffffffffff1673ffffffffffffffffffffffffffffffffffffffff1614610eee57600260009054906101000a900473ffffffffffffffffffffffffffffffffffffffff1673ffffffffffffffffffffffffffffffffffffffff166108fc6003549081150290604051600060405180830381858888f19350505050158015610eec573d6000803e3d6000fd5b505b6000471115610f5f5760008054906101000a900473ffffffffffffffffffffffffffffffffffffffff1673ffffffffffffffffffffffffffffffffffffffff166108fc479081150290604051600060405180830381858888f19350505050158015610f5d573d6000803e3d6000fd5b505b6001600560016101000a81548160ff021916908315150217905550565b600560029054906101000a900473ffffffffffffffffffffffffffffffffffffffff1681565b60045481565b6000600354905090565b60008054906101000a900473ffffffffffffffffffffffffffffffffffffffff1673ffffffffffffffffffffffffffffffffffffffff163373ffffffffffffffffffffffffffffffffffffffff1614611040576040517f08c379a000000000000000000000000000000000000000000000000000000000815260040161103790611afe565b60405180910390fd5b600560009054906101000a900460ff1680156110695750600560019054906101000a900460ff16155b6110a8576040517f08c379a000000000000000000000000000000000000000000000000000000000815260040161109f90611b90565b60405180910390fd5b600160009054906101000a900473ffffffffffffffffffffffffffffffffffffffff1673ffffffffffffffffffffffffffffffffffffffff168173ffffffffffffffffffffffffffffffffffffffff1614806111515750600260009054906101000a900473ffffffffffffffffffffffffffffffffffffffff1673ffffffffffffffffffffffffffffffffffffffff168173ffffffffffffffffffffffffffffffffffffffff16145b611190576040517f08c379a000000000000000000000000000000000000000000000000000000000815260040161118790611bfc565b60405180910390fd5b80600560026101000a81548173ffffffffffffffffffffffffffffffffffffffff021916908373ffffffffffffffffffffffffffffffffffffffff1602179055506001600560016101000a81548160ff02191690831515021790555050565b600082825260208201905092915050565b7f47616d6520616c72656164792073746172746564206f722066696e697368656460008201527f2e00000000000000000000000000000000000000000000000000000000000000602082015250565b600061125c6021836111ef565b915061126782611200565b604082019050919050565b6000602082019050818103600083015261128b8161124f565b9050919050565b7f4f6e6c792063726561746f722063616e2073656e6420696e697469616c20667560008201527f6e64732e00000000000000000000000000000000000000000000000000000000602082015250565b60006112ee6024836111ef565b91506112f982611292565b604082019050919050565b6000602082019050818103600083015261131d816112e1565b9050919050565b600073ffffffffffffffffffffffffffffffffffffffff82169050919050565b600061134f82611324565b9050919050565b61135f81611344565b82525050565b600060208201905061137a6000830184611356565b92915050565b6000819050919050565b61139381611380565b82525050565b60006020820190506113ae600083018461138a565b92915050565b60008115159050919050565b6113c9816113b4565b82525050565b60006020820190506113e460008301846113c0565b92915050565b600080fd5b60006113fa82611324565b9050919050565b61140a816113ef565b811461141557600080fd5b50565b60008135905061142781611401565b92915050565b600060208284031215611443576114426113ea565b5b600061145184828501611418565b91505092915050565b611463816113ef565b82525050565b600060208201905061147e600083018461145a565b92915050565b7f47616d65206e6f742066696e6973686564207965742e00000000000000000000600082015250565b60006114ba6016836111ef565b91506114c582611484565b602082019050919050565b600060208201905081810360008301526114e9816114ad565b9050919050565b7f4f6e6c792063726561746f722063616e20776974686472617720636f6d6d697360008201527f73696f6e2e000000000000000000000000000000000000000000000000000000602082015250565b600061154c6025836111ef565b9150611557826114f0565b604082019050919050565b6000602082019050818103600083015261157b8161153f565b9050919050565b7f4e487b7100000000000000000000000000000000000000000000000000000000600052601160045260246000fd5b60006115bc82611380565b91506115c783611380565b92508282026115d581611380565b915082820484148315176115ec576115eb611582565b5b5092915050565b7f4e487b7100000000000000000000000000000000000000000000000000000000600052601260045260246000fd5b600061162d82611380565b915061163883611380565b925082611648576116476115f3565b5b828204905092915050565b7f436f6d6d697373696f6e2062616c616e636520697320656d7074790000000000600082015250565b6000611689601b836111ef565b915061169482611653565b602082019050919050565b600060208201905081810360008301526116b88161167c565b9050919050565b7f4f6e6c792077696e6e65722063616e2077697468647261772077696e6e696e6760008201527f732e000000000000000000000000000000000000000000000000000000000000602082015250565b600061171b6022836111ef565b9150611726826116bf565b604082019050919050565b6000602082019050818103600083015261174a8161170e565b9050919050565b7f436f6e74726163742062616c616e636520697320656d70747900000000000000600082015250565b60006117876019836111ef565b915061179282611751565b602082019050919050565b600060208201905081810360008301526117b68161177a565b9050919050565b600081905092915050565b7f496e636f727265637420656e747279206665652e2045787065637465643a2000600082015250565b60006117fe601f836117bd565b9150611809826117c8565b601f82019050919050565b6000819050919050565b61182f61182a82611380565b611814565b82525050565b6000611840826117f1565b915061184c828461181e565b60208201915081905092915050565b600081519050919050565b60005b83811015611884578082015181840152602081019050611869565b60008484015250505050565b6000601f19601f8301169050919050565b60006118ac8261185b565b6118b681856111ef565b93506118c6818560208601611866565b6118cf81611890565b840191505092915050565b600060208201905081810360008301526118f481846118a1565b905092915050565b7f596f75206861766520616c7265616479206a6f696e6564207468652067616d6560008201527f2e00000000000000000000000000000000000000000000000000000000000000602082015250565b60006119586021836111ef565b9150611963826118fc565b604082019050919050565b600060208201905081810360008301526119878161194b565b9050919050565b7f47616d6520697320616c72656164792066756c6c2e0000000000000000000000600082015250565b60006119c46015836111ef565b91506119cf8261198e565b602082019050919050565b600060208201905081810360008301526119f3816119b7565b9050919050565b7f4f6e6c792063726561746f722063616e2063616e63656c207468652067616d6560008201527f2e00000000000000000000000000000000000000000000000000000000000000602082015250565b6000611a566021836111ef565b9150611a61826119fa565b604082019050919050565b60006020820190508181036000830152611a8581611a49565b9050919050565b7f4f6e6c792063726561746f722063616e2066696e697368207468652067616d6560008201527f2e00000000000000000000000000000000000000000000000000000000000000602082015250565b6000611ae86021836111ef565b9150611af382611a8c565b604082019050919050565b60006020820190508181036000830152611b1781611adb565b9050919050565b7f47616d65206e6f742073746172746564206f7220616c72656164792066696e6960008201527f736865642e000000000000000000000000000000000000000000000000000000602082015250565b6000611b7a6025836111ef565b9150611b8582611b1e565b604082019050919050565b60006020820190508181036000830152611ba981611b6d565b9050919050565b7f496e76616c69642077696e6e657220616464726573732e000000000000000000600082015250565b6000611be66017836111ef565b9150611bf182611bb0565b602082019050919050565b60006020820190508181036000830152611c1581611bd9565b905091905056fea2646970667358221220e136dcefc3ffc4d79bd9e4086e2a988480a4e7bc43bb6a13f08ac93aa0a8ce6664736f6c63430008180033",
  "linkReferences": {},
  "deployedLinkReferences": {}
}