{
  "_format": "hh-sol-artifact-1",
  "contractName": "ChessGame",
  "sourceName": "contracts/Game.sol",
  "abi": [
    {
      "inputs": [
        {
          "internalType": "uint256",
          "name": "_commission",
          "type": "uint256"
        },
        {
          "internalType": "uint256",
          "name": "_MINIMUM_ENTRY_FEE",
          "type": "uint256"
        }
      ],
      "stateMutability": "payable",
      "type": "constructor"
    },
    {
      "anonymous": false,
      "inputs": [
        {
          "indexed": false,
          "internalType": "uint256",
          "name": "gameId",
          "type": "uint256"
        },
        {
          "indexed": false,
          "internalType": "enum ChessGame.Winner",
          "name": "winner",
          "type": "uint8"
        },
        {
          "indexed": false,
          "internalType": "uint256",
          "name": "reward",
          "type": "uint256"
        }
      ],
      "name": "GameFinished",
      "type": "event"
    },
    {
      "anonymous": false,
      "inputs": [
        {
          "indexed": false,
          "internalType": "uint256",
          "name": "gameId",
          "type": "uint256"
        },
        {
          "indexed": false,
          "internalType": "address",
          "name": "player",
          "type": "address"
        },
        {
          "indexed": false,
          "internalType": "uint256",
          "name": "amount",
          "type": "uint256"
        }
      ],
      "name": "GameFunded",
      "type": "event"
    },
    {
      "anonymous": false,
      "inputs": [
        {
          "indexed": false,
          "internalType": "uint256",
          "name": "gameId",
          "type": "uint256"
        },
        {
          "indexed": false,
          "internalType": "address",
          "name": "playerOne",
          "type": "address"
        },
        {
          "indexed": false,
          "internalType": "uint256",
          "name": "entryFee",
          "type": "uint256"
        }
      ],
      "name": "GameStarted",
      "type": "event"
    },
    {
      "inputs": [
        {
          "internalType": "address",
          "name": "",
          "type": "address"
        }
      ],
      "name": "balance",
      "outputs": [
        {
          "internalType": "uint256",
          "name": "",
          "type": "uint256"
        }
      ],
      "stateMutability": "view",
      "type": "function"
    },
    {
      "inputs": [
        {
          "internalType": "uint256",
          "name": "_amount",
          "type": "uint256"
        }
      ],
      "name": "claimRewards",
      "outputs": [],
      "stateMutability": "payable",
      "type": "function"
    },
    {
      "inputs": [],
      "name": "commission",
      "outputs": [
        {
          "internalType": "uint256",
          "name": "",
          "type": "uint256"
        }
      ],
      "stateMutability": "view",
      "type": "function"
    },
    {
      "inputs": [],
      "name": "countGame",
      "outputs": [
        {
          "internalType": "uint256",
          "name": "",
          "type": "uint256"
        }
      ],
      "stateMutability": "view",
      "type": "function"
    },
    {
      "inputs": [
        {
          "internalType": "uint256",
          "name": "_gameId",
          "type": "uint256"
        },
        {
          "internalType": "enum ChessGame.Winner",
          "name": "_winner",
          "type": "uint8"
        }
      ],
      "name": "finishGame",
      "outputs": [],
      "stateMutability": "nonpayable",
      "type": "function"
    },
    {
      "inputs": [
        {
          "internalType": "uint256",
          "name": "_gameId",
          "type": "uint256"
        }
      ],
      "name": "fundGame",
      "outputs": [],
      "stateMutability": "payable",
      "type": "function"
    },
    {
      "inputs": [
        {
          "internalType": "uint256",
          "name": "",
          "type": "uint256"
        }
      ],
      "name": "games",
      "outputs": [
        {
          "internalType": "uint256",
          "name": "gameId",
          "type": "uint256"
        },
        {
          "internalType": "uint256",
          "name": "creatingTime",
          "type": "uint256"
        },
        {
          "internalType": "address",
          "name": "playerOne",
          "type": "address"
        },
        {
          "internalType": "address",
          "name": "playerTwo",
          "type": "address"
        },
        {
          "internalType": "uint256",
          "name": "rewardPool",
          "type": "uint256"
        },
        {
          "internalType": "bool",
          "name": "isStarted",
          "type": "bool"
        },
        {
          "internalType": "bool",
          "name": "isFinished",
          "type": "bool"
        }
      ],
      "stateMutability": "view",
      "type": "function"
    },
    {
      "inputs": [],
      "name": "owner",
      "outputs": [
        {
          "internalType": "address payable",
          "name": "",
          "type": "address"
        }
      ],
      "stateMutability": "view",
      "type": "function"
    },
    {
      "inputs": [],
      "name": "pausedAllGames",
      "outputs": [
        {
          "internalType": "bool",
          "name": "",
          "type": "bool"
        }
      ],
      "stateMutability": "view",
      "type": "function"
    },
    {
      "inputs": [],
      "name": "startGame",
      "outputs": [],
      "stateMutability": "nonpayable",
      "type": "function"
    },
    {
      "inputs": [],
      "name": "toggleContract",
      "outputs": [],
      "stateMutability": "nonpayable",
      "type": "function"
    },
    {
      "inputs": [
        {
          "internalType": "uint256",
          "name": "_amount",
          "type": "uint256"
        }
      ],
      "name": "withdraw",
      "outputs": [],
      "stateMutability": "payable",
      "type": "function"
    }
  ],
  "bytecode": "0x60a060405260018055604051620024973803806200249783398181016040528101906200002d919062000151565b6032821062000073576040517f08c379a00000000000000000000000000000000000000000000000000000000081526004016200006a90620001f9565b60405180910390fd5b6064811015620000ba576040517f08c379a0000000000000000000000000000000000000000000000000000000008152600401620000b1906200026b565b60405180910390fd5b336000806101000a81548173ffffffffffffffffffffffffffffffffffffffff021916908373ffffffffffffffffffffffffffffffffffffffff16021790555081600381905550806080818152505050506200028d565b600080fd5b6000819050919050565b6200012b8162000116565b81146200013757600080fd5b50565b6000815190506200014b8162000120565b92915050565b600080604083850312156200016b576200016a62000111565b5b60006200017b858286016200013a565b92505060206200018e858286016200013a565b9150509250929050565b600082825260208201905092915050565b7f436f6d6d697373696f6e2073686f756c64206265203c2035302e000000000000600082015250565b6000620001e1601a8362000198565b9150620001ee82620001a9565b602082019050919050565b600060208201905081810360008301526200021481620001d2565b9050919050565b7f4d696e206665652073686f756c64206265203e3d203130300000000000000000600082015250565b60006200025360188362000198565b915062000260826200021b565b602082019050919050565b60006020820190508181036000830152620002868162000244565b9050919050565b6080516121e7620002b06000396000818161092e015261095e01526121e76000f3fe6080604052600436106100a75760003560e01c80638da5cb5b116100645780638da5cb5b146101975780639df90028146101c2578063d0232c70146101d9578063d65ab5f214610204578063e14891911461021b578063e3d670d714610246576100a7565b80630962ef79146100ac578063117a5b90146100c85780632d4e8c461461010b5780632e1a7d4d146101345780632e55a767146101505780633bb6c5f41461016c575b600080fd5b6100c660048036038101906100c191906116d4565b610283565b005b3480156100d457600080fd5b506100ef60048036038101906100ea91906116d4565b61040b565b604051610102979695949392919061176c565b60405180910390f35b34801561011757600080fd5b50610132600480360381019061012d9190611800565b6104b7565b005b61014e600480360381019061014991906116d4565b6106c6565b005b61016a600480360381019061016591906116d4565b6108dc565b005b34801561017857600080fd5b50610181610cd5565b60405161018e9190611840565b60405180910390f35b3480156101a357600080fd5b506101ac610cdb565b6040516101b9919061187c565b60405180910390f35b3480156101ce57600080fd5b506101d7610cff565b005b3480156101e557600080fd5b506101ee610db9565b6040516101fb9190611897565b60405180910390f35b34801561021057600080fd5b50610219610dcc565b005b34801561022757600080fd5b506102306110ad565b60405161023d9190611840565b60405180910390f35b34801561025257600080fd5b5061026d600480360381019061026891906118de565b6110b3565b60405161027a9190611840565b60405180910390f35b80600460003373ffffffffffffffffffffffffffffffffffffffff1673ffffffffffffffffffffffffffffffffffffffff168152602001908152602001600020541015610305576040517f08c379a00000000000000000000000000000000000000000000000000000000081526004016102fc90611968565b60405180910390fd5b80600460003373ffffffffffffffffffffffffffffffffffffffff1673ffffffffffffffffffffffffffffffffffffffff168152602001908152602001600020600082825461035491906119b7565b9250508190555060003373ffffffffffffffffffffffffffffffffffffffff168260405161038190611a1c565b60006040518083038185875af1925050503d80600081146103be576040519150601f19603f3d011682016040523d82523d6000602084013e6103c3565b606091505b5050905080610407576040517f08c379a00000000000000000000000000000000000000000000000000000000081526004016103fe90611a7d565b60405180910390fd5b5050565b6005818154811061041b57600080fd5b90600052602060002090600602016000915090508060000154908060010154908060020160009054906101000a900473ffffffffffffffffffffffffffffffffffffffff16908060030160009054906101000a900473ffffffffffffffffffffffffffffffffffffffff16908060040154908060050160009054906101000a900460ff16908060050160019054906101000a900460ff16905087565b60008054906101000a900473ffffffffffffffffffffffffffffffffffffffff1673ffffffffffffffffffffffffffffffffffffffff163373ffffffffffffffffffffffffffffffffffffffff1614610545576040517f08c379a000000000000000000000000000000000000000000000000000000000815260040161053c90611ae9565b60405180910390fd5b60006005838154811061055b5761055a611b09565b5b906000526020600020906006020190508060050160009054906101000a900460ff166105bc576040517f08c379a00000000000000000000000000000000000000000000000000000000081526004016105b390611b84565b60405180910390fd5b8060050160019054906101000a900460ff161561060e576040517f08c379a000000000000000000000000000000000000000000000000000000000815260040161060590611bf0565b60405180910390fd5b60018160050160016101000a81548160ff0219169083151502179055507e21feea4608e6756f982d5bd71c09645176b4865cf6bd600fcc4aa990f024048383836004015460405161066193929190611c87565b60405180910390a16106c18160040154838360020160009054906101000a900473ffffffffffffffffffffffffffffffffffffffff168460030160009054906101000a900473ffffffffffffffffffffffffffffffffffffffff166110cb565b505050565b60008054906101000a900473ffffffffffffffffffffffffffffffffffffffff1673ffffffffffffffffffffffffffffffffffffffff163373ffffffffffffffffffffffffffffffffffffffff1614610754576040517f08c379a000000000000000000000000000000000000000000000000000000000815260040161074b90611ae9565b60405180910390fd5b80600460003073ffffffffffffffffffffffffffffffffffffffff1673ffffffffffffffffffffffffffffffffffffffff1681526020019081526020016000205410156107d6576040517f08c379a00000000000000000000000000000000000000000000000000000000081526004016107cd90611968565b60405180910390fd5b80600460003073ffffffffffffffffffffffffffffffffffffffff1673ffffffffffffffffffffffffffffffffffffffff168152602001908152602001600020600082825461082591906119b7565b9250508190555060003373ffffffffffffffffffffffffffffffffffffffff168260405161085290611a1c565b60006040518083038185875af1925050503d806000811461088f576040519150601f19603f3d011682016040523d82523d6000602084013e610894565b606091505b50509050806108d8576040517f08c379a00000000000000000000000000000000000000000000000000000000081526004016108cf90611d0a565b60405180910390fd5b5050565b600260009054906101000a900460ff161561092c576040517f08c379a000000000000000000000000000000000000000000000000000000000815260040161092390611d76565b60405180910390fd5b7f00000000000000000000000000000000000000000000000000000000000000003410156109593461140b565b6109827f000000000000000000000000000000000000000000000000000000000000000061140b565b604051602001610993929190611e9f565b604051602081830303815290604052906109e3576040517f08c379a00000000000000000000000000000000000000000000000000000000081526004016109da9190611f23565b60405180910390fd5b50600073ffffffffffffffffffffffffffffffffffffffff1660058281548110610a1057610a0f611b09565b5b906000526020600020906006020160020160009054906101000a900473ffffffffffffffffffffffffffffffffffffffff1673ffffffffffffffffffffffffffffffffffffffff161480610ad55750600073ffffffffffffffffffffffffffffffffffffffff1660058281548110610a8b57610a8a611b09565b5b906000526020600020906006020160030160009054906101000a900473ffffffffffffffffffffffffffffffffffffffff1673ffffffffffffffffffffffffffffffffffffffff16145b610b14576040517f08c379a0000000000000000000000000000000000000000000000000000000008152600401610b0b90611f91565b60405180910390fd5b600073ffffffffffffffffffffffffffffffffffffffff1660058281548110610b4057610b3f611b09565b5b906000526020600020906006020160020160009054906101000a900473ffffffffffffffffffffffffffffffffffffffff1673ffffffffffffffffffffffffffffffffffffffff1603610bf6573360058281548110610ba257610ba1611b09565b5b906000526020600020906006020160020160006101000a81548173ffffffffffffffffffffffffffffffffffffffff021916908373ffffffffffffffffffffffffffffffffffffffff160217905550610c5b565b3360058281548110610c0b57610c0a611b09565b5b906000526020600020906006020160030160006101000a81548173ffffffffffffffffffffffffffffffffffffffff021916908373ffffffffffffffffffffffffffffffffffffffff1602179055505b3460058281548110610c7057610c6f611b09565b5b90600052602060002090600602016004016000828254610c909190611fb1565b925050819055507f6e5dff57840481c0c5b3c034761443b66d1c4067515620c33653f38fca6f41a4813334604051610cca93929190611fe5565b60405180910390a150565b60015481565b60008054906101000a900473ffffffffffffffffffffffffffffffffffffffff1681565b60008054906101000a900473ffffffffffffffffffffffffffffffffffffffff1673ffffffffffffffffffffffffffffffffffffffff163373ffffffffffffffffffffffffffffffffffffffff1614610d8d576040517f08c379a0000000000000000000000000000000000000000000000000000000008152600401610d8490611ae9565b60405180910390fd5b600260009054906101000a900460ff1615600260006101000a81548160ff021916908315150217905550565b600260009054906101000a900460ff1681565b60008054906101000a900473ffffffffffffffffffffffffffffffffffffffff1673ffffffffffffffffffffffffffffffffffffffff163373ffffffffffffffffffffffffffffffffffffffff1614610e5a576040517f08c379a0000000000000000000000000000000000000000000000000000000008152600401610e5190611ae9565b60405180910390fd5b600260009054906101000a900460ff1615610eaa576040517f08c379a0000000000000000000000000000000000000000000000000000000008152600401610ea190611d76565b60405180910390fd5b610eb261162c565b600154816000018181525050428160200181815250506000816040019073ffffffffffffffffffffffffffffffffffffffff16908173ffffffffffffffffffffffffffffffffffffffff16815250506000816060019073ffffffffffffffffffffffffffffffffffffffff16908173ffffffffffffffffffffffffffffffffffffffff16815250506005819080600181540180825580915050600190039060005260206000209060060201600090919091909150600082015181600001556020820151816001015560408201518160020160006101000a81548173ffffffffffffffffffffffffffffffffffffffff021916908373ffffffffffffffffffffffffffffffffffffffff16021790555060608201518160030160006101000a81548173ffffffffffffffffffffffffffffffffffffffff021916908373ffffffffffffffffffffffffffffffffffffffff1602179055506080820151816004015560a08201518160050160006101000a81548160ff02191690831515021790555060c08201518160050160016101000a81548160ff02191690831515021790555050507f0c82908456d66c43e9de63edd66f9faf875c8f3a12f936e162d675ec42c3544460015460008060405161108a93929190612061565b60405180910390a1600160008154809291906110a590612098565b919050555050565b60035481565b60046020528060005260406000206000915090505481565b600160038111156110df576110de611c10565b5b8360038111156110f2576110f1611c10565b5b036111f25760006064600354606461110a91906119b7565b8661111591906120e0565b61111f9190612151565b9050600060646003548761113391906120e0565b61113d9190612151565b905081600460008673ffffffffffffffffffffffffffffffffffffffff1673ffffffffffffffffffffffffffffffffffffffff168152602001908152602001600020600082825461118e9190611fb1565b9250508190555080600460003073ffffffffffffffffffffffffffffffffffffffff1673ffffffffffffffffffffffffffffffffffffffff16815260200190815260200160002060008282546111e49190611fb1565b925050819055505050611405565b6002600381111561120657611205611c10565b5b83600381111561121957611218611c10565b5b036113195760006064600354606461123191906119b7565b8661123c91906120e0565b6112469190612151565b9050600060646003548761125a91906120e0565b6112649190612151565b905081600460008573ffffffffffffffffffffffffffffffffffffffff1673ffffffffffffffffffffffffffffffffffffffff16815260200190815260200160002060008282546112b59190611fb1565b9250508190555080600460003073ffffffffffffffffffffffffffffffffffffffff1673ffffffffffffffffffffffffffffffffffffffff168152602001908152602001600020600082825461130b9190611fb1565b925050819055505050611404565b60038081111561132c5761132b611c10565b5b83600381111561133f5761133e611c10565b5b036114035760006002856113539190612151565b905080600460008573ffffffffffffffffffffffffffffffffffffffff1673ffffffffffffffffffffffffffffffffffffffff16815260200190815260200160002060008282546113a49190611fb1565b9250508190555080600460008473ffffffffffffffffffffffffffffffffffffffff1673ffffffffffffffffffffffffffffffffffffffff16815260200190815260200160002060008282546113fa9190611fb1565b92505081905550505b5b5b50505050565b60606000600161141a846114d9565b01905060008167ffffffffffffffff81111561143957611438612182565b5b6040519080825280601f01601f19166020018201604052801561146b5781602001600182028036833780820191505090505b509050600082602001820190505b6001156114ce578080600190039150507f3031323334353637383961626364656600000000000000000000000000000000600a86061a8153600a85816114c2576114c1612122565b5b04945060008503611479575b819350505050919050565b600080600090507a184f03e93ff9f4daa797ed6e38ed64bf6a1f0100000000000000008310611537577a184f03e93ff9f4daa797ed6e38ed64bf6a1f010000000000000000838161152d5761152c612122565b5b0492506040810190505b6d04ee2d6d415b85acef81000000008310611574576d04ee2d6d415b85acef8100000000838161156a57611569612122565b5b0492506020810190505b662386f26fc1000083106115a357662386f26fc10000838161159957611598612122565b5b0492506010810190505b6305f5e10083106115cc576305f5e10083816115c2576115c1612122565b5b0492506008810190505b61271083106115f15761271083816115e7576115e6612122565b5b0492506004810190505b60648310611614576064838161160a57611609612122565b5b0492506002810190505b600a8310611623576001810190505b80915050919050565b6040518060e001604052806000815260200160008152602001600073ffffffffffffffffffffffffffffffffffffffff168152602001600073ffffffffffffffffffffffffffffffffffffffff168152602001600081526020016000151581526020016000151581525090565b600080fd5b6000819050919050565b6116b18161169e565b81146116bc57600080fd5b50565b6000813590506116ce816116a8565b92915050565b6000602082840312156116ea576116e9611699565b5b60006116f8848285016116bf565b91505092915050565b61170a8161169e565b82525050565b600073ffffffffffffffffffffffffffffffffffffffff82169050919050565b600061173b82611710565b9050919050565b61174b81611730565b82525050565b60008115159050919050565b61176681611751565b82525050565b600060e082019050611781600083018a611701565b61178e6020830189611701565b61179b6040830188611742565b6117a86060830187611742565b6117b56080830186611701565b6117c260a083018561175d565b6117cf60c083018461175d565b98975050505050505050565b600481106117e857600080fd5b50565b6000813590506117fa816117db565b92915050565b6000806040838503121561181757611816611699565b5b6000611825858286016116bf565b9250506020611836858286016117eb565b9150509250929050565b60006020820190506118556000830184611701565b92915050565b600061186682611710565b9050919050565b6118768161185b565b82525050565b6000602082019050611891600083018461186d565b92915050565b60006020820190506118ac600083018461175d565b92915050565b6118bb81611730565b81146118c657600080fd5b50565b6000813590506118d8816118b2565b92915050565b6000602082840312156118f4576118f3611699565b5b6000611902848285016118c9565b91505092915050565b600082825260208201905092915050565b7f4e6f7420656e6f7567682062616c616e63652e00000000000000000000000000600082015250565b600061195260138361190b565b915061195d8261191c565b602082019050919050565b6000602082019050818103600083015261198181611945565b9050919050565b7f4e487b7100000000000000000000000000000000000000000000000000000000600052601160045260246000fd5b60006119c28261169e565b91506119cd8361169e565b92508282039050818111156119e5576119e4611988565b5b92915050565b600081905092915050565b50565b6000611a066000836119eb565b9150611a11826119f6565b600082019050919050565b6000611a27826119f9565b9150819050919050565b7f4661696c656420746f20636c61696d20726577617264732e0000000000000000600082015250565b6000611a6760188361190b565b9150611a7282611a31565b602082019050919050565b60006020820190508181036000830152611a9681611a5a565b9050919050565b7f4e6f74206f776e65722e00000000000000000000000000000000000000000000600082015250565b6000611ad3600a8361190b565b9150611ade82611a9d565b602082019050919050565b60006020820190508181036000830152611b0281611ac6565b9050919050565b7f4e487b7100000000000000000000000000000000000000000000000000000000600052603260045260246000fd5b7f47616d65206e6f7420737461727465642e000000000000000000000000000000600082015250565b6000611b6e60118361190b565b9150611b7982611b38565b602082019050919050565b60006020820190508181036000830152611b9d81611b61565b9050919050565b7f47616d6520616c72656164792066696e69736865642e00000000000000000000600082015250565b6000611bda60168361190b565b9150611be582611ba4565b602082019050919050565b60006020820190508181036000830152611c0981611bcd565b9050919050565b7f4e487b7100000000000000000000000000000000000000000000000000000000600052602160045260246000fd5b60048110611c5057611c4f611c10565b5b50565b6000819050611c6182611c3f565b919050565b6000611c7182611c53565b9050919050565b611c8181611c66565b82525050565b6000606082019050611c9c6000830186611701565b611ca96020830185611c78565b611cb66040830184611701565b949350505050565b7f4661696c656420746f2077697468647261772e00000000000000000000000000600082015250565b6000611cf460138361190b565b9150611cff82611cbe565b602082019050919050565b60006020820190508181036000830152611d2381611ce7565b9050919050565b7f47616d657320617265207061757365642e000000000000000000000000000000600082015250565b6000611d6060118361190b565b9150611d6b82611d2a565b602082019050919050565b60006020820190508181036000830152611d8f81611d53565b9050919050565b600081905092915050565b7f496e73756666696369656e742066756e64732e2053656e743a20000000000000600082015250565b6000611dd7601a83611d96565b9150611de282611da1565b601a82019050919050565b600081519050919050565b60005b83811015611e16578082015181840152602081019050611dfb565b60008484015250505050565b6000611e2d82611ded565b611e378185611d96565b9350611e47818560208601611df8565b80840191505092915050565b7f2045787065637465643a20000000000000000000000000000000000000000000600082015250565b6000611e89600b83611d96565b9150611e9482611e53565b600b82019050919050565b6000611eaa82611dca565b9150611eb68285611e22565b9150611ec182611e7c565b9150611ecd8284611e22565b91508190509392505050565b6000601f19601f8301169050919050565b6000611ef582611ded565b611eff818561190b565b9350611f0f818560208601611df8565b611f1881611ed9565b840191505092915050565b60006020820190508181036000830152611f3d8184611eea565b905092915050565b7f47616d6520616c72656164792066756c6c2e0000000000000000000000000000600082015250565b6000611f7b60128361190b565b9150611f8682611f45565b602082019050919050565b60006020820190508181036000830152611faa81611f6e565b9050919050565b6000611fbc8261169e565b9150611fc78361169e565b9250828201905080821115611fdf57611fde611988565b5b92915050565b6000606082019050611ffa6000830186611701565b6120076020830185611742565b6120146040830184611701565b949350505050565b6000819050919050565b6000819050919050565b600061204b6120466120418461201c565b612026565b61169e565b9050919050565b61205b81612030565b82525050565b60006060820190506120766000830186611701565b6120836020830185611742565b6120906040830184612052565b949350505050565b60006120a38261169e565b91507fffffffffffffffffffffffffffffffffffffffffffffffffffffffffffffffff82036120d5576120d4611988565b5b600182019050919050565b60006120eb8261169e565b91506120f68361169e565b92508282026121048161169e565b9150828204841483151761211b5761211a611988565b5b5092915050565b7f4e487b7100000000000000000000000000000000000000000000000000000000600052601260045260246000fd5b600061215c8261169e565b91506121678361169e565b92508261217757612176612122565b5b828204905092915050565b7f4e487b7100000000000000000000000000000000000000000000000000000000600052604160045260246000fdfea264697066735822122028a3f93e4fed38a62853c97335b0f8c5cdf929c783cf2ee53af3ff937d1c526264736f6c63430008180033",
  "linkReferences": {},
  "deployedLinkReferences": {}
}