{
  "_format": "hh-sol-artifact-1",
  "contractName": "ChessGame",
  "sourceName": "contracts/Game.sol",
  "abi": [
    {
      "inputs": [
        {
          "internalType": "uint256",
          "name": "_commission",
          "type": "uint256"
        },
        {
          "internalType": "uint256",
          "name": "_MINIMUM_ENTRY_FEE",
          "type": "uint256"
        }
      ],
      "stateMutability": "payable",
      "type": "constructor"
    },
    {
      "anonymous": false,
      "inputs": [
        {
          "indexed": false,
          "internalType": "uint256",
          "name": "gameId",
          "type": "uint256"
        },
        {
          "indexed": false,
          "internalType": "enum ChessGame.Winner",
          "name": "winner",
          "type": "uint8"
        },
        {
          "indexed": false,
          "internalType": "uint256",
          "name": "reward",
          "type": "uint256"
        }
      ],
      "name": "GameFinished",
      "type": "event"
    },
    {
      "anonymous": false,
      "inputs": [
        {
          "indexed": false,
          "internalType": "uint256",
          "name": "gameId",
          "type": "uint256"
        },
        {
          "indexed": false,
          "internalType": "address",
          "name": "playerOne",
          "type": "address"
        },
        {
          "indexed": false,
          "internalType": "uint256",
          "name": "entryFee",
          "type": "uint256"
        }
      ],
      "name": "GameStarted",
      "type": "event"
    },
    {
      "anonymous": false,
      "inputs": [
        {
          "indexed": false,
          "internalType": "uint256",
          "name": "gameId",
          "type": "uint256"
        },
        {
          "indexed": false,
          "internalType": "address",
          "name": "playerTwo",
          "type": "address"
        }
      ],
      "name": "JoinedGame",
      "type": "event"
    },
    {
      "inputs": [
        {
          "internalType": "address",
          "name": "",
          "type": "address"
        }
      ],
      "name": "balance",
      "outputs": [
        {
          "internalType": "uint256",
          "name": "",
          "type": "uint256"
        }
      ],
      "stateMutability": "view",
      "type": "function"
    },
    {
      "inputs": [
        {
          "internalType": "uint256",
          "name": "_amount",
          "type": "uint256"
        }
      ],
      "name": "claimRewards",
      "outputs": [],
      "stateMutability": "payable",
      "type": "function"
    },
    {
      "inputs": [],
      "name": "commission",
      "outputs": [
        {
          "internalType": "uint256",
          "name": "",
          "type": "uint256"
        }
      ],
      "stateMutability": "view",
      "type": "function"
    },
    {
      "inputs": [],
      "name": "countGame",
      "outputs": [
        {
          "internalType": "uint256",
          "name": "",
          "type": "uint256"
        }
      ],
      "stateMutability": "view",
      "type": "function"
    },
    {
      "inputs": [
        {
          "internalType": "uint256",
          "name": "_gameId",
          "type": "uint256"
        },
        {
          "internalType": "enum ChessGame.Winner",
          "name": "_winner",
          "type": "uint8"
        }
      ],
      "name": "finishGame",
      "outputs": [],
      "stateMutability": "nonpayable",
      "type": "function"
    },
    {
      "inputs": [
        {
          "internalType": "uint256",
          "name": "",
          "type": "uint256"
        }
      ],
      "name": "games",
      "outputs": [
        {
          "internalType": "uint256",
          "name": "gameId",
          "type": "uint256"
        },
        {
          "internalType": "uint256",
          "name": "creatingTime",
          "type": "uint256"
        },
        {
          "internalType": "address",
          "name": "playerOne",
          "type": "address"
        },
        {
          "internalType": "address",
          "name": "playerTwo",
          "type": "address"
        },
        {
          "internalType": "uint256",
          "name": "rewardPool",
          "type": "uint256"
        },
        {
          "internalType": "bool",
          "name": "isStarted",
          "type": "bool"
        },
        {
          "internalType": "bool",
          "name": "isFinished",
          "type": "bool"
        }
      ],
      "stateMutability": "view",
      "type": "function"
    },
    {
      "inputs": [
        {
          "internalType": "uint256",
          "name": "_gameId",
          "type": "uint256"
        }
      ],
      "name": "joinGame",
      "outputs": [],
      "stateMutability": "payable",
      "type": "function"
    },
    {
      "inputs": [],
      "name": "owner",
      "outputs": [
        {
          "internalType": "address payable",
          "name": "",
          "type": "address"
        }
      ],
      "stateMutability": "view",
      "type": "function"
    },
    {
      "inputs": [],
      "name": "pausedAllGames",
      "outputs": [
        {
          "internalType": "bool",
          "name": "",
          "type": "bool"
        }
      ],
      "stateMutability": "view",
      "type": "function"
    },
    {
      "inputs": [],
      "name": "startGame",
      "outputs": [],
      "stateMutability": "payable",
      "type": "function"
    },
    {
      "inputs": [],
      "name": "toggleContract",
      "outputs": [],
      "stateMutability": "nonpayable",
      "type": "function"
    },
    {
      "inputs": [
        {
          "internalType": "uint256",
          "name": "_amount",
          "type": "uint256"
        }
      ],
      "name": "withdraw",
      "outputs": [],
      "stateMutability": "payable",
      "type": "function"
    }
  ],
  "bytecode": "0x60a060405260018055604051620023f9380380620023f983398181016040528101906200002d9190620002e3565b6032821062000073576040517f08c379a00000000000000000000000000000000000000000000000000000000081526004016200006a906200038b565b60405180910390fd5b6064811015620000ba576040517f08c379a0000000000000000000000000000000000000000000000000000000008152600401620000b190620003fd565b60405180910390fd5b336000806101000a81548173ffffffffffffffffffffffffffffffffffffffff021916908373ffffffffffffffffffffffffffffffffffffffff1602179055508160038190555080608081815250506200011362000236565b6005819080600181540180825580915050600190039060005260206000209060060201600090919091909150600082015181600001556020820151816001015560408201518160020160006101000a81548173ffffffffffffffffffffffffffffffffffffffff021916908373ffffffffffffffffffffffffffffffffffffffff16021790555060608201518160030160006101000a81548173ffffffffffffffffffffffffffffffffffffffff021916908373ffffffffffffffffffffffffffffffffffffffff1602179055506080820151816004015560a08201518160050160006101000a81548160ff02191690831515021790555060c08201518160050160016101000a81548160ff02191690831515021790555050505050506200041f565b6040518060e001604052806000815260200160008152602001600073ffffffffffffffffffffffffffffffffffffffff168152602001600073ffffffffffffffffffffffffffffffffffffffff168152602001600081526020016000151581526020016000151581525090565b600080fd5b6000819050919050565b620002bd81620002a8565b8114620002c957600080fd5b50565b600081519050620002dd81620002b2565b92915050565b60008060408385031215620002fd57620002fc620002a3565b5b60006200030d85828601620002cc565b92505060206200032085828601620002cc565b9150509250929050565b600082825260208201905092915050565b7f436f6d6d697373696f6e2073686f756c64206265203c2035302e000000000000600082015250565b600062000373601a836200032a565b915062000380826200033b565b602082019050919050565b60006020820190508181036000830152620003a68162000364565b9050919050565b7f4d696e206665652073686f756c64206265203e3d203130300000000000000000600082015250565b6000620003e56018836200032a565b9150620003f282620003ad565b602082019050919050565b600060208201905081810360008301526200041881620003d6565b9050919050565b608051611fbe6200043b6000396000610a180152611fbe6000f3fe6080604052600436106100a75760003560e01c80639df90028116100645780639df90028146101a6578063d0232c70146101bd578063d65ab5f2146101e8578063e1489191146101f2578063e3d670d71461021d578063efaa55a01461025a576100a7565b80630962ef79146100ac578063117a5b90146100c85780632d4e8c461461010b5780632e1a7d4d146101345780633bb6c5f4146101505780638da5cb5b1461017b575b600080fd5b6100c660048036038101906100c1919061152c565b610276565b005b3480156100d457600080fd5b506100ef60048036038101906100ea919061152c565b6103fe565b60405161010297969594939291906115c4565b60405180910390f35b34801561011757600080fd5b50610132600480360381019061012d9190611658565b6104aa565b005b61014e6004803603810190610149919061152c565b6106b9565b005b34801561015c57600080fd5b506101656108cf565b6040516101729190611698565b60405180910390f35b34801561018757600080fd5b506101906108d5565b60405161019d91906116d4565b60405180910390f35b3480156101b257600080fd5b506101bb6108f9565b005b3480156101c957600080fd5b506101d26109b3565b6040516101df91906116ef565b60405180910390f35b6101f06109c6565b005b3480156101fe57600080fd5b50610207610c4a565b6040516102149190611698565b60405180910390f35b34801561022957600080fd5b50610244600480360381019061023f9190611736565b610c50565b6040516102519190611698565b60405180910390f35b610274600480360381019061026f919061152c565b610c68565b005b80600460003373ffffffffffffffffffffffffffffffffffffffff1673ffffffffffffffffffffffffffffffffffffffff1681526020019081526020016000205410156102f8576040517f08c379a00000000000000000000000000000000000000000000000000000000081526004016102ef906117c0565b60405180910390fd5b80600460003373ffffffffffffffffffffffffffffffffffffffff1673ffffffffffffffffffffffffffffffffffffffff1681526020019081526020016000206000828254610347919061180f565b9250508190555060003373ffffffffffffffffffffffffffffffffffffffff168260405161037490611874565b60006040518083038185875af1925050503d80600081146103b1576040519150601f19603f3d011682016040523d82523d6000602084013e6103b6565b606091505b50509050806103fa576040517f08c379a00000000000000000000000000000000000000000000000000000000081526004016103f1906118d5565b60405180910390fd5b5050565b6005818154811061040e57600080fd5b90600052602060002090600602016000915090508060000154908060010154908060020160009054906101000a900473ffffffffffffffffffffffffffffffffffffffff16908060030160009054906101000a900473ffffffffffffffffffffffffffffffffffffffff16908060040154908060050160009054906101000a900460ff16908060050160019054906101000a900460ff16905087565b60008054906101000a900473ffffffffffffffffffffffffffffffffffffffff1673ffffffffffffffffffffffffffffffffffffffff163373ffffffffffffffffffffffffffffffffffffffff1614610538576040517f08c379a000000000000000000000000000000000000000000000000000000000815260040161052f90611941565b60405180910390fd5b60006005838154811061054e5761054d611961565b5b906000526020600020906006020190508060050160009054906101000a900460ff166105af576040517f08c379a00000000000000000000000000000000000000000000000000000000081526004016105a6906119dc565b60405180910390fd5b8060050160019054906101000a900460ff1615610601576040517f08c379a00000000000000000000000000000000000000000000000000000000081526004016105f890611a48565b60405180910390fd5b60018160050160016101000a81548160ff0219169083151502179055507e21feea4608e6756f982d5bd71c09645176b4865cf6bd600fcc4aa990f024048383836004015460405161065493929190611adf565b60405180910390a16106b48160040154838360020160009054906101000a900473ffffffffffffffffffffffffffffffffffffffff168460030160009054906101000a900473ffffffffffffffffffffffffffffffffffffffff16611144565b505050565b60008054906101000a900473ffffffffffffffffffffffffffffffffffffffff1673ffffffffffffffffffffffffffffffffffffffff163373ffffffffffffffffffffffffffffffffffffffff1614610747576040517f08c379a000000000000000000000000000000000000000000000000000000000815260040161073e90611941565b60405180910390fd5b80600460003073ffffffffffffffffffffffffffffffffffffffff1673ffffffffffffffffffffffffffffffffffffffff1681526020019081526020016000205410156107c9576040517f08c379a00000000000000000000000000000000000000000000000000000000081526004016107c0906117c0565b60405180910390fd5b80600460003073ffffffffffffffffffffffffffffffffffffffff1673ffffffffffffffffffffffffffffffffffffffff1681526020019081526020016000206000828254610818919061180f565b9250508190555060003373ffffffffffffffffffffffffffffffffffffffff168260405161084590611874565b60006040518083038185875af1925050503d8060008114610882576040519150601f19603f3d011682016040523d82523d6000602084013e610887565b606091505b50509050806108cb576040517f08c379a00000000000000000000000000000000000000000000000000000000081526004016108c290611b62565b60405180910390fd5b5050565b60015481565b60008054906101000a900473ffffffffffffffffffffffffffffffffffffffff1681565b60008054906101000a900473ffffffffffffffffffffffffffffffffffffffff1673ffffffffffffffffffffffffffffffffffffffff163373ffffffffffffffffffffffffffffffffffffffff1614610987576040517f08c379a000000000000000000000000000000000000000000000000000000000815260040161097e90611941565b60405180910390fd5b600260009054906101000a900460ff1615600260006101000a81548160ff021916908315150217905550565b600260009054906101000a900460ff1681565b600260009054906101000a900460ff1615610a16576040517f08c379a0000000000000000000000000000000000000000000000000000000008152600401610a0d90611bce565b60405180910390fd5b7f00000000000000000000000000000000000000000000000000000000000000003411610a78576040517f08c379a0000000000000000000000000000000000000000000000000000000008152600401610a6f90611c3a565b60405180910390fd5b610a80611484565b60015481600001818152505033816040019073ffffffffffffffffffffffffffffffffffffffff16908173ffffffffffffffffffffffffffffffffffffffff168152505042816020018181525050348160800181815250506005819080600181540180825580915050600190039060005260206000209060060201600090919091909150600082015181600001556020820151816001015560408201518160020160006101000a81548173ffffffffffffffffffffffffffffffffffffffff021916908373ffffffffffffffffffffffffffffffffffffffff16021790555060608201518160030160006101000a81548173ffffffffffffffffffffffffffffffffffffffff021916908373ffffffffffffffffffffffffffffffffffffffff1602179055506080820151816004015560a08201518160050160006101000a81548160ff02191690831515021790555060c08201518160050160016101000a81548160ff02191690831515021790555050507f0c82908456d66c43e9de63edd66f9faf875c8f3a12f936e162d675ec42c354446001543334604051610c2793929190611c5a565b60405180910390a160016000815480929190610c4290611c91565b919050555050565b60035481565b60046020528060005260406000206000915090505481565b600260009054906101000a900460ff1615610cb8576040517f08c379a0000000000000000000000000000000000000000000000000000000008152600401610caf90611bce565b60405180910390fd5b600060058281548110610cce57610ccd611961565b5b90600052602060002090600602016040518060e001604052908160008201548152602001600182015481526020016002820160009054906101000a900473ffffffffffffffffffffffffffffffffffffffff1673ffffffffffffffffffffffffffffffffffffffff1673ffffffffffffffffffffffffffffffffffffffff1681526020016003820160009054906101000a900473ffffffffffffffffffffffffffffffffffffffff1673ffffffffffffffffffffffffffffffffffffffff1673ffffffffffffffffffffffffffffffffffffffff168152602001600482015481526020016005820160009054906101000a900460ff161515151581526020016005820160019054906101000a900460ff161515151581525050905080608001513414610e2f576040517f08c379a0000000000000000000000000000000000000000000000000000000008152600401610e2690611d25565b60405180910390fd5b8060a0015115610e74576040517f08c379a0000000000000000000000000000000000000000000000000000000008152600401610e6b90611d91565b60405180910390fd5b3373ffffffffffffffffffffffffffffffffffffffff16816040015173ffffffffffffffffffffffffffffffffffffffff1603610ee6576040517f08c379a0000000000000000000000000000000000000000000000000000000008152600401610edd90611dfd565b60405180910390fd5b60003073ffffffffffffffffffffffffffffffffffffffff1634604051610f0c90611874565b60006040518083038185875af1925050503d8060008114610f49576040519150601f19603f3d011682016040523d82523d6000602084013e610f4e565b606091505b5050905080610f92576040517f08c379a0000000000000000000000000000000000000000000000000000000008152600401610f8990611e69565b60405180910390fd5b33826060019073ffffffffffffffffffffffffffffffffffffffff16908173ffffffffffffffffffffffffffffffffffffffff16815250503482608001818151610fdc9190611e89565b9150818152505060018260a0019015159081151581525050816005848154811061100957611008611961565b5b9060005260206000209060060201600082015181600001556020820151816001015560408201518160020160006101000a81548173ffffffffffffffffffffffffffffffffffffffff021916908373ffffffffffffffffffffffffffffffffffffffff16021790555060608201518160030160006101000a81548173ffffffffffffffffffffffffffffffffffffffff021916908373ffffffffffffffffffffffffffffffffffffffff1602179055506080820151816004015560a08201518160050160006101000a81548160ff02191690831515021790555060c08201518160050160016101000a81548160ff0219169083151502179055509050507f1f8563b32a0bf618f00d2cbcb52b004d5757561ee12274f8c1d85b6f44fa551a8333604051611137929190611ebd565b60405180910390a1505050565b6001600381111561115857611157611a68565b5b83600381111561116b5761116a611a68565b5b0361126b57600060646003546064611183919061180f565b8661118e9190611ee6565b6111989190611f57565b905060006064600354876111ac9190611ee6565b6111b69190611f57565b905081600460008673ffffffffffffffffffffffffffffffffffffffff1673ffffffffffffffffffffffffffffffffffffffff16815260200190815260200160002060008282546112079190611e89565b9250508190555080600460003073ffffffffffffffffffffffffffffffffffffffff1673ffffffffffffffffffffffffffffffffffffffff168152602001908152602001600020600082825461125d9190611e89565b92505081905550505061147e565b6002600381111561127f5761127e611a68565b5b83600381111561129257611291611a68565b5b03611392576000606460035460646112aa919061180f565b866112b59190611ee6565b6112bf9190611f57565b905060006064600354876112d39190611ee6565b6112dd9190611f57565b905081600460008573ffffffffffffffffffffffffffffffffffffffff1673ffffffffffffffffffffffffffffffffffffffff168152602001908152602001600020600082825461132e9190611e89565b9250508190555080600460003073ffffffffffffffffffffffffffffffffffffffff1673ffffffffffffffffffffffffffffffffffffffff16815260200190815260200160002060008282546113849190611e89565b92505081905550505061147d565b6003808111156113a5576113a4611a68565b5b8360038111156113b8576113b7611a68565b5b0361147c5760006002856113cc9190611f57565b905080600460008573ffffffffffffffffffffffffffffffffffffffff1673ffffffffffffffffffffffffffffffffffffffff168152602001908152602001600020600082825461141d9190611e89565b9250508190555080600460008473ffffffffffffffffffffffffffffffffffffffff1673ffffffffffffffffffffffffffffffffffffffff16815260200190815260200160002060008282546114739190611e89565b92505081905550505b5b5b50505050565b6040518060e001604052806000815260200160008152602001600073ffffffffffffffffffffffffffffffffffffffff168152602001600073ffffffffffffffffffffffffffffffffffffffff168152602001600081526020016000151581526020016000151581525090565b600080fd5b6000819050919050565b611509816114f6565b811461151457600080fd5b50565b60008135905061152681611500565b92915050565b600060208284031215611542576115416114f1565b5b600061155084828501611517565b91505092915050565b611562816114f6565b82525050565b600073ffffffffffffffffffffffffffffffffffffffff82169050919050565b600061159382611568565b9050919050565b6115a381611588565b82525050565b60008115159050919050565b6115be816115a9565b82525050565b600060e0820190506115d9600083018a611559565b6115e66020830189611559565b6115f3604083018861159a565b611600606083018761159a565b61160d6080830186611559565b61161a60a08301856115b5565b61162760c08301846115b5565b98975050505050505050565b6004811061164057600080fd5b50565b60008135905061165281611633565b92915050565b6000806040838503121561166f5761166e6114f1565b5b600061167d85828601611517565b925050602061168e85828601611643565b9150509250929050565b60006020820190506116ad6000830184611559565b92915050565b60006116be82611568565b9050919050565b6116ce816116b3565b82525050565b60006020820190506116e960008301846116c5565b92915050565b600060208201905061170460008301846115b5565b92915050565b61171381611588565b811461171e57600080fd5b50565b6000813590506117308161170a565b92915050565b60006020828403121561174c5761174b6114f1565b5b600061175a84828501611721565b91505092915050565b600082825260208201905092915050565b7f4e6f7420656e6f7567682062616c616e63652e00000000000000000000000000600082015250565b60006117aa601383611763565b91506117b582611774565b602082019050919050565b600060208201905081810360008301526117d98161179d565b9050919050565b7f4e487b7100000000000000000000000000000000000000000000000000000000600052601160045260246000fd5b600061181a826114f6565b9150611825836114f6565b925082820390508181111561183d5761183c6117e0565b5b92915050565b600081905092915050565b50565b600061185e600083611843565b91506118698261184e565b600082019050919050565b600061187f82611851565b9150819050919050565b7f4661696c656420746f20636c61696d20726577617264732e0000000000000000600082015250565b60006118bf601883611763565b91506118ca82611889565b602082019050919050565b600060208201905081810360008301526118ee816118b2565b9050919050565b7f4e6f74206f776e65722e00000000000000000000000000000000000000000000600082015250565b600061192b600a83611763565b9150611936826118f5565b602082019050919050565b6000602082019050818103600083015261195a8161191e565b9050919050565b7f4e487b7100000000000000000000000000000000000000000000000000000000600052603260045260246000fd5b7f47616d65206e6f7420737461727465642e000000000000000000000000000000600082015250565b60006119c6601183611763565b91506119d182611990565b602082019050919050565b600060208201905081810360008301526119f5816119b9565b9050919050565b7f47616d6520616c72656164792066696e69736865642e00000000000000000000600082015250565b6000611a32601683611763565b9150611a3d826119fc565b602082019050919050565b60006020820190508181036000830152611a6181611a25565b9050919050565b7f4e487b7100000000000000000000000000000000000000000000000000000000600052602160045260246000fd5b60048110611aa857611aa7611a68565b5b50565b6000819050611ab982611a97565b919050565b6000611ac982611aab565b9050919050565b611ad981611abe565b82525050565b6000606082019050611af46000830186611559565b611b016020830185611ad0565b611b0e6040830184611559565b949350505050565b7f4661696c656420746f2077697468647261772e00000000000000000000000000600082015250565b6000611b4c601383611763565b9150611b5782611b16565b602082019050919050565b60006020820190508181036000830152611b7b81611b3f565b9050919050565b7f47616d657320617265207061757365642e000000000000000000000000000000600082015250565b6000611bb8601183611763565b9150611bc382611b82565b602082019050919050565b60006020820190508181036000830152611be781611bab565b9050919050565b7f53657420666565206869676865722e0000000000000000000000000000000000600082015250565b6000611c24600f83611763565b9150611c2f82611bee565b602082019050919050565b60006020820190508181036000830152611c5381611c17565b9050919050565b6000606082019050611c6f6000830186611559565b611c7c602083018561159a565b611c896040830184611559565b949350505050565b6000611c9c826114f6565b91507fffffffffffffffffffffffffffffffffffffffffffffffffffffffffffffffff8203611cce57611ccd6117e0565b5b600182019050919050565b7f57726f6e6720656e747279206665652e00000000000000000000000000000000600082015250565b6000611d0f601083611763565b9150611d1a82611cd9565b602082019050919050565b60006020820190508181036000830152611d3e81611d02565b9050919050565b7f416c726561647920737461727465642e00000000000000000000000000000000600082015250565b6000611d7b601083611763565b9150611d8682611d45565b602082019050919050565b60006020820190508181036000830152611daa81611d6e565b9050919050565b7f596f752061726520503120616c736f2e00000000000000000000000000000000600082015250565b6000611de7601083611763565b9150611df282611db1565b602082019050919050565b60006020820190508181036000830152611e1681611dda565b9050919050565b7f4661696c656420746f2073656e64204574686572000000000000000000000000600082015250565b6000611e53601483611763565b9150611e5e82611e1d565b602082019050919050565b60006020820190508181036000830152611e8281611e46565b9050919050565b6000611e94826114f6565b9150611e9f836114f6565b9250828201905080821115611eb757611eb66117e0565b5b92915050565b6000604082019050611ed26000830185611559565b611edf602083018461159a565b9392505050565b6000611ef1826114f6565b9150611efc836114f6565b9250828202611f0a816114f6565b91508282048414831517611f2157611f206117e0565b5b5092915050565b7f4e487b7100000000000000000000000000000000000000000000000000000000600052601260045260246000fd5b6000611f62826114f6565b9150611f6d836114f6565b925082611f7d57611f7c611f28565b5b82820490509291505056fea26469706673582212209218891e013f1d478101202778dff94929184dc251550c97b93fff41f95f02f364736f6c63430008180033",
  "linkReferences": {},
  "deployedLinkReferences": {}
}