{
  "_format": "hh-sol-artifact-1",
  "contractName": "ChessFactory",
  "sourceName": "contracts/ChessFactory.sol",
  "abi": [
    {
      "anonymous": false,
      "inputs": [
        {
          "indexed": false,
          "internalType": "address",
          "name": "game",
          "type": "address"
        },
        {
          "indexed": false,
          "internalType": "address",
          "name": "creator",
          "type": "address"
        }
      ],
      "name": "GameCreated",
      "type": "event"
    },
    {
      "inputs": [
        {
          "internalType": "uint256",
          "name": "entryFee",
          "type": "uint256"
        },
        {
          "internalType": "uint256",
          "name": "commission",
          "type": "uint256"
        }
      ],
      "name": "createGame",
      "outputs": [],
      "stateMutability": "nonpayable",
      "type": "function"
    }
  ],
  "bytecode": "0x608060405234801561001057600080fd5b5061236e806100206000396000f3fe608060405234801561001057600080fd5b506004361061002b5760003560e01c806360104cef14610030575b600080fd5b61004a6004803603810190610045919061010e565b61004c565b005b600033838360405161005d906100c6565b6100699392919061019e565b604051809103906000f080158015610085573d6000803e3d6000fd5b5090507fb60d84e37a6658effce28870b1d123cb86f86409df5888679310c0f276e1f5d281336040516100b99291906101f6565b60405180910390a1505050565b6121198061022083390190565b600080fd5b6000819050919050565b6100eb816100d8565b81146100f657600080fd5b50565b600081359050610108816100e2565b92915050565b60008060408385031215610125576101246100d3565b5b6000610133858286016100f9565b9250506020610144858286016100f9565b9150509250929050565b600073ffffffffffffffffffffffffffffffffffffffff82169050919050565b60006101798261014e565b9050919050565b6101898161016e565b82525050565b610198816100d8565b82525050565b60006060820190506101b36000830186610180565b6101c0602083018561018f565b6101cd604083018461018f565b949350505050565b60006101e08261014e565b9050919050565b6101f0816101d5565b82525050565b600060408201905061020b60008301856101e7565b61021860208301846101e7565b939250505056fe60806040526040516200211938038062002119833981810160405281019062000029919062000223565b600073ffffffffffffffffffffffffffffffffffffffff168373ffffffffffffffffffffffffffffffffffffffff16036200009b576040517f08c379a0000000000000000000000000000000000000000000000000000000008152600401620000929062000306565b60405180910390fd5b60008211620000e1576040517f08c379a0000000000000000000000000000000000000000000000000000000008152600401620000d8906200039e565b60405180910390fd5b6064811062000127576040517f08c379a00000000000000000000000000000000000000000000000000000000081526004016200011e9062000436565b60405180910390fd5b826000806101000a81548173ffffffffffffffffffffffffffffffffffffffff021916908373ffffffffffffffffffffffffffffffffffffffff160217905550816003819055508060048190555050505062000458565b600080fd5b600073ffffffffffffffffffffffffffffffffffffffff82169050919050565b6000620001b08262000183565b9050919050565b620001c281620001a3565b8114620001ce57600080fd5b50565b600081519050620001e281620001b7565b92915050565b6000819050919050565b620001fd81620001e8565b81146200020957600080fd5b50565b6000815190506200021d81620001f2565b92915050565b6000806000606084860312156200023f576200023e6200017e565b5b60006200024f86828701620001d1565b935050602062000262868287016200020c565b925050604062000275868287016200020c565b9150509250925092565b600082825260208201905092915050565b7f43726561746f7220616464726573732063616e6e6f74206265207a65726f206160008201527f6464726573730000000000000000000000000000000000000000000000000000602082015250565b6000620002ee6026836200027f565b9150620002fb8262000290565b604082019050919050565b600060208201905081810360008301526200032181620002df565b9050919050565b7f456e74727920666565206d7573742062652067726561746572207468616e207a60008201527f65726f2e00000000000000000000000000000000000000000000000000000000602082015250565b6000620003866024836200027f565b9150620003938262000328565b604082019050919050565b60006020820190508181036000830152620003b98162000377565b9050919050565b7f436f6d6d697373696f6e206d757374206265206c657373207468616e2031303060008201527f2e00000000000000000000000000000000000000000000000000000000000000602082015250565b60006200041e6021836200027f565b91506200042b82620003c0565b604082019050919050565b6000602082019050818103600083015262000451816200040f565b9050919050565b611cb180620004686000396000f3fe6080604052600436106100f75760003560e01c8063cc42e83a1161008a578063dfbf53ae11610059578063dfbf53ae146103b3578063e1489191146103de578063e586a4f014610409578063e9652a1914610434576101f5565b8063cc42e83a14610350578063d30895e414610367578063d4f77b1c14610392578063d84c1ac91461039c576101f5565b806359a5f12d116100c657806359a5f12d14610292578063877f4e12146102bd578063893d20e8146102fa578063bef4876b14610325576101f5565b806302d05d3f146101fa578063072ea61c146102255780631f2698ab146102505780633e25e8371461027b576101f5565b366101f557600560009054906101000a900460ff161580156101265750600560019054906101000a900460ff16155b610165576040517f08c379a000000000000000000000000000000000000000000000000000000000815260040161015c906112d1565b60405180910390fd5b60008054906101000a900473ffffffffffffffffffffffffffffffffffffffff1673ffffffffffffffffffffffffffffffffffffffff163373ffffffffffffffffffffffffffffffffffffffff16146101f3576040517f08c379a00000000000000000000000000000000000000000000000000000000081526004016101ea90611363565b60405180910390fd5b005b600080fd5b34801561020657600080fd5b5061020f61045d565b60405161021c91906113c4565b60405180910390f35b34801561023157600080fd5b5061023a610481565b60405161024791906113f8565b60405180910390f35b34801561025c57600080fd5b50610265610487565b604051610272919061142e565b60405180910390f35b34801561028757600080fd5b5061029061049a565b005b34801561029e57600080fd5b506102a7610648565b6040516102b491906113c4565b60405180910390f35b3480156102c957600080fd5b506102e460048036038101906102df919061148c565b61066e565b6040516102f1919061142e565b60405180910390f35b34801561030657600080fd5b5061030f61068e565b60405161031c91906114c8565b60405180910390f35b34801561033157600080fd5b5061033a6106b7565b604051610347919061142e565b60405180910390f35b34801561035c57600080fd5b506103656106ca565b005b34801561037357600080fd5b5061037c61085d565b60405161038991906113c4565b60405180910390f35b61039a610883565b005b3480156103a857600080fd5b506103b1610cd2565b005b3480156103bf57600080fd5b506103c8610fdb565b6040516103d591906114c8565b60405180910390f35b3480156103ea57600080fd5b506103f3611001565b60405161040091906113f8565b60405180910390f35b34801561041557600080fd5b5061041e611007565b60405161042b91906113f8565b60405180910390f35b34801561044057600080fd5b5061045b6004803603810190610456919061148c565b611011565b005b60008054906101000a900473ffffffffffffffffffffffffffffffffffffffff1681565b60035481565b600560009054906101000a900460ff1681565b600560019054906101000a900460ff166104e9576040517f08c379a00000000000000000000000000000000000000000000000000000000081526004016104e09061152f565b60405180910390fd5b60008054906101000a900473ffffffffffffffffffffffffffffffffffffffff1673ffffffffffffffffffffffffffffffffffffffff163373ffffffffffffffffffffffffffffffffffffffff1614610577576040517f08c379a000000000000000000000000000000000000000000000000000000000815260040161056e906115c1565b60405180910390fd5b6000479050600060646004548361058e9190611610565b6105989190611681565b9050600081116105dd576040517f08c379a00000000000000000000000000000000000000000000000000000000081526004016105d4906116fe565b60405180910390fd5b60008054906101000a900473ffffffffffffffffffffffffffffffffffffffff1673ffffffffffffffffffffffffffffffffffffffff166108fc829081150290604051600060405180830381858888f19350505050158015610643573d6000803e3d6000fd5b505050565b600260009054906101000a900473ffffffffffffffffffffffffffffffffffffffff1681565b60066020528060005260406000206000915054906101000a900460ff1681565b60008060009054906101000a900473ffffffffffffffffffffffffffffffffffffffff16905090565b600560019054906101000a900460ff1681565b600560019054906101000a900460ff16610719576040517f08c379a00000000000000000000000000000000000000000000000000000000081526004016107109061152f565b60405180910390fd5b600560029054906101000a900473ffffffffffffffffffffffffffffffffffffffff1673ffffffffffffffffffffffffffffffffffffffff163373ffffffffffffffffffffffffffffffffffffffff16146107a9576040517f08c379a00000000000000000000000000000000000000000000000000000000081526004016107a090611790565b60405180910390fd5b6000479050600081116107f1576040517f08c379a00000000000000000000000000000000000000000000000000000000081526004016107e8906117fc565b60405180910390fd5b600560029054906101000a900473ffffffffffffffffffffffffffffffffffffffff1673ffffffffffffffffffffffffffffffffffffffff166108fc829081150290604051600060405180830381858888f19350505050158015610859573d6000803e3d6000fd5b5050565b600160009054906101000a900473ffffffffffffffffffffffffffffffffffffffff1681565b600560009054906101000a900460ff161580156108ad5750600560019054906101000a900460ff16155b6108ec576040517f08c379a00000000000000000000000000000000000000000000000000000000081526004016108e3906112d1565b60405180910390fd5b60035434146003546040516020016109049190611894565b60405160208183030381529060405290610954576040517f08c379a000000000000000000000000000000000000000000000000000000000815260040161094b9190611939565b60405180910390fd5b50600660003373ffffffffffffffffffffffffffffffffffffffff1673ffffffffffffffffffffffffffffffffffffffff16815260200190815260200160002060009054906101000a900460ff16156109e2576040517f08c379a00000000000000000000000000000000000000000000000000000000081526004016109d9906119cd565b60405180910390fd5b600073ffffffffffffffffffffffffffffffffffffffff16600160009054906101000a900473ffffffffffffffffffffffffffffffffffffffff1673ffffffffffffffffffffffffffffffffffffffff1603610ad65733600160006101000a81548173ffffffffffffffffffffffffffffffffffffffff021916908373ffffffffffffffffffffffffffffffffffffffff1602179055506001600660003373ffffffffffffffffffffffffffffffffffffffff1673ffffffffffffffffffffffffffffffffffffffff16815260200190815260200160002060006101000a81548160ff021916908315150217905550610c01565b600073ffffffffffffffffffffffffffffffffffffffff16600260009054906101000a900473ffffffffffffffffffffffffffffffffffffffff1673ffffffffffffffffffffffffffffffffffffffff1614610b67576040517f08c379a0000000000000000000000000000000000000000000000000000000008152600401610b5e90611a39565b60405180910390fd5b33600260006101000a81548173ffffffffffffffffffffffffffffffffffffffff021916908373ffffffffffffffffffffffffffffffffffffffff1602179055506001600660003373ffffffffffffffffffffffffffffffffffffffff1673ffffffffffffffffffffffffffffffffffffffff16815260200190815260200160002060006101000a81548160ff0219169083151502179055505b600073ffffffffffffffffffffffffffffffffffffffff16600160009054906101000a900473ffffffffffffffffffffffffffffffffffffffff1673ffffffffffffffffffffffffffffffffffffffff1614158015610caf5750600073ffffffffffffffffffffffffffffffffffffffff16600260009054906101000a900473ffffffffffffffffffffffffffffffffffffffff1673ffffffffffffffffffffffffffffffffffffffff1614155b15610cd0576001600560006101000a81548160ff0219169083151502179055505b565b60008054906101000a900473ffffffffffffffffffffffffffffffffffffffff1673ffffffffffffffffffffffffffffffffffffffff163373ffffffffffffffffffffffffffffffffffffffff1614610d60576040517f08c379a0000000000000000000000000000000000000000000000000000000008152600401610d5790611acb565b60405180910390fd5b600560009054906101000a900460ff16158015610d8a5750600560019054906101000a900460ff16155b610dc9576040517f08c379a0000000000000000000000000000000000000000000000000000000008152600401610dc0906112d1565b60405180910390fd5b600073ffffffffffffffffffffffffffffffffffffffff16600160009054906101000a900473ffffffffffffffffffffffffffffffffffffffff1673ffffffffffffffffffffffffffffffffffffffff1614610e8b57600160009054906101000a900473ffffffffffffffffffffffffffffffffffffffff1673ffffffffffffffffffffffffffffffffffffffff166108fc6003549081150290604051600060405180830381858888f19350505050158015610e89573d6000803e3d6000fd5b505b600073ffffffffffffffffffffffffffffffffffffffff16600260009054906101000a900473ffffffffffffffffffffffffffffffffffffffff1673ffffffffffffffffffffffffffffffffffffffff1614610f4d57600260009054906101000a900473ffffffffffffffffffffffffffffffffffffffff1673ffffffffffffffffffffffffffffffffffffffff166108fc6003549081150290604051600060405180830381858888f19350505050158015610f4b573d6000803e3d6000fd5b505b6000471115610fbe5760008054906101000a900473ffffffffffffffffffffffffffffffffffffffff1673ffffffffffffffffffffffffffffffffffffffff166108fc479081150290604051600060405180830381858888f19350505050158015610fbc573d6000803e3d6000fd5b505b6001600560016101000a81548160ff021916908315150217905550565b600560029054906101000a900473ffffffffffffffffffffffffffffffffffffffff1681565b60045481565b6000600354905090565b60008054906101000a900473ffffffffffffffffffffffffffffffffffffffff1673ffffffffffffffffffffffffffffffffffffffff163373ffffffffffffffffffffffffffffffffffffffff161461109f576040517f08c379a000000000000000000000000000000000000000000000000000000000815260040161109690611b5d565b60405180910390fd5b600560009054906101000a900460ff1680156110c85750600560019054906101000a900460ff16155b611107576040517f08c379a00000000000000000000000000000000000000000000000000000000081526004016110fe90611bef565b60405180910390fd5b600160009054906101000a900473ffffffffffffffffffffffffffffffffffffffff1673ffffffffffffffffffffffffffffffffffffffff168173ffffffffffffffffffffffffffffffffffffffff1614806111b05750600260009054906101000a900473ffffffffffffffffffffffffffffffffffffffff1673ffffffffffffffffffffffffffffffffffffffff168173ffffffffffffffffffffffffffffffffffffffff16145b6111ef576040517f08c379a00000000000000000000000000000000000000000000000000000000081526004016111e690611c5b565b60405180910390fd5b80600560026101000a81548173ffffffffffffffffffffffffffffffffffffffff021916908373ffffffffffffffffffffffffffffffffffffffff1602179055506001600560016101000a81548160ff02191690831515021790555050565b600082825260208201905092915050565b7f47616d6520616c72656164792073746172746564206f722066696e697368656460008201527f2e00000000000000000000000000000000000000000000000000000000000000602082015250565b60006112bb60218361124e565b91506112c68261125f565b604082019050919050565b600060208201905081810360008301526112ea816112ae565b9050919050565b7f4f6e6c792063726561746f722063616e2073656e6420696e697469616c20667560008201527f6e64732e00000000000000000000000000000000000000000000000000000000602082015250565b600061134d60248361124e565b9150611358826112f1565b604082019050919050565b6000602082019050818103600083015261137c81611340565b9050919050565b600073ffffffffffffffffffffffffffffffffffffffff82169050919050565b60006113ae82611383565b9050919050565b6113be816113a3565b82525050565b60006020820190506113d960008301846113b5565b92915050565b6000819050919050565b6113f2816113df565b82525050565b600060208201905061140d60008301846113e9565b92915050565b60008115159050919050565b61142881611413565b82525050565b6000602082019050611443600083018461141f565b92915050565b600080fd5b600061145982611383565b9050919050565b6114698161144e565b811461147457600080fd5b50565b60008135905061148681611460565b92915050565b6000602082840312156114a2576114a1611449565b5b60006114b084828501611477565b91505092915050565b6114c28161144e565b82525050565b60006020820190506114dd60008301846114b9565b92915050565b7f47616d65206e6f742066696e6973686564207965742e00000000000000000000600082015250565b600061151960168361124e565b9150611524826114e3565b602082019050919050565b600060208201905081810360008301526115488161150c565b9050919050565b7f4f6e6c792063726561746f722063616e20776974686472617720636f6d6d697360008201527f73696f6e2e000000000000000000000000000000000000000000000000000000602082015250565b60006115ab60258361124e565b91506115b68261154f565b604082019050919050565b600060208201905081810360008301526115da8161159e565b9050919050565b7f4e487b7100000000000000000000000000000000000000000000000000000000600052601160045260246000fd5b600061161b826113df565b9150611626836113df565b9250828202611634816113df565b9150828204841483151761164b5761164a6115e1565b5b5092915050565b7f4e487b7100000000000000000000000000000000000000000000000000000000600052601260045260246000fd5b600061168c826113df565b9150611697836113df565b9250826116a7576116a6611652565b5b828204905092915050565b7f436f6d6d697373696f6e2062616c616e636520697320656d7074790000000000600082015250565b60006116e8601b8361124e565b91506116f3826116b2565b602082019050919050565b60006020820190508181036000830152611717816116db565b9050919050565b7f4f6e6c792077696e6e65722063616e2077697468647261772077696e6e696e6760008201527f732e000000000000000000000000000000000000000000000000000000000000602082015250565b600061177a60228361124e565b91506117858261171e565b604082019050919050565b600060208201905081810360008301526117a98161176d565b9050919050565b7f436f6e74726163742062616c616e636520697320656d70747900000000000000600082015250565b60006117e660198361124e565b91506117f1826117b0565b602082019050919050565b60006020820190508181036000830152611815816117d9565b9050919050565b600081905092915050565b7f496e636f727265637420656e747279206665652e2045787065637465643a2000600082015250565b600061185d601f8361181c565b915061186882611827565b601f82019050919050565b6000819050919050565b61188e611889826113df565b611873565b82525050565b600061189f82611850565b91506118ab828461187d565b60208201915081905092915050565b600081519050919050565b60005b838110156118e35780820151818401526020810190506118c8565b60008484015250505050565b6000601f19601f8301169050919050565b600061190b826118ba565b611915818561124e565b93506119258185602086016118c5565b61192e816118ef565b840191505092915050565b600060208201905081810360008301526119538184611900565b905092915050565b7f596f75206861766520616c7265616479206a6f696e6564207468652067616d6560008201527f2e00000000000000000000000000000000000000000000000000000000000000602082015250565b60006119b760218361124e565b91506119c28261195b565b604082019050919050565b600060208201905081810360008301526119e6816119aa565b9050919050565b7f47616d6520697320616c72656164792066756c6c2e0000000000000000000000600082015250565b6000611a2360158361124e565b9150611a2e826119ed565b602082019050919050565b60006020820190508181036000830152611a5281611a16565b9050919050565b7f4f6e6c792063726561746f722063616e2063616e63656c207468652067616d6560008201527f2e00000000000000000000000000000000000000000000000000000000000000602082015250565b6000611ab560218361124e565b9150611ac082611a59565b604082019050919050565b60006020820190508181036000830152611ae481611aa8565b9050919050565b7f4f6e6c792063726561746f722063616e2066696e697368207468652067616d6560008201527f2e00000000000000000000000000000000000000000000000000000000000000602082015250565b6000611b4760218361124e565b9150611b5282611aeb565b604082019050919050565b60006020820190508181036000830152611b7681611b3a565b9050919050565b7f47616d65206e6f742073746172746564206f7220616c72656164792066696e6960008201527f736865642e000000000000000000000000000000000000000000000000000000602082015250565b6000611bd960258361124e565b9150611be482611b7d565b604082019050919050565b60006020820190508181036000830152611c0881611bcc565b9050919050565b7f496e76616c69642077696e6e657220616464726573732e000000000000000000600082015250565b6000611c4560178361124e565b9150611c5082611c0f565b602082019050919050565b60006020820190508181036000830152611c7481611c38565b905091905056fea26469706673582212202048078040f8bc0bb0cbf9405a92ed065f29a726de5924b70f45c89e7d7a5c3964736f6c63430008180033a2646970667358221220a7e93ec578d6a7265075148edd594ad992e051fe82eca8c5da9a947ea3dea37064736f6c63430008180033",
  "linkReferences": {},
  "deployedLinkReferences": {}
}