{
  "_format": "hh-sol-artifact-1",
  "contractName": "ChessGame",
  "sourceName": "contracts/Game.sol",
  "abi": [
    {
      "inputs": [
        {
          "internalType": "uint256",
          "name": "_commission",
          "type": "uint256"
        },
        {
          "internalType": "uint256",
          "name": "_MINIMUM_ENTRY_FEE",
          "type": "uint256"
        }
      ],
      "stateMutability": "payable",
      "type": "constructor"
    },
    {
      "anonymous": false,
      "inputs": [
        {
          "indexed": false,
          "internalType": "uint256",
          "name": "gameId",
          "type": "uint256"
        },
        {
          "indexed": false,
          "internalType": "enum ChessGame.Winner",
          "name": "winner",
          "type": "uint8"
        },
        {
          "indexed": false,
          "internalType": "uint256",
          "name": "reward",
          "type": "uint256"
        }
      ],
      "name": "GameFinished",
      "type": "event"
    },
    {
      "anonymous": false,
      "inputs": [
        {
          "indexed": false,
          "internalType": "uint256",
          "name": "gameId",
          "type": "uint256"
        },
        {
          "indexed": false,
          "internalType": "address",
          "name": "playerOne",
          "type": "address"
        },
        {
          "indexed": false,
          "internalType": "uint256",
          "name": "entryFee",
          "type": "uint256"
        }
      ],
      "name": "GameStarted",
      "type": "event"
    },
    {
      "anonymous": false,
      "inputs": [
        {
          "indexed": false,
          "internalType": "uint256",
          "name": "gameId",
          "type": "uint256"
        },
        {
          "indexed": false,
          "internalType": "address",
          "name": "playerTwo",
          "type": "address"
        }
      ],
      "name": "JoinedGame",
      "type": "event"
    },
    {
      "inputs": [
        {
          "internalType": "address",
          "name": "",
          "type": "address"
        }
      ],
      "name": "balance",
      "outputs": [
        {
          "internalType": "uint256",
          "name": "",
          "type": "uint256"
        }
      ],
      "stateMutability": "view",
      "type": "function"
    },
    {
      "inputs": [
        {
          "internalType": "uint256",
          "name": "_amount",
          "type": "uint256"
        }
      ],
      "name": "claimRewards",
      "outputs": [],
      "stateMutability": "payable",
      "type": "function"
    },
    {
      "inputs": [],
      "name": "commission",
      "outputs": [
        {
          "internalType": "uint256",
          "name": "",
          "type": "uint256"
        }
      ],
      "stateMutability": "view",
      "type": "function"
    },
    {
      "inputs": [],
      "name": "countGame",
      "outputs": [
        {
          "internalType": "uint256",
          "name": "",
          "type": "uint256"
        }
      ],
      "stateMutability": "view",
      "type": "function"
    },
    {
      "inputs": [
        {
          "internalType": "uint256",
          "name": "_gameId",
          "type": "uint256"
        },
        {
          "internalType": "enum ChessGame.Winner",
          "name": "_winner",
          "type": "uint8"
        }
      ],
      "name": "finishGame",
      "outputs": [],
      "stateMutability": "nonpayable",
      "type": "function"
    },
    {
      "inputs": [
        {
          "internalType": "uint256",
          "name": "",
          "type": "uint256"
        }
      ],
      "name": "games",
      "outputs": [
        {
          "internalType": "uint256",
          "name": "gameId",
          "type": "uint256"
        },
        {
          "internalType": "uint256",
          "name": "gameCount",
          "type": "uint256"
        },
        {
          "internalType": "uint256",
          "name": "creatingTime",
          "type": "uint256"
        },
        {
          "internalType": "address",
          "name": "playerOne",
          "type": "address"
        },
        {
          "internalType": "address",
          "name": "playerTwo",
          "type": "address"
        },
        {
          "internalType": "uint256",
          "name": "rewardPool",
          "type": "uint256"
        },
        {
          "internalType": "bool",
          "name": "isStarted",
          "type": "bool"
        },
        {
          "internalType": "bool",
          "name": "isFinished",
          "type": "bool"
        }
      ],
      "stateMutability": "view",
      "type": "function"
    },
    {
      "inputs": [
        {
          "internalType": "uint256",
          "name": "_gameId",
          "type": "uint256"
        }
      ],
      "name": "joinGame",
      "outputs": [],
      "stateMutability": "payable",
      "type": "function"
    },
    {
      "inputs": [],
      "name": "owner",
      "outputs": [
        {
          "internalType": "address payable",
          "name": "",
          "type": "address"
        }
      ],
      "stateMutability": "view",
      "type": "function"
    },
    {
      "inputs": [],
      "name": "pausedAllGames",
      "outputs": [
        {
          "internalType": "bool",
          "name": "",
          "type": "bool"
        }
      ],
      "stateMutability": "view",
      "type": "function"
    },
    {
      "inputs": [
        {
          "internalType": "uint256",
          "name": "gameId",
          "type": "uint256"
        }
      ],
      "name": "startGame",
      "outputs": [],
      "stateMutability": "payable",
      "type": "function"
    },
    {
      "inputs": [],
      "name": "toggleContract",
      "outputs": [],
      "stateMutability": "nonpayable",
      "type": "function"
    },
    {
      "inputs": [
        {
          "internalType": "uint256",
          "name": "_amount",
          "type": "uint256"
        }
      ],
      "name": "withdraw",
      "outputs": [],
      "stateMutability": "payable",
      "type": "function"
    }
  ],
  "bytecode": "0x60a060405260018055604051620024653803806200246583398181016040528101906200002d9190620002f5565b6032821062000073576040517f08c379a00000000000000000000000000000000000000000000000000000000081526004016200006a906200039d565b60405180910390fd5b6064811015620000ba576040517f08c379a0000000000000000000000000000000000000000000000000000000008152600401620000b1906200040f565b60405180910390fd5b336000806101000a81548173ffffffffffffffffffffffffffffffffffffffff021916908373ffffffffffffffffffffffffffffffffffffffff1602179055508160038190555080608081815250506200011362000240565b600581908060018154018082558091505060019003906000526020600020906007020160009091909190915060008201518160000155602082015181600101556040820151816002015560608201518160030160006101000a81548173ffffffffffffffffffffffffffffffffffffffff021916908373ffffffffffffffffffffffffffffffffffffffff16021790555060808201518160040160006101000a81548173ffffffffffffffffffffffffffffffffffffffff021916908373ffffffffffffffffffffffffffffffffffffffff16021790555060a0820151816005015560c08201518160060160006101000a81548160ff02191690831515021790555060e08201518160060160016101000a81548160ff021916908315150217905550505050505062000431565b604051806101000160405280600081526020016000815260200160008152602001600073ffffffffffffffffffffffffffffffffffffffff168152602001600073ffffffffffffffffffffffffffffffffffffffff168152602001600081526020016000151581526020016000151581525090565b600080fd5b6000819050919050565b620002cf81620002ba565b8114620002db57600080fd5b50565b600081519050620002ef81620002c4565b92915050565b600080604083850312156200030f576200030e620002b5565b5b60006200031f85828601620002de565b92505060206200033285828601620002de565b9150509250929050565b600082825260208201905092915050565b7f436f6d6d697373696f6e2073686f756c64206265203c2035302e000000000000600082015250565b600062000385601a836200033c565b915062000392826200034d565b602082019050919050565b60006020820190508181036000830152620003b88162000376565b9050919050565b7f4d696e206665652073686f756c64206265203e3d203130300000000000000000600082015250565b6000620003f76018836200033c565b91506200040482620003bf565b602082019050919050565b600060208201905081810360008301526200042a81620003e8565b9050919050565b6080516120186200044d6000396000610a4f01526120186000f3fe6080604052600436106100a75760003560e01c80639df90028116100645780639df90028146101a7578063d0232c70146101be578063e1489191146101e9578063e3d670d714610214578063e5ed1d5914610251578063efaa55a01461026d576100a7565b80630962ef79146100ac578063117a5b90146100c85780632d4e8c461461010c5780632e1a7d4d146101355780633bb6c5f4146101515780638da5cb5b1461017c575b600080fd5b6100c660048036038101906100c19190611577565b610289565b005b3480156100d457600080fd5b506100ef60048036038101906100ea9190611577565b610411565b60405161010398979695949392919061160f565b60405180910390f35b34801561011857600080fd5b50610133600480360381019061012e91906116b2565b6104c3565b005b61014f600480360381019061014a9190611577565b6106d2565b005b34801561015d57600080fd5b506101666108e8565b60405161017391906116f2565b60405180910390f35b34801561018857600080fd5b506101916108ee565b60405161019e919061172e565b60405180910390f35b3480156101b357600080fd5b506101bc610912565b005b3480156101ca57600080fd5b506101d36109cc565b6040516101e09190611749565b60405180910390f35b3480156101f557600080fd5b506101fe6109df565b60405161020b91906116f2565b60405180910390f35b34801561022057600080fd5b5061023b60048036038101906102369190611790565b6109e5565b60405161024891906116f2565b60405180910390f35b61026b60048036038101906102669190611577565b6109fd565b005b61028760048036038101906102829190611577565b610c96565b005b80600460003373ffffffffffffffffffffffffffffffffffffffff1673ffffffffffffffffffffffffffffffffffffffff16815260200190815260200160002054101561030b576040517f08c379a00000000000000000000000000000000000000000000000000000000081526004016103029061181a565b60405180910390fd5b80600460003373ffffffffffffffffffffffffffffffffffffffff1673ffffffffffffffffffffffffffffffffffffffff168152602001908152602001600020600082825461035a9190611869565b9250508190555060003373ffffffffffffffffffffffffffffffffffffffff1682604051610387906118ce565b60006040518083038185875af1925050503d80600081146103c4576040519150601f19603f3d011682016040523d82523d6000602084013e6103c9565b606091505b505090508061040d576040517f08c379a00000000000000000000000000000000000000000000000000000000081526004016104049061192f565b60405180910390fd5b5050565b6005818154811061042157600080fd5b90600052602060002090600702016000915090508060000154908060010154908060020154908060030160009054906101000a900473ffffffffffffffffffffffffffffffffffffffff16908060040160009054906101000a900473ffffffffffffffffffffffffffffffffffffffff16908060050154908060060160009054906101000a900460ff16908060060160019054906101000a900460ff16905088565b60008054906101000a900473ffffffffffffffffffffffffffffffffffffffff1673ffffffffffffffffffffffffffffffffffffffff163373ffffffffffffffffffffffffffffffffffffffff1614610551576040517f08c379a00000000000000000000000000000000000000000000000000000000081526004016105489061199b565b60405180910390fd5b600060058381548110610567576105666119bb565b5b906000526020600020906007020190508060060160009054906101000a900460ff166105c8576040517f08c379a00000000000000000000000000000000000000000000000000000000081526004016105bf90611a36565b60405180910390fd5b8060060160019054906101000a900460ff161561061a576040517f08c379a000000000000000000000000000000000000000000000000000000000815260040161061190611aa2565b60405180910390fd5b60018160060160016101000a81548160ff0219169083151502179055507e21feea4608e6756f982d5bd71c09645176b4865cf6bd600fcc4aa990f024048383836005015460405161066d93929190611b39565b60405180910390a16106cd8160050154838360030160009054906101000a900473ffffffffffffffffffffffffffffffffffffffff168460040160009054906101000a900473ffffffffffffffffffffffffffffffffffffffff16611187565b505050565b60008054906101000a900473ffffffffffffffffffffffffffffffffffffffff1673ffffffffffffffffffffffffffffffffffffffff163373ffffffffffffffffffffffffffffffffffffffff1614610760576040517f08c379a00000000000000000000000000000000000000000000000000000000081526004016107579061199b565b60405180910390fd5b80600460003073ffffffffffffffffffffffffffffffffffffffff1673ffffffffffffffffffffffffffffffffffffffff1681526020019081526020016000205410156107e2576040517f08c379a00000000000000000000000000000000000000000000000000000000081526004016107d99061181a565b60405180910390fd5b80600460003073ffffffffffffffffffffffffffffffffffffffff1673ffffffffffffffffffffffffffffffffffffffff16815260200190815260200160002060008282546108319190611869565b9250508190555060003373ffffffffffffffffffffffffffffffffffffffff168260405161085e906118ce565b60006040518083038185875af1925050503d806000811461089b576040519150601f19603f3d011682016040523d82523d6000602084013e6108a0565b606091505b50509050806108e4576040517f08c379a00000000000000000000000000000000000000000000000000000000081526004016108db90611bbc565b60405180910390fd5b5050565b60015481565b60008054906101000a900473ffffffffffffffffffffffffffffffffffffffff1681565b60008054906101000a900473ffffffffffffffffffffffffffffffffffffffff1673ffffffffffffffffffffffffffffffffffffffff163373ffffffffffffffffffffffffffffffffffffffff16146109a0576040517f08c379a00000000000000000000000000000000000000000000000000000000081526004016109979061199b565b60405180910390fd5b600260009054906101000a900460ff1615600260006101000a81548160ff021916908315150217905550565b600260009054906101000a900460ff1681565b60035481565b60046020528060005260406000206000915090505481565b600260009054906101000a900460ff1615610a4d576040517f08c379a0000000000000000000000000000000000000000000000000000000008152600401610a4490611c28565b60405180910390fd5b7f00000000000000000000000000000000000000000000000000000000000000003411610aaf576040517f08c379a0000000000000000000000000000000000000000000000000000000008152600401610aa690611c94565b60405180910390fd5b610ab76114c7565b8181600001818152505060015481602001818152505033816060019073ffffffffffffffffffffffffffffffffffffffff16908173ffffffffffffffffffffffffffffffffffffffff168152505042816040018181525050348160a0018181525050600581908060018154018082558091505060019003906000526020600020906007020160009091909190915060008201518160000155602082015181600101556040820151816002015560608201518160030160006101000a81548173ffffffffffffffffffffffffffffffffffffffff021916908373ffffffffffffffffffffffffffffffffffffffff16021790555060808201518160040160006101000a81548173ffffffffffffffffffffffffffffffffffffffff021916908373ffffffffffffffffffffffffffffffffffffffff16021790555060a0820151816005015560c08201518160060160006101000a81548160ff02191690831515021790555060e08201518160060160016101000a81548160ff02191690831515021790555050507f0c82908456d66c43e9de63edd66f9faf875c8f3a12f936e162d675ec42c354446001543334604051610c7293929190611cb4565b60405180910390a160016000815480929190610c8d90611ceb565b91905055505050565b600260009054906101000a900460ff1615610ce6576040517f08c379a0000000000000000000000000000000000000000000000000000000008152600401610cdd90611c28565b60405180910390fd5b600060058281548110610cfc57610cfb6119bb565b5b9060005260206000209060070201604051806101000160405290816000820154815260200160018201548152602001600282015481526020016003820160009054906101000a900473ffffffffffffffffffffffffffffffffffffffff1673ffffffffffffffffffffffffffffffffffffffff1673ffffffffffffffffffffffffffffffffffffffff1681526020016004820160009054906101000a900473ffffffffffffffffffffffffffffffffffffffff1673ffffffffffffffffffffffffffffffffffffffff1673ffffffffffffffffffffffffffffffffffffffff168152602001600582015481526020016006820160009054906101000a900460ff161515151581526020016006820160019054906101000a900460ff16151515158152505090508060a001513414610e68576040517f08c379a0000000000000000000000000000000000000000000000000000000008152600401610e5f90611d7f565b60405180910390fd5b8060c0015115610ead576040517f08c379a0000000000000000000000000000000000000000000000000000000008152600401610ea490611deb565b60405180910390fd5b3373ffffffffffffffffffffffffffffffffffffffff16816060015173ffffffffffffffffffffffffffffffffffffffff1603610f1f576040517f08c379a0000000000000000000000000000000000000000000000000000000008152600401610f1690611e57565b60405180910390fd5b60003073ffffffffffffffffffffffffffffffffffffffff1634604051610f45906118ce565b60006040518083038185875af1925050503d8060008114610f82576040519150601f19603f3d011682016040523d82523d6000602084013e610f87565b606091505b5050905080610fcb576040517f08c379a0000000000000000000000000000000000000000000000000000000008152600401610fc290611ec3565b60405180910390fd5b33826080019073ffffffffffffffffffffffffffffffffffffffff16908173ffffffffffffffffffffffffffffffffffffffff1681525050348260a0018181516110159190611ee3565b9150818152505060018260c00190151590811515815250508160058481548110611042576110416119bb565b5b906000526020600020906007020160008201518160000155602082015181600101556040820151816002015560608201518160030160006101000a81548173ffffffffffffffffffffffffffffffffffffffff021916908373ffffffffffffffffffffffffffffffffffffffff16021790555060808201518160040160006101000a81548173ffffffffffffffffffffffffffffffffffffffff021916908373ffffffffffffffffffffffffffffffffffffffff16021790555060a0820151816005015560c08201518160060160006101000a81548160ff02191690831515021790555060e08201518160060160016101000a81548160ff0219169083151502179055509050507f1f8563b32a0bf618f00d2cbcb52b004d5757561ee12274f8c1d85b6f44fa551a833360405161117a929190611f17565b60405180910390a1505050565b6001600381111561119b5761119a611ac2565b5b8360038111156111ae576111ad611ac2565b5b036112ae576000606460035460646111c69190611869565b866111d19190611f40565b6111db9190611fb1565b905060006064600354876111ef9190611f40565b6111f99190611fb1565b905081600460008673ffffffffffffffffffffffffffffffffffffffff1673ffffffffffffffffffffffffffffffffffffffff168152602001908152602001600020600082825461124a9190611ee3565b9250508190555080600460003073ffffffffffffffffffffffffffffffffffffffff1673ffffffffffffffffffffffffffffffffffffffff16815260200190815260200160002060008282546112a09190611ee3565b9250508190555050506114c1565b600260038111156112c2576112c1611ac2565b5b8360038111156112d5576112d4611ac2565b5b036113d5576000606460035460646112ed9190611869565b866112f89190611f40565b6113029190611fb1565b905060006064600354876113169190611f40565b6113209190611fb1565b905081600460008573ffffffffffffffffffffffffffffffffffffffff1673ffffffffffffffffffffffffffffffffffffffff16815260200190815260200160002060008282546113719190611ee3565b9250508190555080600460003073ffffffffffffffffffffffffffffffffffffffff1673ffffffffffffffffffffffffffffffffffffffff16815260200190815260200160002060008282546113c79190611ee3565b9250508190555050506114c0565b6003808111156113e8576113e7611ac2565b5b8360038111156113fb576113fa611ac2565b5b036114bf57600060028561140f9190611fb1565b905080600460008573ffffffffffffffffffffffffffffffffffffffff1673ffffffffffffffffffffffffffffffffffffffff16815260200190815260200160002060008282546114609190611ee3565b9250508190555080600460008473ffffffffffffffffffffffffffffffffffffffff1673ffffffffffffffffffffffffffffffffffffffff16815260200190815260200160002060008282546114b69190611ee3565b92505081905550505b5b5b50505050565b604051806101000160405280600081526020016000815260200160008152602001600073ffffffffffffffffffffffffffffffffffffffff168152602001600073ffffffffffffffffffffffffffffffffffffffff168152602001600081526020016000151581526020016000151581525090565b600080fd5b6000819050919050565b61155481611541565b811461155f57600080fd5b50565b6000813590506115718161154b565b92915050565b60006020828403121561158d5761158c61153c565b5b600061159b84828501611562565b91505092915050565b6115ad81611541565b82525050565b600073ffffffffffffffffffffffffffffffffffffffff82169050919050565b60006115de826115b3565b9050919050565b6115ee816115d3565b82525050565b60008115159050919050565b611609816115f4565b82525050565b600061010082019050611625600083018b6115a4565b611632602083018a6115a4565b61163f60408301896115a4565b61164c60608301886115e5565b61165960808301876115e5565b61166660a08301866115a4565b61167360c0830185611600565b61168060e0830184611600565b9998505050505050505050565b6004811061169a57600080fd5b50565b6000813590506116ac8161168d565b92915050565b600080604083850312156116c9576116c861153c565b5b60006116d785828601611562565b92505060206116e88582860161169d565b9150509250929050565b600060208201905061170760008301846115a4565b92915050565b6000611718826115b3565b9050919050565b6117288161170d565b82525050565b6000602082019050611743600083018461171f565b92915050565b600060208201905061175e6000830184611600565b92915050565b61176d816115d3565b811461177857600080fd5b50565b60008135905061178a81611764565b92915050565b6000602082840312156117a6576117a561153c565b5b60006117b48482850161177b565b91505092915050565b600082825260208201905092915050565b7f4e6f7420656e6f7567682062616c616e63652e00000000000000000000000000600082015250565b60006118046013836117bd565b915061180f826117ce565b602082019050919050565b60006020820190508181036000830152611833816117f7565b9050919050565b7f4e487b7100000000000000000000000000000000000000000000000000000000600052601160045260246000fd5b600061187482611541565b915061187f83611541565b92508282039050818111156118975761189661183a565b5b92915050565b600081905092915050565b50565b60006118b860008361189d565b91506118c3826118a8565b600082019050919050565b60006118d9826118ab565b9150819050919050565b7f4661696c656420746f20636c61696d20726577617264732e0000000000000000600082015250565b60006119196018836117bd565b9150611924826118e3565b602082019050919050565b600060208201905081810360008301526119488161190c565b9050919050565b7f4e6f74206f776e65722e00000000000000000000000000000000000000000000600082015250565b6000611985600a836117bd565b91506119908261194f565b602082019050919050565b600060208201905081810360008301526119b481611978565b9050919050565b7f4e487b7100000000000000000000000000000000000000000000000000000000600052603260045260246000fd5b7f47616d65206e6f7420737461727465642e000000000000000000000000000000600082015250565b6000611a206011836117bd565b9150611a2b826119ea565b602082019050919050565b60006020820190508181036000830152611a4f81611a13565b9050919050565b7f47616d6520616c72656164792066696e69736865642e00000000000000000000600082015250565b6000611a8c6016836117bd565b9150611a9782611a56565b602082019050919050565b60006020820190508181036000830152611abb81611a7f565b9050919050565b7f4e487b7100000000000000000000000000000000000000000000000000000000600052602160045260246000fd5b60048110611b0257611b01611ac2565b5b50565b6000819050611b1382611af1565b919050565b6000611b2382611b05565b9050919050565b611b3381611b18565b82525050565b6000606082019050611b4e60008301866115a4565b611b5b6020830185611b2a565b611b6860408301846115a4565b949350505050565b7f4661696c656420746f2077697468647261772e00000000000000000000000000600082015250565b6000611ba66013836117bd565b9150611bb182611b70565b602082019050919050565b60006020820190508181036000830152611bd581611b99565b9050919050565b7f47616d657320617265207061757365642e000000000000000000000000000000600082015250565b6000611c126011836117bd565b9150611c1d82611bdc565b602082019050919050565b60006020820190508181036000830152611c4181611c05565b9050919050565b7f53657420666565206869676865722e0000000000000000000000000000000000600082015250565b6000611c7e600f836117bd565b9150611c8982611c48565b602082019050919050565b60006020820190508181036000830152611cad81611c71565b9050919050565b6000606082019050611cc960008301866115a4565b611cd660208301856115e5565b611ce360408301846115a4565b949350505050565b6000611cf682611541565b91507fffffffffffffffffffffffffffffffffffffffffffffffffffffffffffffffff8203611d2857611d2761183a565b5b600182019050919050565b7f57726f6e6720656e747279206665652e00000000000000000000000000000000600082015250565b6000611d696010836117bd565b9150611d7482611d33565b602082019050919050565b60006020820190508181036000830152611d9881611d5c565b9050919050565b7f416c726561647920737461727465642e00000000000000000000000000000000600082015250565b6000611dd56010836117bd565b9150611de082611d9f565b602082019050919050565b60006020820190508181036000830152611e0481611dc8565b9050919050565b7f596f752061726520503120616c736f2e00000000000000000000000000000000600082015250565b6000611e416010836117bd565b9150611e4c82611e0b565b602082019050919050565b60006020820190508181036000830152611e7081611e34565b9050919050565b7f4661696c656420746f2073656e64204574686572000000000000000000000000600082015250565b6000611ead6014836117bd565b9150611eb882611e77565b602082019050919050565b60006020820190508181036000830152611edc81611ea0565b9050919050565b6000611eee82611541565b9150611ef983611541565b9250828201905080821115611f1157611f1061183a565b5b92915050565b6000604082019050611f2c60008301856115a4565b611f3960208301846115e5565b9392505050565b6000611f4b82611541565b9150611f5683611541565b9250828202611f6481611541565b91508282048414831517611f7b57611f7a61183a565b5b5092915050565b7f4e487b7100000000000000000000000000000000000000000000000000000000600052601260045260246000fd5b6000611fbc82611541565b9150611fc783611541565b925082611fd757611fd6611f82565b5b82820490509291505056fea26469706673582212207ca8f057de6941947e324c43705eec613354044cfbabcd371a363727c524d6d664736f6c63430008180033",
  "linkReferences": {},
  "deployedLinkReferences": {}
}