{
  "_format": "hh-sol-artifact-1",
  "contractName": "Chess",
  "sourceName": "contracts/Chess.sol",
  "abi": [
    {
      "inputs": [
        {
          "internalType": "address payable",
          "name": "_creator",
          "type": "address"
        },
        {
          "internalType": "uint256",
          "name": "_entryFee",
          "type": "uint256"
        },
        {
          "internalType": "uint256",
          "name": "_commission",
          "type": "uint256"
        }
      ],
      "stateMutability": "payable",
      "type": "constructor"
    },
    {
      "anonymous": false,
      "inputs": [
        {
          "indexed": false,
          "internalType": "address",
          "name": "player1",
          "type": "address"
        },
        {
          "indexed": false,
          "internalType": "address",
          "name": "player2",
          "type": "address"
        },
        {
          "indexed": false,
          "internalType": "uint256",
          "name": "entryFee",
          "type": "uint256"
        }
      ],
      "name": "GamePrimed",
      "type": "event"
    },
    {
      "inputs": [],
      "name": "cancelGame",
      "outputs": [],
      "stateMutability": "nonpayable",
      "type": "function"
    },
    {
      "inputs": [],
      "name": "commission",
      "outputs": [
        {
          "internalType": "uint256",
          "name": "",
          "type": "uint256"
        }
      ],
      "stateMutability": "view",
      "type": "function"
    },
    {
      "inputs": [],
      "name": "creator",
      "outputs": [
        {
          "internalType": "address payable",
          "name": "",
          "type": "address"
        }
      ],
      "stateMutability": "view",
      "type": "function"
    },
    {
      "inputs": [],
      "name": "entryFee",
      "outputs": [
        {
          "internalType": "uint256",
          "name": "",
          "type": "uint256"
        }
      ],
      "stateMutability": "view",
      "type": "function"
    },
    {
      "inputs": [
        {
          "internalType": "address",
          "name": "_winner",
          "type": "address"
        }
      ],
      "name": "finishGame",
      "outputs": [],
      "stateMutability": "nonpayable",
      "type": "function"
    },
    {
      "inputs": [],
      "name": "finished",
      "outputs": [
        {
          "internalType": "bool",
          "name": "",
          "type": "bool"
        }
      ],
      "stateMutability": "view",
      "type": "function"
    },
    {
      "inputs": [],
      "name": "getEntryFee",
      "outputs": [
        {
          "internalType": "uint256",
          "name": "",
          "type": "uint256"
        }
      ],
      "stateMutability": "view",
      "type": "function"
    },
    {
      "inputs": [],
      "name": "getOwner",
      "outputs": [
        {
          "internalType": "address",
          "name": "",
          "type": "address"
        }
      ],
      "stateMutability": "view",
      "type": "function"
    },
    {
      "inputs": [
        {
          "internalType": "address",
          "name": "",
          "type": "address"
        }
      ],
      "name": "hasJoined",
      "outputs": [
        {
          "internalType": "bool",
          "name": "",
          "type": "bool"
        }
      ],
      "stateMutability": "view",
      "type": "function"
    },
    {
      "inputs": [],
      "name": "joinGame",
      "outputs": [],
      "stateMutability": "payable",
      "type": "function"
    },
    {
      "inputs": [],
      "name": "player1",
      "outputs": [
        {
          "internalType": "address payable",
          "name": "",
          "type": "address"
        }
      ],
      "stateMutability": "view",
      "type": "function"
    },
    {
      "inputs": [],
      "name": "player2",
      "outputs": [
        {
          "internalType": "address payable",
          "name": "",
          "type": "address"
        }
      ],
      "stateMutability": "view",
      "type": "function"
    },
    {
      "inputs": [],
      "name": "started",
      "outputs": [
        {
          "internalType": "bool",
          "name": "",
          "type": "bool"
        }
      ],
      "stateMutability": "view",
      "type": "function"
    },
    {
      "inputs": [],
      "name": "winner",
      "outputs": [
        {
          "internalType": "address",
          "name": "",
          "type": "address"
        }
      ],
      "stateMutability": "view",
      "type": "function"
    },
    {
      "inputs": [],
      "name": "withdrawCommission",
      "outputs": [],
      "stateMutability": "nonpayable",
      "type": "function"
    },
    {
      "inputs": [],
      "name": "withdrawWinnings",
      "outputs": [],
      "stateMutability": "nonpayable",
      "type": "function"
    },
    {
      "stateMutability": "payable",
      "type": "receive"
    }
  ],
  "bytecode": "0x60806040526040516200223038038062002230833981810160405281019062000029919062000223565b600073ffffffffffffffffffffffffffffffffffffffff168373ffffffffffffffffffffffffffffffffffffffff16036200009b576040517f08c379a0000000000000000000000000000000000000000000000000000000008152600401620000929062000306565b60405180910390fd5b60008211620000e1576040517f08c379a0000000000000000000000000000000000000000000000000000000008152600401620000d8906200039e565b60405180910390fd5b6064811062000127576040517f08c379a00000000000000000000000000000000000000000000000000000000081526004016200011e9062000436565b60405180910390fd5b826000806101000a81548173ffffffffffffffffffffffffffffffffffffffff021916908373ffffffffffffffffffffffffffffffffffffffff160217905550816003819055508060048190555050505062000458565b600080fd5b600073ffffffffffffffffffffffffffffffffffffffff82169050919050565b6000620001b08262000183565b9050919050565b620001c281620001a3565b8114620001ce57600080fd5b50565b600081519050620001e281620001b7565b92915050565b6000819050919050565b620001fd81620001e8565b81146200020957600080fd5b50565b6000815190506200021d81620001f2565b92915050565b6000806000606084860312156200023f576200023e6200017e565b5b60006200024f86828701620001d1565b935050602062000262868287016200020c565b925050604062000275868287016200020c565b9150509250925092565b600082825260208201905092915050565b7f43726561746f7220616464726573732063616e6e6f74206265207a65726f206160008201527f6464726573730000000000000000000000000000000000000000000000000000602082015250565b6000620002ee6026836200027f565b9150620002fb8262000290565b604082019050919050565b600060208201905081810360008301526200032181620002df565b9050919050565b7f456e74727920666565206d7573742062652067726561746572207468616e207a60008201527f65726f2e00000000000000000000000000000000000000000000000000000000602082015250565b6000620003866024836200027f565b9150620003938262000328565b604082019050919050565b60006020820190508181036000830152620003b98162000377565b9050919050565b7f436f6d6d697373696f6e206d757374206265206c657373207468616e2031303060008201527f2e00000000000000000000000000000000000000000000000000000000000000602082015250565b60006200041e6021836200027f565b91506200042b82620003c0565b604082019050919050565b6000602082019050818103600083015262000451816200040f565b9050919050565b611dc880620004686000396000f3fe6080604052600436106100f75760003560e01c8063cc42e83a1161008a578063dfbf53ae11610059578063dfbf53ae146103b3578063e1489191146103de578063e586a4f014610409578063e9652a1914610434576101f5565b8063cc42e83a14610350578063d30895e414610367578063d4f77b1c14610392578063d84c1ac91461039c576101f5565b806359a5f12d116100c657806359a5f12d14610292578063877f4e12146102bd578063893d20e8146102fa578063bef4876b14610325576101f5565b806302d05d3f146101fa578063072ea61c146102255780631f2698ab146102505780633e25e8371461027b576101f5565b366101f557600560009054906101000a900460ff161580156101265750600560019054906101000a900460ff16155b610165576040517f08c379a000000000000000000000000000000000000000000000000000000000815260040161015c90611352565b60405180910390fd5b60008054906101000a900473ffffffffffffffffffffffffffffffffffffffff1673ffffffffffffffffffffffffffffffffffffffff163373ffffffffffffffffffffffffffffffffffffffff16146101f3576040517f08c379a00000000000000000000000000000000000000000000000000000000081526004016101ea906113e4565b60405180910390fd5b005b600080fd5b34801561020657600080fd5b5061020f61045d565b60405161021c9190611445565b60405180910390f35b34801561023157600080fd5b5061023a610481565b6040516102479190611479565b60405180910390f35b34801561025c57600080fd5b50610265610487565b60405161027291906114af565b60405180910390f35b34801561028757600080fd5b5061029061049a565b005b34801561029e57600080fd5b506102a7610648565b6040516102b49190611445565b60405180910390f35b3480156102c957600080fd5b506102e460048036038101906102df919061150d565b61066e565b6040516102f191906114af565b60405180910390f35b34801561030657600080fd5b5061030f61068e565b60405161031c9190611549565b60405180910390f35b34801561033157600080fd5b5061033a6106b7565b60405161034791906114af565b60405180910390f35b34801561035c57600080fd5b506103656106ca565b005b34801561037357600080fd5b5061037c61085d565b6040516103899190611445565b60405180910390f35b61039a610883565b005b3480156103a857600080fd5b506103b1610d53565b005b3480156103bf57600080fd5b506103c861105c565b6040516103d59190611549565b60405180910390f35b3480156103ea57600080fd5b506103f3611082565b6040516104009190611479565b60405180910390f35b34801561041557600080fd5b5061041e611088565b60405161042b9190611479565b60405180910390f35b34801561044057600080fd5b5061045b6004803603810190610456919061150d565b611092565b005b60008054906101000a900473ffffffffffffffffffffffffffffffffffffffff1681565b60035481565b600560009054906101000a900460ff1681565b600560019054906101000a900460ff166104e9576040517f08c379a00000000000000000000000000000000000000000000000000000000081526004016104e0906115b0565b60405180910390fd5b60008054906101000a900473ffffffffffffffffffffffffffffffffffffffff1673ffffffffffffffffffffffffffffffffffffffff163373ffffffffffffffffffffffffffffffffffffffff1614610577576040517f08c379a000000000000000000000000000000000000000000000000000000000815260040161056e90611642565b60405180910390fd5b6000479050600060646004548361058e9190611691565b6105989190611702565b9050600081116105dd576040517f08c379a00000000000000000000000000000000000000000000000000000000081526004016105d49061177f565b60405180910390fd5b60008054906101000a900473ffffffffffffffffffffffffffffffffffffffff1673ffffffffffffffffffffffffffffffffffffffff166108fc829081150290604051600060405180830381858888f19350505050158015610643573d6000803e3d6000fd5b505050565b600260009054906101000a900473ffffffffffffffffffffffffffffffffffffffff1681565b60066020528060005260406000206000915054906101000a900460ff1681565b60008060009054906101000a900473ffffffffffffffffffffffffffffffffffffffff16905090565b600560019054906101000a900460ff1681565b600560019054906101000a900460ff16610719576040517f08c379a0000000000000000000000000000000000000000000000000000000008152600401610710906115b0565b60405180910390fd5b600560029054906101000a900473ffffffffffffffffffffffffffffffffffffffff1673ffffffffffffffffffffffffffffffffffffffff163373ffffffffffffffffffffffffffffffffffffffff16146107a9576040517f08c379a00000000000000000000000000000000000000000000000000000000081526004016107a090611811565b60405180910390fd5b6000479050600081116107f1576040517f08c379a00000000000000000000000000000000000000000000000000000000081526004016107e89061187d565b60405180910390fd5b600560029054906101000a900473ffffffffffffffffffffffffffffffffffffffff1673ffffffffffffffffffffffffffffffffffffffff166108fc829081150290604051600060405180830381858888f19350505050158015610859573d6000803e3d6000fd5b5050565b600160009054906101000a900473ffffffffffffffffffffffffffffffffffffffff1681565b600560009054906101000a900460ff161580156108ad5750600560019054906101000a900460ff16155b6108ec576040517f08c379a00000000000000000000000000000000000000000000000000000000081526004016108e390611352565b60405180910390fd5b60035434146003546040516020016109049190611915565b60405160208183030381529060405290610954576040517f08c379a000000000000000000000000000000000000000000000000000000000815260040161094b91906119ba565b60405180910390fd5b50600660003373ffffffffffffffffffffffffffffffffffffffff1673ffffffffffffffffffffffffffffffffffffffff16815260200190815260200160002060009054906101000a900460ff16156109e2576040517f08c379a00000000000000000000000000000000000000000000000000000000081526004016109d990611a4e565b60405180910390fd5b600073ffffffffffffffffffffffffffffffffffffffff16600160009054906101000a900473ffffffffffffffffffffffffffffffffffffffff1673ffffffffffffffffffffffffffffffffffffffff1603610ad65733600160006101000a81548173ffffffffffffffffffffffffffffffffffffffff021916908373ffffffffffffffffffffffffffffffffffffffff1602179055506001600660003373ffffffffffffffffffffffffffffffffffffffff1673ffffffffffffffffffffffffffffffffffffffff16815260200190815260200160002060006101000a81548160ff021916908315150217905550610c01565b600073ffffffffffffffffffffffffffffffffffffffff16600260009054906101000a900473ffffffffffffffffffffffffffffffffffffffff1673ffffffffffffffffffffffffffffffffffffffff1614610b67576040517f08c379a0000000000000000000000000000000000000000000000000000000008152600401610b5e90611aba565b60405180910390fd5b33600260006101000a81548173ffffffffffffffffffffffffffffffffffffffff021916908373ffffffffffffffffffffffffffffffffffffffff1602179055506001600660003373ffffffffffffffffffffffffffffffffffffffff1673ffffffffffffffffffffffffffffffffffffffff16815260200190815260200160002060006101000a81548160ff0219169083151502179055505b600073ffffffffffffffffffffffffffffffffffffffff16600160009054906101000a900473ffffffffffffffffffffffffffffffffffffffff1673ffffffffffffffffffffffffffffffffffffffff1614158015610caf5750600073ffffffffffffffffffffffffffffffffffffffff16600260009054906101000a900473ffffffffffffffffffffffffffffffffffffffff1673ffffffffffffffffffffffffffffffffffffffff1614155b15610d51576001600560006101000a81548160ff0219169083151502179055507f89fa9c4e385bdcb6e765e7156075926c8660c57d15923201c5cf4de0ab23d5ec600160009054906101000a900473ffffffffffffffffffffffffffffffffffffffff16600260009054906101000a900473ffffffffffffffffffffffffffffffffffffffff16600354604051610d4893929190611b39565b60405180910390a15b565b60008054906101000a900473ffffffffffffffffffffffffffffffffffffffff1673ffffffffffffffffffffffffffffffffffffffff163373ffffffffffffffffffffffffffffffffffffffff1614610de1576040517f08c379a0000000000000000000000000000000000000000000000000000000008152600401610dd890611be2565b60405180910390fd5b600560009054906101000a900460ff16158015610e0b5750600560019054906101000a900460ff16155b610e4a576040517f08c379a0000000000000000000000000000000000000000000000000000000008152600401610e4190611352565b60405180910390fd5b600073ffffffffffffffffffffffffffffffffffffffff16600160009054906101000a900473ffffffffffffffffffffffffffffffffffffffff1673ffffffffffffffffffffffffffffffffffffffff1614610f0c57600160009054906101000a900473ffffffffffffffffffffffffffffffffffffffff1673ffffffffffffffffffffffffffffffffffffffff166108fc6003549081150290604051600060405180830381858888f19350505050158015610f0a573d6000803e3d6000fd5b505b600073ffffffffffffffffffffffffffffffffffffffff16600260009054906101000a900473ffffffffffffffffffffffffffffffffffffffff1673ffffffffffffffffffffffffffffffffffffffff1614610fce57600260009054906101000a900473ffffffffffffffffffffffffffffffffffffffff1673ffffffffffffffffffffffffffffffffffffffff166108fc6003549081150290604051600060405180830381858888f19350505050158015610fcc573d6000803e3d6000fd5b505b600047111561103f5760008054906101000a900473ffffffffffffffffffffffffffffffffffffffff1673ffffffffffffffffffffffffffffffffffffffff166108fc479081150290604051600060405180830381858888f1935050505015801561103d573d6000803e3d6000fd5b505b6001600560016101000a81548160ff021916908315150217905550565b600560029054906101000a900473ffffffffffffffffffffffffffffffffffffffff1681565b60045481565b6000600354905090565b60008054906101000a900473ffffffffffffffffffffffffffffffffffffffff1673ffffffffffffffffffffffffffffffffffffffff163373ffffffffffffffffffffffffffffffffffffffff1614611120576040517f08c379a000000000000000000000000000000000000000000000000000000000815260040161111790611c74565b60405180910390fd5b600560009054906101000a900460ff1680156111495750600560019054906101000a900460ff16155b611188576040517f08c379a000000000000000000000000000000000000000000000000000000000815260040161117f90611d06565b60405180910390fd5b600160009054906101000a900473ffffffffffffffffffffffffffffffffffffffff1673ffffffffffffffffffffffffffffffffffffffff168173ffffffffffffffffffffffffffffffffffffffff1614806112315750600260009054906101000a900473ffffffffffffffffffffffffffffffffffffffff1673ffffffffffffffffffffffffffffffffffffffff168173ffffffffffffffffffffffffffffffffffffffff16145b611270576040517f08c379a000000000000000000000000000000000000000000000000000000000815260040161126790611d72565b60405180910390fd5b80600560026101000a81548173ffffffffffffffffffffffffffffffffffffffff021916908373ffffffffffffffffffffffffffffffffffffffff1602179055506001600560016101000a81548160ff02191690831515021790555050565b600082825260208201905092915050565b7f47616d6520616c72656164792073746172746564206f722066696e697368656460008201527f2e00000000000000000000000000000000000000000000000000000000000000602082015250565b600061133c6021836112cf565b9150611347826112e0565b604082019050919050565b6000602082019050818103600083015261136b8161132f565b9050919050565b7f4f6e6c792063726561746f722063616e2073656e6420696e697469616c20667560008201527f6e64732e00000000000000000000000000000000000000000000000000000000602082015250565b60006113ce6024836112cf565b91506113d982611372565b604082019050919050565b600060208201905081810360008301526113fd816113c1565b9050919050565b600073ffffffffffffffffffffffffffffffffffffffff82169050919050565b600061142f82611404565b9050919050565b61143f81611424565b82525050565b600060208201905061145a6000830184611436565b92915050565b6000819050919050565b61147381611460565b82525050565b600060208201905061148e600083018461146a565b92915050565b60008115159050919050565b6114a981611494565b82525050565b60006020820190506114c460008301846114a0565b92915050565b600080fd5b60006114da82611404565b9050919050565b6114ea816114cf565b81146114f557600080fd5b50565b600081359050611507816114e1565b92915050565b600060208284031215611523576115226114ca565b5b6000611531848285016114f8565b91505092915050565b611543816114cf565b82525050565b600060208201905061155e600083018461153a565b92915050565b7f47616d65206e6f742066696e6973686564207965742e00000000000000000000600082015250565b600061159a6016836112cf565b91506115a582611564565b602082019050919050565b600060208201905081810360008301526115c98161158d565b9050919050565b7f4f6e6c792063726561746f722063616e20776974686472617720636f6d6d697360008201527f73696f6e2e000000000000000000000000000000000000000000000000000000602082015250565b600061162c6025836112cf565b9150611637826115d0565b604082019050919050565b6000602082019050818103600083015261165b8161161f565b9050919050565b7f4e487b7100000000000000000000000000000000000000000000000000000000600052601160045260246000fd5b600061169c82611460565b91506116a783611460565b92508282026116b581611460565b915082820484148315176116cc576116cb611662565b5b5092915050565b7f4e487b7100000000000000000000000000000000000000000000000000000000600052601260045260246000fd5b600061170d82611460565b915061171883611460565b925082611728576117276116d3565b5b828204905092915050565b7f436f6d6d697373696f6e2062616c616e636520697320656d7074790000000000600082015250565b6000611769601b836112cf565b915061177482611733565b602082019050919050565b600060208201905081810360008301526117988161175c565b9050919050565b7f4f6e6c792077696e6e65722063616e2077697468647261772077696e6e696e6760008201527f732e000000000000000000000000000000000000000000000000000000000000602082015250565b60006117fb6022836112cf565b91506118068261179f565b604082019050919050565b6000602082019050818103600083015261182a816117ee565b9050919050565b7f436f6e74726163742062616c616e636520697320656d70747900000000000000600082015250565b60006118676019836112cf565b915061187282611831565b602082019050919050565b600060208201905081810360008301526118968161185a565b9050919050565b600081905092915050565b7f496e636f727265637420656e747279206665652e2045787065637465643a2000600082015250565b60006118de601f8361189d565b91506118e9826118a8565b601f82019050919050565b6000819050919050565b61190f61190a82611460565b6118f4565b82525050565b6000611920826118d1565b915061192c82846118fe565b60208201915081905092915050565b600081519050919050565b60005b83811015611964578082015181840152602081019050611949565b60008484015250505050565b6000601f19601f8301169050919050565b600061198c8261193b565b61199681856112cf565b93506119a6818560208601611946565b6119af81611970565b840191505092915050565b600060208201905081810360008301526119d48184611981565b905092915050565b7f596f75206861766520616c7265616479206a6f696e6564207468652067616d6560008201527f2e00000000000000000000000000000000000000000000000000000000000000602082015250565b6000611a386021836112cf565b9150611a43826119dc565b604082019050919050565b60006020820190508181036000830152611a6781611a2b565b9050919050565b7f47616d6520697320616c72656164792066756c6c2e0000000000000000000000600082015250565b6000611aa46015836112cf565b9150611aaf82611a6e565b602082019050919050565b60006020820190508181036000830152611ad381611a97565b9050919050565b6000819050919050565b6000611aff611afa611af584611404565b611ada565b611404565b9050919050565b6000611b1182611ae4565b9050919050565b6000611b2382611b06565b9050919050565b611b3381611b18565b82525050565b6000606082019050611b4e6000830186611b2a565b611b5b6020830185611b2a565b611b68604083018461146a565b949350505050565b7f4f6e6c792063726561746f722063616e2063616e63656c207468652067616d6560008201527f2e00000000000000000000000000000000000000000000000000000000000000602082015250565b6000611bcc6021836112cf565b9150611bd782611b70565b604082019050919050565b60006020820190508181036000830152611bfb81611bbf565b9050919050565b7f4f6e6c792063726561746f722063616e2066696e697368207468652067616d6560008201527f2e00000000000000000000000000000000000000000000000000000000000000602082015250565b6000611c5e6021836112cf565b9150611c6982611c02565b604082019050919050565b60006020820190508181036000830152611c8d81611c51565b9050919050565b7f47616d65206e6f742073746172746564206f7220616c72656164792066696e6960008201527f736865642e000000000000000000000000000000000000000000000000000000602082015250565b6000611cf06025836112cf565b9150611cfb82611c94565b604082019050919050565b60006020820190508181036000830152611d1f81611ce3565b9050919050565b7f496e76616c69642077696e6e657220616464726573732e000000000000000000600082015250565b6000611d5c6017836112cf565b9150611d6782611d26565b602082019050919050565b60006020820190508181036000830152611d8b81611d4f565b905091905056fea2646970667358221220023edef01d369e23fdb0beff1f27bc4310a2642176d88766455e75accbcde43d64736f6c63430008180033",
  "linkReferences": {},
  "deployedLinkReferences": {}
}