{
    "_format": "hh-sol-artifact-1",
    "contractName": "Chess",
    "sourceName": "contracts/Chess.sol",
    "abi": [
        {
            "inputs": [
                {
                    "internalType": "uint256",
                    "name": "_entryFee",
                    "type": "uint256"
                },
                {
                    "internalType": "uint256",
                    "name": "_commission",
                    "type": "uint256"
                }
            ],
            "stateMutability": "payable",
            "type": "constructor"
        },
        {
            "inputs": [],
            "name": "cancel",
            "outputs": [],
            "stateMutability": "nonpayable",
            "type": "function"
        },
        {
            "inputs": [],
            "name": "commission",
            "outputs": [
                {
                    "internalType": "uint256",
                    "name": "",
                    "type": "uint256"
                }
            ],
            "stateMutability": "view",
            "type": "function"
        },
        {
            "inputs": [],
            "name": "creator",
            "outputs": [
                {
                    "internalType": "address payable",
                    "name": "",
                    "type": "address"
                }
            ],
            "stateMutability": "view",
            "type": "function"
        },
        {
            "inputs": [],
            "name": "entryFee",
            "outputs": [
                {
                    "internalType": "uint256",
                    "name": "",
                    "type": "uint256"
                }
            ],
            "stateMutability": "view",
            "type": "function"
        },
        {
            "inputs": [
                {
                    "internalType": "address",
                    "name": "_winner",
                    "type": "address"
                }
            ],
            "name": "finishGame",
            "outputs": [],
            "stateMutability": "nonpayable",
            "type": "function"
        },
        {
            "inputs": [],
            "name": "finished",
            "outputs": [
                {
                    "internalType": "bool",
                    "name": "",
                    "type": "bool"
                }
            ],
            "stateMutability": "view",
            "type": "function"
        },
        {
            "inputs": [],
            "name": "joinGame",
            "outputs": [],
            "stateMutability": "payable",
            "type": "function"
        },
        {
            "inputs": [],
            "name": "player1",
            "outputs": [
                {
                    "internalType": "address payable",
                    "name": "",
                    "type": "address"
                }
            ],
            "stateMutability": "view",
            "type": "function"
        },
        {
            "inputs": [],
            "name": "player2",
            "outputs": [
                {
                    "internalType": "address payable",
                    "name": "",
                    "type": "address"
                }
            ],
            "stateMutability": "view",
            "type": "function"
        },
        {
            "inputs": [],
            "name": "started",
            "outputs": [
                {
                    "internalType": "bool",
                    "name": "",
                    "type": "bool"
                }
            ],
            "stateMutability": "view",
            "type": "function"
        },
        {
            "inputs": [],
            "name": "winner",
            "outputs": [
                {
                    "internalType": "address",
                    "name": "",
                    "type": "address"
                }
            ],
            "stateMutability": "view",
            "type": "function"
        },
        {
            "inputs": [],
            "name": "withdrawCommission",
            "outputs": [],
            "stateMutability": "nonpayable",
            "type": "function"
        },
        {
            "inputs": [],
            "name": "withdrawWinnings",
            "outputs": [],
            "stateMutability": "nonpayable",
            "type": "function"
        },
        {
            "stateMutability": "payable",
            "type": "receive"
        }
    ],
    "bytecode": "0x6080604052604051620019593803806200195983398181016040528101906200002991906200014b565b600082116200006f576040517f08c379a0000000000000000000000000000000000000000000000000000000008152600401620000669062000219565b60405180910390fd5b60648110620000b5576040517f08c379a0000000000000000000000000000000000000000000000000000000008152600401620000ac90620002b1565b60405180910390fd5b336000806101000a81548173ffffffffffffffffffffffffffffffffffffffff021916908373ffffffffffffffffffffffffffffffffffffffff16021790555081600381905550806004819055505050620002d3565b600080fd5b6000819050919050565b620001258162000110565b81146200013157600080fd5b50565b60008151905062000145816200011a565b92915050565b600080604083850312156200016557620001646200010b565b5b6000620001758582860162000134565b9250506020620001888582860162000134565b9150509250929050565b600082825260208201905092915050565b7f456e74727920666565206d7573742062652067726561746572207468616e207a60008201527f65726f2e00000000000000000000000000000000000000000000000000000000602082015250565b60006200020160248362000192565b91506200020e82620001a3565b604082019050919050565b600060208201905081810360008301526200023481620001f2565b9050919050565b7f436f6d6d697373696f6e206d757374206265206c657373207468616e2031303060008201527f2e00000000000000000000000000000000000000000000000000000000000000602082015250565b60006200029960218362000192565b9150620002a6826200023b565b604082019050919050565b60006020820190508181036000830152620002cc816200028a565b9050919050565b61167680620002e36000396000f3fe6080604052600436106100c65760003560e01c8063cc42e83a1161007f578063dfbf53ae11610059578063dfbf53ae14610303578063e14891911461032e578063e9652a1914610359578063ea8a1af014610382576101c4565b8063cc42e83a146102b7578063d30895e4146102ce578063d4f77b1c146102f9576101c4565b806302d05d3f146101c9578063072ea61c146101f45780631f2698ab1461021f5780633e25e8371461024a57806359a5f12d14610261578063bef4876b1461028c576101c4565b366101c457600560009054906101000a900460ff161580156100f55750600560019054906101000a900460ff16155b610134576040517f08c379a000000000000000000000000000000000000000000000000000000000815260040161012b90610dfb565b60405180910390fd5b60008054906101000a900473ffffffffffffffffffffffffffffffffffffffff1673ffffffffffffffffffffffffffffffffffffffff163373ffffffffffffffffffffffffffffffffffffffff16146101c2576040517f08c379a00000000000000000000000000000000000000000000000000000000081526004016101b990610e8d565b60405180910390fd5b005b600080fd5b3480156101d557600080fd5b506101de610399565b6040516101eb9190610eee565b60405180910390f35b34801561020057600080fd5b506102096103bd565b6040516102169190610f22565b60405180910390f35b34801561022b57600080fd5b506102346103c3565b6040516102419190610f58565b60405180910390f35b34801561025657600080fd5b5061025f6103d6565b005b34801561026d57600080fd5b50610276610584565b6040516102839190610eee565b60405180910390f35b34801561029857600080fd5b506102a16105aa565b6040516102ae9190610f58565b60405180910390f35b3480156102c357600080fd5b506102cc6105bd565b005b3480156102da57600080fd5b506102e3610750565b6040516102f09190610eee565b60405180910390f35b610301610776565b005b34801561030f57600080fd5b506103186109af565b6040516103259190610f94565b60405180910390f35b34801561033a57600080fd5b506103436109d5565b6040516103509190610f22565b60405180910390f35b34801561036557600080fd5b50610380600480360381019061037b9190610fe0565b6109db565b005b34801561038e57600080fd5b50610397610c18565b005b60008054906101000a900473ffffffffffffffffffffffffffffffffffffffff1681565b60035481565b600560009054906101000a900460ff1681565b600560019054906101000a900460ff16610425576040517f08c379a000000000000000000000000000000000000000000000000000000000815260040161041c90611059565b60405180910390fd5b60008054906101000a900473ffffffffffffffffffffffffffffffffffffffff1673ffffffffffffffffffffffffffffffffffffffff163373ffffffffffffffffffffffffffffffffffffffff16146104b3576040517f08c379a00000000000000000000000000000000000000000000000000000000081526004016104aa906110eb565b60405180910390fd5b600047905060006064600454836104ca919061113a565b6104d491906111ab565b905060008111610519576040517f08c379a000000000000000000000000000000000000000000000000000000000815260040161051090611228565b60405180910390fd5b60008054906101000a900473ffffffffffffffffffffffffffffffffffffffff1673ffffffffffffffffffffffffffffffffffffffff166108fc829081150290604051600060405180830381858888f1935050505015801561057f573d6000803e3d6000fd5b505050565b600260009054906101000a900473ffffffffffffffffffffffffffffffffffffffff1681565b600560019054906101000a900460ff1681565b600560019054906101000a900460ff1661060c576040517f08c379a000000000000000000000000000000000000000000000000000000000815260040161060390611059565b60405180910390fd5b600560029054906101000a900473ffffffffffffffffffffffffffffffffffffffff1673ffffffffffffffffffffffffffffffffffffffff163373ffffffffffffffffffffffffffffffffffffffff161461069c576040517f08c379a0000000000000000000000000000000000000000000000000000000008152600401610693906112ba565b60405180910390fd5b6000479050600081116106e4576040517f08c379a00000000000000000000000000000000000000000000000000000000081526004016106db90611326565b60405180910390fd5b600560029054906101000a900473ffffffffffffffffffffffffffffffffffffffff1673ffffffffffffffffffffffffffffffffffffffff166108fc829081150290604051600060405180830381858888f1935050505015801561074c573d6000803e3d6000fd5b5050565b600160009054906101000a900473ffffffffffffffffffffffffffffffffffffffff1681565b600560009054906101000a900460ff161580156107a05750600560019054906101000a900460ff16155b6107df576040517f08c379a00000000000000000000000000000000000000000000000000000000081526004016107d690610dfb565b60405180910390fd5b6003543414610823576040517f08c379a000000000000000000000000000000000000000000000000000000000815260040161081a90611392565b60405180910390fd5b600073ffffffffffffffffffffffffffffffffffffffff16600160009054906101000a900473ffffffffffffffffffffffffffffffffffffffff1673ffffffffffffffffffffffffffffffffffffffff16036108bf5733600160006101000a81548173ffffffffffffffffffffffffffffffffffffffff021916908373ffffffffffffffffffffffffffffffffffffffff1602179055506109ad565b600073ffffffffffffffffffffffffffffffffffffffff16600260009054906101000a900473ffffffffffffffffffffffffffffffffffffffff1673ffffffffffffffffffffffffffffffffffffffff1614610950576040517f08c379a0000000000000000000000000000000000000000000000000000000008152600401610947906113fe565b60405180910390fd5b33600260006101000a81548173ffffffffffffffffffffffffffffffffffffffff021916908373ffffffffffffffffffffffffffffffffffffffff1602179055506001600560006101000a81548160ff0219169083151502179055505b565b600560029054906101000a900473ffffffffffffffffffffffffffffffffffffffff1681565b60045481565b60008054906101000a900473ffffffffffffffffffffffffffffffffffffffff1673ffffffffffffffffffffffffffffffffffffffff163373ffffffffffffffffffffffffffffffffffffffff1614610a69576040517f08c379a0000000000000000000000000000000000000000000000000000000008152600401610a6090611490565b60405180910390fd5b600560009054906101000a900460ff168015610a925750600560019054906101000a900460ff16155b610ad1576040517f08c379a0000000000000000000000000000000000000000000000000000000008152600401610ac890611522565b60405180910390fd5b600160009054906101000a900473ffffffffffffffffffffffffffffffffffffffff1673ffffffffffffffffffffffffffffffffffffffff168173ffffffffffffffffffffffffffffffffffffffff161480610b7a5750600260009054906101000a900473ffffffffffffffffffffffffffffffffffffffff1673ffffffffffffffffffffffffffffffffffffffff168173ffffffffffffffffffffffffffffffffffffffff16145b610bb9576040517f08c379a0000000000000000000000000000000000000000000000000000000008152600401610bb09061158e565b60405180910390fd5b80600560026101000a81548173ffffffffffffffffffffffffffffffffffffffff021916908373ffffffffffffffffffffffffffffffffffffffff1602179055506001600560016101000a81548160ff02191690831515021790555050565b60008054906101000a900473ffffffffffffffffffffffffffffffffffffffff1673ffffffffffffffffffffffffffffffffffffffff163373ffffffffffffffffffffffffffffffffffffffff1614610ca6576040517f08c379a0000000000000000000000000000000000000000000000000000000008152600401610c9d90611620565b60405180910390fd5b600560009054906101000a900460ff16158015610cd05750600560019054906101000a900460ff16155b610d0f576040517f08c379a0000000000000000000000000000000000000000000000000000000008152600401610d0690610dfb565b60405180910390fd5b60008054906101000a900473ffffffffffffffffffffffffffffffffffffffff1673ffffffffffffffffffffffffffffffffffffffff166108fc479081150290604051600060405180830381858888f19350505050158015610d75573d6000803e3d6000fd5b50565b600082825260208201905092915050565b7f47616d6520616c72656164792073746172746564206f722066696e697368656460008201527f2e00000000000000000000000000000000000000000000000000000000000000602082015250565b6000610de5602183610d78565b9150610df082610d89565b604082019050919050565b60006020820190508181036000830152610e1481610dd8565b9050919050565b7f4f6e6c792063726561746f722063616e2073656e6420696e697469616c20667560008201527f6e64732e00000000000000000000000000000000000000000000000000000000602082015250565b6000610e77602483610d78565b9150610e8282610e1b565b604082019050919050565b60006020820190508181036000830152610ea681610e6a565b9050919050565b600073ffffffffffffffffffffffffffffffffffffffff82169050919050565b6000610ed882610ead565b9050919050565b610ee881610ecd565b82525050565b6000602082019050610f036000830184610edf565b92915050565b6000819050919050565b610f1c81610f09565b82525050565b6000602082019050610f376000830184610f13565b92915050565b60008115159050919050565b610f5281610f3d565b82525050565b6000602082019050610f6d6000830184610f49565b92915050565b6000610f7e82610ead565b9050919050565b610f8e81610f73565b82525050565b6000602082019050610fa96000830184610f85565b92915050565b600080fd5b610fbd81610f73565b8114610fc857600080fd5b50565b600081359050610fda81610fb4565b92915050565b600060208284031215610ff657610ff5610faf565b5b600061100484828501610fcb565b91505092915050565b7f47616d65206e6f742066696e6973686564207965742e00000000000000000000600082015250565b6000611043601683610d78565b915061104e8261100d565b602082019050919050565b6000602082019050818103600083015261107281611036565b9050919050565b7f4f6e6c792063726561746f722063616e20776974686472617720636f6d6d697360008201527f73696f6e2e000000000000000000000000000000000000000000000000000000602082015250565b60006110d5602583610d78565b91506110e082611079565b604082019050919050565b60006020820190508181036000830152611104816110c8565b9050919050565b7f4e487b7100000000000000000000000000000000000000000000000000000000600052601160045260246000fd5b600061114582610f09565b915061115083610f09565b925082820261115e81610f09565b915082820484148315176111755761117461110b565b5b5092915050565b7f4e487b7100000000000000000000000000000000000000000000000000000000600052601260045260246000fd5b60006111b682610f09565b91506111c183610f09565b9250826111d1576111d061117c565b5b828204905092915050565b7f436f6d6d697373696f6e2062616c616e636520697320656d7074790000000000600082015250565b6000611212601b83610d78565b915061121d826111dc565b602082019050919050565b6000602082019050818103600083015261124181611205565b9050919050565b7f4f6e6c792077696e6e65722063616e2077697468647261772077696e6e696e6760008201527f732e000000000000000000000000000000000000000000000000000000000000602082015250565b60006112a4602283610d78565b91506112af82611248565b604082019050919050565b600060208201905081810360008301526112d381611297565b9050919050565b7f436f6e74726163742062616c616e636520697320656d70747900000000000000600082015250565b6000611310601983610d78565b915061131b826112da565b602082019050919050565b6000602082019050818103600083015261133f81611303565b9050919050565b7f496e636f727265637420656e747279206665652e000000000000000000000000600082015250565b600061137c601483610d78565b915061138782611346565b602082019050919050565b600060208201905081810360008301526113ab8161136f565b9050919050565b7f47616d6520697320616c72656164792066756c6c2e0000000000000000000000600082015250565b60006113e8601583610d78565b91506113f3826113b2565b602082019050919050565b60006020820190508181036000830152611417816113db565b9050919050565b7f4f6e6c792063726561746f722063616e2066696e697368207468652067616d6560008201527f2e00000000000000000000000000000000000000000000000000000000000000602082015250565b600061147a602183610d78565b91506114858261141e565b604082019050919050565b600060208201905081810360008301526114a98161146d565b9050919050565b7f47616d65206e6f742073746172746564206f7220616c72656164792066696e6960008201527f736865642e000000000000000000000000000000000000000000000000000000602082015250565b600061150c602583610d78565b9150611517826114b0565b604082019050919050565b6000602082019050818103600083015261153b816114ff565b9050919050565b7f496e76616c69642077696e6e657220616464726573732e000000000000000000600082015250565b6000611578601783610d78565b915061158382611542565b602082019050919050565b600060208201905081810360008301526115a78161156b565b9050919050565b7f4f6e6c792063726561746f722063616e2063616e63656c207468652067616d6560008201527f2e00000000000000000000000000000000000000000000000000000000000000602082015250565b600061160a602183610d78565b9150611615826115ae565b604082019050919050565b60006020820190508181036000830152611639816115fd565b905091905056fea2646970667358221220dd0a3c4948f4a4af9a0aa4fddce71cb14696ff5db0e448393ad227d11eaee1ab64736f6c63430008180033",
    "linkReferences": {},
    "deployedLinkReferences": {}
}