{
  "_format": "hh-sol-artifact-1",
  "contractName": "Chess",
  "sourceName": "contracts/Chess.sol",
  "abi": [
    {
      "inputs": [
        {
          "internalType": "uint256",
          "name": "_entryFee",
          "type": "uint256"
        },
        {
          "internalType": "uint256",
          "name": "_commission",
          "type": "uint256"
        }
      ],
      "stateMutability": "payable",
      "type": "constructor"
    },
    {
      "inputs": [],
      "name": "cancel",
      "outputs": [],
      "stateMutability": "nonpayable",
      "type": "function"
    },
    {
      "inputs": [],
      "name": "commission",
      "outputs": [
        {
          "internalType": "uint256",
          "name": "",
          "type": "uint256"
        }
      ],
      "stateMutability": "view",
      "type": "function"
    },
    {
      "inputs": [],
      "name": "creator",
      "outputs": [
        {
          "internalType": "address payable",
          "name": "",
          "type": "address"
        }
      ],
      "stateMutability": "view",
      "type": "function"
    },
    {
      "inputs": [],
      "name": "entryFee",
      "outputs": [
        {
          "internalType": "uint256",
          "name": "",
          "type": "uint256"
        }
      ],
      "stateMutability": "view",
      "type": "function"
    },
    {
      "inputs": [
        {
          "internalType": "address",
          "name": "_winner",
          "type": "address"
        }
      ],
      "name": "finishGame",
      "outputs": [],
      "stateMutability": "nonpayable",
      "type": "function"
    },
    {
      "inputs": [],
      "name": "finished",
      "outputs": [
        {
          "internalType": "bool",
          "name": "",
          "type": "bool"
        }
      ],
      "stateMutability": "view",
      "type": "function"
    },
    {
      "inputs": [],
      "name": "getEntryFee",
      "outputs": [
        {
          "internalType": "uint256",
          "name": "",
          "type": "uint256"
        }
      ],
      "stateMutability": "view",
      "type": "function"
    },
    {
      "inputs": [],
      "name": "joinGame",
      "outputs": [],
      "stateMutability": "payable",
      "type": "function"
    },
    {
      "inputs": [],
      "name": "player1",
      "outputs": [
        {
          "internalType": "address payable",
          "name": "",
          "type": "address"
        }
      ],
      "stateMutability": "view",
      "type": "function"
    },
    {
      "inputs": [],
      "name": "player2",
      "outputs": [
        {
          "internalType": "address payable",
          "name": "",
          "type": "address"
        }
      ],
      "stateMutability": "view",
      "type": "function"
    },
    {
      "inputs": [],
      "name": "started",
      "outputs": [
        {
          "internalType": "bool",
          "name": "",
          "type": "bool"
        }
      ],
      "stateMutability": "view",
      "type": "function"
    },
    {
      "inputs": [],
      "name": "winner",
      "outputs": [
        {
          "internalType": "address",
          "name": "",
          "type": "address"
        }
      ],
      "stateMutability": "view",
      "type": "function"
    },
    {
      "inputs": [],
      "name": "withdrawCommission",
      "outputs": [],
      "stateMutability": "nonpayable",
      "type": "function"
    },
    {
      "inputs": [],
      "name": "withdrawWinnings",
      "outputs": [],
      "stateMutability": "nonpayable",
      "type": "function"
    },
    {
      "stateMutability": "payable",
      "type": "receive"
    }
  ],
  "bytecode": "0x608060405260405162001aa138038062001aa183398181016040528101906200002991906200014b565b600082116200006f576040517f08c379a0000000000000000000000000000000000000000000000000000000008152600401620000669062000219565b60405180910390fd5b60648110620000b5576040517f08c379a0000000000000000000000000000000000000000000000000000000008152600401620000ac90620002b1565b60405180910390fd5b336000806101000a81548173ffffffffffffffffffffffffffffffffffffffff021916908373ffffffffffffffffffffffffffffffffffffffff16021790555081600381905550806004819055505050620002d3565b600080fd5b6000819050919050565b620001258162000110565b81146200013157600080fd5b50565b60008151905062000145816200011a565b92915050565b600080604083850312156200016557620001646200010b565b5b6000620001758582860162000134565b9250506020620001888582860162000134565b9150509250929050565b600082825260208201905092915050565b7f456e74727920666565206d7573742062652067726561746572207468616e207a60008201527f65726f2e00000000000000000000000000000000000000000000000000000000602082015250565b60006200020160248362000192565b91506200020e82620001a3565b604082019050919050565b600060208201905081810360008301526200023481620001f2565b9050919050565b7f436f6d6d697373696f6e206d757374206265206c657373207468616e2031303060008201527f2e00000000000000000000000000000000000000000000000000000000000000602082015250565b60006200029960218362000192565b9150620002a6826200023b565b604082019050919050565b60006020820190508181036000830152620002cc816200028a565b9050919050565b6117be80620002e36000396000f3fe6080604052600436106100e15760003560e01c8063d30895e41161007f578063e148919111610059578063e148919114610349578063e586a4f014610374578063e9652a191461039f578063ea8a1af0146103c8576101df565b8063d30895e4146102e9578063d4f77b1c14610314578063dfbf53ae1461031e576101df565b80633e25e837116100bb5780633e25e8371461026557806359a5f12d1461027c578063bef4876b146102a7578063cc42e83a146102d2576101df565b806302d05d3f146101e4578063072ea61c1461020f5780631f2698ab1461023a576101df565b366101df57600560009054906101000a900460ff161580156101105750600560019054906101000a900460ff16155b61014f576040517f08c379a000000000000000000000000000000000000000000000000000000000815260040161014690610e70565b60405180910390fd5b60008054906101000a900473ffffffffffffffffffffffffffffffffffffffff1673ffffffffffffffffffffffffffffffffffffffff163373ffffffffffffffffffffffffffffffffffffffff16146101dd576040517f08c379a00000000000000000000000000000000000000000000000000000000081526004016101d490610f02565b60405180910390fd5b005b600080fd5b3480156101f057600080fd5b506101f96103df565b6040516102069190610f63565b60405180910390f35b34801561021b57600080fd5b50610224610403565b6040516102319190610f97565b60405180910390f35b34801561024657600080fd5b5061024f610409565b60405161025c9190610fcd565b60405180910390f35b34801561027157600080fd5b5061027a61041c565b005b34801561028857600080fd5b506102916105ca565b60405161029e9190610f63565b60405180910390f35b3480156102b357600080fd5b506102bc6105f0565b6040516102c99190610fcd565b60405180910390f35b3480156102de57600080fd5b506102e7610603565b005b3480156102f557600080fd5b506102fe610796565b60405161030b9190610f63565b60405180910390f35b61031c6107bc565b005b34801561032a57600080fd5b50610333610a1a565b6040516103409190611009565b60405180910390f35b34801561035557600080fd5b5061035e610a40565b60405161036b9190610f97565b60405180910390f35b34801561038057600080fd5b50610389610a46565b6040516103969190610f97565b60405180910390f35b3480156103ab57600080fd5b506103c660048036038101906103c19190611055565b610a50565b005b3480156103d457600080fd5b506103dd610c8d565b005b60008054906101000a900473ffffffffffffffffffffffffffffffffffffffff1681565b60035481565b600560009054906101000a900460ff1681565b600560019054906101000a900460ff1661046b576040517f08c379a0000000000000000000000000000000000000000000000000000000008152600401610462906110ce565b60405180910390fd5b60008054906101000a900473ffffffffffffffffffffffffffffffffffffffff1673ffffffffffffffffffffffffffffffffffffffff163373ffffffffffffffffffffffffffffffffffffffff16146104f9576040517f08c379a00000000000000000000000000000000000000000000000000000000081526004016104f090611160565b60405180910390fd5b6000479050600060646004548361051091906111af565b61051a9190611220565b90506000811161055f576040517f08c379a00000000000000000000000000000000000000000000000000000000081526004016105569061129d565b60405180910390fd5b60008054906101000a900473ffffffffffffffffffffffffffffffffffffffff1673ffffffffffffffffffffffffffffffffffffffff166108fc829081150290604051600060405180830381858888f193505050501580156105c5573d6000803e3d6000fd5b505050565b600260009054906101000a900473ffffffffffffffffffffffffffffffffffffffff1681565b600560019054906101000a900460ff1681565b600560019054906101000a900460ff16610652576040517f08c379a0000000000000000000000000000000000000000000000000000000008152600401610649906110ce565b60405180910390fd5b600560029054906101000a900473ffffffffffffffffffffffffffffffffffffffff1673ffffffffffffffffffffffffffffffffffffffff163373ffffffffffffffffffffffffffffffffffffffff16146106e2576040517f08c379a00000000000000000000000000000000000000000000000000000000081526004016106d99061132f565b60405180910390fd5b60004790506000811161072a576040517f08c379a00000000000000000000000000000000000000000000000000000000081526004016107219061139b565b60405180910390fd5b600560029054906101000a900473ffffffffffffffffffffffffffffffffffffffff1673ffffffffffffffffffffffffffffffffffffffff166108fc829081150290604051600060405180830381858888f19350505050158015610792573d6000803e3d6000fd5b5050565b600160009054906101000a900473ffffffffffffffffffffffffffffffffffffffff1681565b600560009054906101000a900460ff161580156107e65750600560019054906101000a900460ff16155b610825576040517f08c379a000000000000000000000000000000000000000000000000000000000815260040161081c90610e70565b60405180910390fd5b600354341460035460405160200161083d9190611433565b6040516020818303038152906040529061088d576040517f08c379a000000000000000000000000000000000000000000000000000000000815260040161088491906114d8565b60405180910390fd5b50600073ffffffffffffffffffffffffffffffffffffffff16600160009054906101000a900473ffffffffffffffffffffffffffffffffffffffff1673ffffffffffffffffffffffffffffffffffffffff160361092a5733600160006101000a81548173ffffffffffffffffffffffffffffffffffffffff021916908373ffffffffffffffffffffffffffffffffffffffff160217905550610a18565b600073ffffffffffffffffffffffffffffffffffffffff16600260009054906101000a900473ffffffffffffffffffffffffffffffffffffffff1673ffffffffffffffffffffffffffffffffffffffff16146109bb576040517f08c379a00000000000000000000000000000000000000000000000000000000081526004016109b290611546565b60405180910390fd5b33600260006101000a81548173ffffffffffffffffffffffffffffffffffffffff021916908373ffffffffffffffffffffffffffffffffffffffff1602179055506001600560006101000a81548160ff0219169083151502179055505b565b600560029054906101000a900473ffffffffffffffffffffffffffffffffffffffff1681565b60045481565b6000600354905090565b60008054906101000a900473ffffffffffffffffffffffffffffffffffffffff1673ffffffffffffffffffffffffffffffffffffffff163373ffffffffffffffffffffffffffffffffffffffff1614610ade576040517f08c379a0000000000000000000000000000000000000000000000000000000008152600401610ad5906115d8565b60405180910390fd5b600560009054906101000a900460ff168015610b075750600560019054906101000a900460ff16155b610b46576040517f08c379a0000000000000000000000000000000000000000000000000000000008152600401610b3d9061166a565b60405180910390fd5b600160009054906101000a900473ffffffffffffffffffffffffffffffffffffffff1673ffffffffffffffffffffffffffffffffffffffff168173ffffffffffffffffffffffffffffffffffffffff161480610bef5750600260009054906101000a900473ffffffffffffffffffffffffffffffffffffffff1673ffffffffffffffffffffffffffffffffffffffff168173ffffffffffffffffffffffffffffffffffffffff16145b610c2e576040517f08c379a0000000000000000000000000000000000000000000000000000000008152600401610c25906116d6565b60405180910390fd5b80600560026101000a81548173ffffffffffffffffffffffffffffffffffffffff021916908373ffffffffffffffffffffffffffffffffffffffff1602179055506001600560016101000a81548160ff02191690831515021790555050565b60008054906101000a900473ffffffffffffffffffffffffffffffffffffffff1673ffffffffffffffffffffffffffffffffffffffff163373ffffffffffffffffffffffffffffffffffffffff1614610d1b576040517f08c379a0000000000000000000000000000000000000000000000000000000008152600401610d1290611768565b60405180910390fd5b600560009054906101000a900460ff16158015610d455750600560019054906101000a900460ff16155b610d84576040517f08c379a0000000000000000000000000000000000000000000000000000000008152600401610d7b90610e70565b60405180910390fd5b60008054906101000a900473ffffffffffffffffffffffffffffffffffffffff1673ffffffffffffffffffffffffffffffffffffffff166108fc479081150290604051600060405180830381858888f19350505050158015610dea573d6000803e3d6000fd5b50565b600082825260208201905092915050565b7f47616d6520616c72656164792073746172746564206f722066696e697368656460008201527f2e00000000000000000000000000000000000000000000000000000000000000602082015250565b6000610e5a602183610ded565b9150610e6582610dfe565b604082019050919050565b60006020820190508181036000830152610e8981610e4d565b9050919050565b7f4f6e6c792063726561746f722063616e2073656e6420696e697469616c20667560008201527f6e64732e00000000000000000000000000000000000000000000000000000000602082015250565b6000610eec602483610ded565b9150610ef782610e90565b604082019050919050565b60006020820190508181036000830152610f1b81610edf565b9050919050565b600073ffffffffffffffffffffffffffffffffffffffff82169050919050565b6000610f4d82610f22565b9050919050565b610f5d81610f42565b82525050565b6000602082019050610f786000830184610f54565b92915050565b6000819050919050565b610f9181610f7e565b82525050565b6000602082019050610fac6000830184610f88565b92915050565b60008115159050919050565b610fc781610fb2565b82525050565b6000602082019050610fe26000830184610fbe565b92915050565b6000610ff382610f22565b9050919050565b61100381610fe8565b82525050565b600060208201905061101e6000830184610ffa565b92915050565b600080fd5b61103281610fe8565b811461103d57600080fd5b50565b60008135905061104f81611029565b92915050565b60006020828403121561106b5761106a611024565b5b600061107984828501611040565b91505092915050565b7f47616d65206e6f742066696e6973686564207965742e00000000000000000000600082015250565b60006110b8601683610ded565b91506110c382611082565b602082019050919050565b600060208201905081810360008301526110e7816110ab565b9050919050565b7f4f6e6c792063726561746f722063616e20776974686472617720636f6d6d697360008201527f73696f6e2e000000000000000000000000000000000000000000000000000000602082015250565b600061114a602583610ded565b9150611155826110ee565b604082019050919050565b600060208201905081810360008301526111798161113d565b9050919050565b7f4e487b7100000000000000000000000000000000000000000000000000000000600052601160045260246000fd5b60006111ba82610f7e565b91506111c583610f7e565b92508282026111d381610f7e565b915082820484148315176111ea576111e9611180565b5b5092915050565b7f4e487b7100000000000000000000000000000000000000000000000000000000600052601260045260246000fd5b600061122b82610f7e565b915061123683610f7e565b925082611246576112456111f1565b5b828204905092915050565b7f436f6d6d697373696f6e2062616c616e636520697320656d7074790000000000600082015250565b6000611287601b83610ded565b915061129282611251565b602082019050919050565b600060208201905081810360008301526112b68161127a565b9050919050565b7f4f6e6c792077696e6e65722063616e2077697468647261772077696e6e696e6760008201527f732e000000000000000000000000000000000000000000000000000000000000602082015250565b6000611319602283610ded565b9150611324826112bd565b604082019050919050565b600060208201905081810360008301526113488161130c565b9050919050565b7f436f6e74726163742062616c616e636520697320656d70747900000000000000600082015250565b6000611385601983610ded565b91506113908261134f565b602082019050919050565b600060208201905081810360008301526113b481611378565b9050919050565b600081905092915050565b7f496e636f727265637420656e747279206665652e2045787065637465643a2000600082015250565b60006113fc601f836113bb565b9150611407826113c6565b601f82019050919050565b6000819050919050565b61142d61142882610f7e565b611412565b82525050565b600061143e826113ef565b915061144a828461141c565b60208201915081905092915050565b600081519050919050565b60005b83811015611482578082015181840152602081019050611467565b60008484015250505050565b6000601f19601f8301169050919050565b60006114aa82611459565b6114b48185610ded565b93506114c4818560208601611464565b6114cd8161148e565b840191505092915050565b600060208201905081810360008301526114f2818461149f565b905092915050565b7f47616d6520697320616c72656164792066756c6c2e0000000000000000000000600082015250565b6000611530601583610ded565b915061153b826114fa565b602082019050919050565b6000602082019050818103600083015261155f81611523565b9050919050565b7f4f6e6c792063726561746f722063616e2066696e697368207468652067616d6560008201527f2e00000000000000000000000000000000000000000000000000000000000000602082015250565b60006115c2602183610ded565b91506115cd82611566565b604082019050919050565b600060208201905081810360008301526115f1816115b5565b9050919050565b7f47616d65206e6f742073746172746564206f7220616c72656164792066696e6960008201527f736865642e000000000000000000000000000000000000000000000000000000602082015250565b6000611654602583610ded565b915061165f826115f8565b604082019050919050565b6000602082019050818103600083015261168381611647565b9050919050565b7f496e76616c69642077696e6e657220616464726573732e000000000000000000600082015250565b60006116c0601783610ded565b91506116cb8261168a565b602082019050919050565b600060208201905081810360008301526116ef816116b3565b9050919050565b7f4f6e6c792063726561746f722063616e2063616e63656c207468652067616d6560008201527f2e00000000000000000000000000000000000000000000000000000000000000602082015250565b6000611752602183610ded565b915061175d826116f6565b604082019050919050565b6000602082019050818103600083015261178181611745565b905091905056fea2646970667358221220b3656a5b2d9df9dde0350e0dc7c69a21ca8bffd1fc37d14201910741d2eab51964736f6c63430008180033",
  "linkReferences": {},
  "deployedLinkReferences": {}
}