{
  "_format": "hh-sol-artifact-1",
  "contractName": "ChessGame",
  "sourceName": "contracts/Game.sol",
  "abi": [
    {
      "inputs": [
        {
          "internalType": "uint256",
          "name": "_commission",
          "type": "uint256"
        },
        {
          "internalType": "uint256",
          "name": "_MINIMUM_ENTRY_FEE",
          "type": "uint256"
        }
      ],
      "stateMutability": "payable",
      "type": "constructor"
    },
    {
      "anonymous": false,
      "inputs": [
        {
          "indexed": false,
          "internalType": "uint256",
          "name": "gameId",
          "type": "uint256"
        },
        {
          "indexed": false,
          "internalType": "enum ChessGame.Winner",
          "name": "winner",
          "type": "uint8"
        },
        {
          "indexed": false,
          "internalType": "uint256",
          "name": "reward",
          "type": "uint256"
        }
      ],
      "name": "GameFinished",
      "type": "event"
    },
    {
      "anonymous": false,
      "inputs": [
        {
          "indexed": false,
          "internalType": "uint256",
          "name": "gameId",
          "type": "uint256"
        },
        {
          "indexed": false,
          "internalType": "address",
          "name": "playerOne",
          "type": "address"
        },
        {
          "indexed": false,
          "internalType": "uint256",
          "name": "entryFee",
          "type": "uint256"
        },
        {
          "indexed": false,
          "internalType": "uint256",
          "name": "timestamp",
          "type": "uint256"
        }
      ],
      "name": "GameStarted",
      "type": "event"
    },
    {
      "anonymous": false,
      "inputs": [
        {
          "indexed": false,
          "internalType": "uint256",
          "name": "gameId",
          "type": "uint256"
        },
        {
          "indexed": false,
          "internalType": "address",
          "name": "playerTwo",
          "type": "address"
        }
      ],
      "name": "JoinedGame",
      "type": "event"
    },
    {
      "inputs": [
        {
          "internalType": "address",
          "name": "",
          "type": "address"
        }
      ],
      "name": "balance",
      "outputs": [
        {
          "internalType": "uint256",
          "name": "",
          "type": "uint256"
        }
      ],
      "stateMutability": "view",
      "type": "function"
    },
    {
      "inputs": [
        {
          "internalType": "uint256",
          "name": "gameId",
          "type": "uint256"
        }
      ],
      "name": "cancelGameIfTimeout",
      "outputs": [],
      "stateMutability": "nonpayable",
      "type": "function"
    },
    {
      "inputs": [
        {
          "internalType": "uint256",
          "name": "_amount",
          "type": "uint256"
        }
      ],
      "name": "claimRewards",
      "outputs": [],
      "stateMutability": "payable",
      "type": "function"
    },
    {
      "inputs": [],
      "name": "commission",
      "outputs": [
        {
          "internalType": "uint256",
          "name": "",
          "type": "uint256"
        }
      ],
      "stateMutability": "view",
      "type": "function"
    },
    {
      "inputs": [],
      "name": "countGame",
      "outputs": [
        {
          "internalType": "uint256",
          "name": "",
          "type": "uint256"
        }
      ],
      "stateMutability": "view",
      "type": "function"
    },
    {
      "inputs": [
        {
          "internalType": "uint256",
          "name": "_gameId",
          "type": "uint256"
        },
        {
          "internalType": "enum ChessGame.Winner",
          "name": "_winner",
          "type": "uint8"
        }
      ],
      "name": "finishGame",
      "outputs": [],
      "stateMutability": "nonpayable",
      "type": "function"
    },
    {
      "inputs": [],
      "name": "gameTimeout",
      "outputs": [
        {
          "internalType": "uint256",
          "name": "",
          "type": "uint256"
        }
      ],
      "stateMutability": "view",
      "type": "function"
    },
    {
      "inputs": [
        {
          "internalType": "uint256",
          "name": "",
          "type": "uint256"
        }
      ],
      "name": "games",
      "outputs": [
        {
          "internalType": "uint256",
          "name": "gameId",
          "type": "uint256"
        },
        {
          "internalType": "uint256",
          "name": "gameCount",
          "type": "uint256"
        },
        {
          "internalType": "uint256",
          "name": "creatingTime",
          "type": "uint256"
        },
        {
          "internalType": "address",
          "name": "playerOne",
          "type": "address"
        },
        {
          "internalType": "address",
          "name": "playerTwo",
          "type": "address"
        },
        {
          "internalType": "uint256",
          "name": "rewardPool",
          "type": "uint256"
        },
        {
          "internalType": "bool",
          "name": "isStarted",
          "type": "bool"
        },
        {
          "internalType": "bool",
          "name": "isFinished",
          "type": "bool"
        }
      ],
      "stateMutability": "view",
      "type": "function"
    },
    {
      "inputs": [
        {
          "internalType": "uint256",
          "name": "gameId",
          "type": "uint256"
        }
      ],
      "name": "joinGame",
      "outputs": [],
      "stateMutability": "payable",
      "type": "function"
    },
    {
      "inputs": [],
      "name": "owner",
      "outputs": [
        {
          "internalType": "address payable",
          "name": "",
          "type": "address"
        }
      ],
      "stateMutability": "view",
      "type": "function"
    },
    {
      "inputs": [],
      "name": "pausedAllGames",
      "outputs": [
        {
          "internalType": "bool",
          "name": "",
          "type": "bool"
        }
      ],
      "stateMutability": "view",
      "type": "function"
    },
    {
      "inputs": [
        {
          "internalType": "uint256",
          "name": "gameId",
          "type": "uint256"
        }
      ],
      "name": "startGame",
      "outputs": [],
      "stateMutability": "payable",
      "type": "function"
    },
    {
      "inputs": [],
      "name": "toggleContract",
      "outputs": [],
      "stateMutability": "nonpayable",
      "type": "function"
    },
    {
      "inputs": [
        {
          "internalType": "uint256",
          "name": "_amount",
          "type": "uint256"
        }
      ],
      "name": "withdraw",
      "outputs": [],
      "stateMutability": "payable",
      "type": "function"
    }
  ],
  "bytecode": "0x60a060405260018055603c60045560405162002a1238038062002a128339818101604052810190620000329190620002fa565b6032821062000078576040517f08c379a00000000000000000000000000000000000000000000000000000000081526004016200006f90620003a2565b60405180910390fd5b6064811015620000bf576040517f08c379a0000000000000000000000000000000000000000000000000000000008152600401620000b69062000414565b60405180910390fd5b336000806101000a81548173ffffffffffffffffffffffffffffffffffffffff021916908373ffffffffffffffffffffffffffffffffffffffff1602179055508160038190555080608081815250506200011862000245565b600681908060018154018082558091505060019003906000526020600020906007020160009091909190915060008201518160000155602082015181600101556040820151816002015560608201518160030160006101000a81548173ffffffffffffffffffffffffffffffffffffffff021916908373ffffffffffffffffffffffffffffffffffffffff16021790555060808201518160040160006101000a81548173ffffffffffffffffffffffffffffffffffffffff021916908373ffffffffffffffffffffffffffffffffffffffff16021790555060a0820151816005015560c08201518160060160006101000a81548160ff02191690831515021790555060e08201518160060160016101000a81548160ff021916908315150217905550505050505062000436565b604051806101000160405280600081526020016000815260200160008152602001600073ffffffffffffffffffffffffffffffffffffffff168152602001600073ffffffffffffffffffffffffffffffffffffffff168152602001600081526020016000151581526020016000151581525090565b600080fd5b6000819050919050565b620002d481620002bf565b8114620002e057600080fd5b50565b600081519050620002f481620002c9565b92915050565b60008060408385031215620003145762000313620002ba565b5b60006200032485828601620002e3565b92505060206200033785828601620002e3565b9150509250929050565b600082825260208201905092915050565b7f436f6d6d697373696f6e2073686f756c64206265203c2035302e000000000000600082015250565b60006200038a601a8362000341565b9150620003978262000352565b602082019050919050565b60006020820190508181036000830152620003bd816200037b565b9050919050565b7f4d696e206665652073686f756c64206265203e3d203130300000000000000000600082015250565b6000620003fc60188362000341565b91506200040982620003c4565b602082019050919050565b600060208201905081810360008301526200042f81620003ed565b9050919050565b6080516125c0620004526000396000610faa01526125c06000f3fe6080604052600436106100dd5760003560e01c80638da5cb5b1161007f578063e148919111610059578063e148919114610273578063e3d670d71461029e578063e5ed1d59146102db578063efaa55a0146102f7576100dd565b80638da5cb5b146102065780639df9002814610231578063d0232c7014610248576100dd565b80632d4e8c46116100bb5780632d4e8c461461016d5780632e1a7d4d146101965780633bb6c5f4146101b25780633efcf78e146101dd576100dd565b80630962ef79146100e2578063117a5b90146100fe5780631e72553d14610142575b600080fd5b6100fc60048036038101906100f79190611a29565b610313565b005b34801561010a57600080fd5b5061012560048036038101906101209190611a29565b61049b565b604051610139989796959493929190611ac1565b60405180910390f35b34801561014e57600080fd5b5061015761054d565b6040516101649190611b3f565b60405180910390f35b34801561017957600080fd5b50610194600480360381019061018f9190611b7f565b610553565b005b6101b060048036038101906101ab9190611a29565b610762565b005b3480156101be57600080fd5b506101c7610978565b6040516101d49190611b3f565b60405180910390f35b3480156101e957600080fd5b5061020460048036038101906101ff9190611a29565b61097e565b005b34801561021257600080fd5b5061021b610e49565b6040516102289190611be0565b60405180910390f35b34801561023d57600080fd5b50610246610e6d565b005b34801561025457600080fd5b5061025d610f27565b60405161026a9190611bfb565b60405180910390f35b34801561027f57600080fd5b50610288610f3a565b6040516102959190611b3f565b60405180910390f35b3480156102aa57600080fd5b506102c560048036038101906102c09190611c42565b610f40565b6040516102d29190611b3f565b60405180910390f35b6102f560048036038101906102f09190611a29565b610f58565b005b610311600480360381019061030c9190611a29565b6111f5565b005b80600560003373ffffffffffffffffffffffffffffffffffffffff1673ffffffffffffffffffffffffffffffffffffffff168152602001908152602001600020541015610395576040517f08c379a000000000000000000000000000000000000000000000000000000000815260040161038c90611ccc565b60405180910390fd5b80600560003373ffffffffffffffffffffffffffffffffffffffff1673ffffffffffffffffffffffffffffffffffffffff16815260200190815260200160002060008282546103e49190611d1b565b9250508190555060003373ffffffffffffffffffffffffffffffffffffffff168260405161041190611d80565b60006040518083038185875af1925050503d806000811461044e576040519150601f19603f3d011682016040523d82523d6000602084013e610453565b606091505b5050905080610497576040517f08c379a000000000000000000000000000000000000000000000000000000000815260040161048e90611de1565b60405180910390fd5b5050565b600681815481106104ab57600080fd5b90600052602060002090600702016000915090508060000154908060010154908060020154908060030160009054906101000a900473ffffffffffffffffffffffffffffffffffffffff16908060040160009054906101000a900473ffffffffffffffffffffffffffffffffffffffff16908060050154908060060160009054906101000a900460ff16908060060160019054906101000a900460ff16905088565b60045481565b60008054906101000a900473ffffffffffffffffffffffffffffffffffffffff1673ffffffffffffffffffffffffffffffffffffffff163373ffffffffffffffffffffffffffffffffffffffff16146105e1576040517f08c379a00000000000000000000000000000000000000000000000000000000081526004016105d890611e4d565b60405180910390fd5b6000600683815481106105f7576105f6611e6d565b5b906000526020600020906007020190508060060160009054906101000a900460ff16610658576040517f08c379a000000000000000000000000000000000000000000000000000000000815260040161064f90611ee8565b60405180910390fd5b8060060160019054906101000a900460ff16156106aa576040517f08c379a00000000000000000000000000000000000000000000000000000000081526004016106a190611f54565b60405180910390fd5b60018160060160016101000a81548160ff0219169083151502179055507e21feea4608e6756f982d5bd71c09645176b4865cf6bd600fcc4aa990f02404838383600501546040516106fd93929190611feb565b60405180910390a161075d8160050154838360030160009054906101000a900473ffffffffffffffffffffffffffffffffffffffff168460040160009054906101000a900473ffffffffffffffffffffffffffffffffffffffff16611639565b505050565b60008054906101000a900473ffffffffffffffffffffffffffffffffffffffff1673ffffffffffffffffffffffffffffffffffffffff163373ffffffffffffffffffffffffffffffffffffffff16146107f0576040517f08c379a00000000000000000000000000000000000000000000000000000000081526004016107e790611e4d565b60405180910390fd5b80600560003073ffffffffffffffffffffffffffffffffffffffff1673ffffffffffffffffffffffffffffffffffffffff168152602001908152602001600020541015610872576040517f08c379a000000000000000000000000000000000000000000000000000000000815260040161086990611ccc565b60405180910390fd5b80600560003073ffffffffffffffffffffffffffffffffffffffff1673ffffffffffffffffffffffffffffffffffffffff16815260200190815260200160002060008282546108c19190611d1b565b9250508190555060003373ffffffffffffffffffffffffffffffffffffffff16826040516108ee90611d80565b60006040518083038185875af1925050503d806000811461092b576040519150601f19603f3d011682016040523d82523d6000602084013e610930565b606091505b5050905080610974576040517f08c379a000000000000000000000000000000000000000000000000000000000815260040161096b9061206e565b60405180910390fd5b5050565b60015481565b3373ffffffffffffffffffffffffffffffffffffffff16600682815481106109a9576109a8611e6d565b5b906000526020600020906007020160030160009054906101000a900473ffffffffffffffffffffffffffffffffffffffff1673ffffffffffffffffffffffffffffffffffffffff161480610a6d57503373ffffffffffffffffffffffffffffffffffffffff1660068281548110610a2357610a22611e6d565b5b906000526020600020906007020160040160009054906101000a900473ffffffffffffffffffffffffffffffffffffffff1673ffffffffffffffffffffffffffffffffffffffff16145b610aac576040517f08c379a0000000000000000000000000000000000000000000000000000000008152600401610aa3906120da565b60405180910390fd5b60068181548110610ac057610abf611e6d565b5b906000526020600020906007020160060160009054906101000a900460ff1615610b1f576040517f08c379a0000000000000000000000000000000000000000000000000000000008152600401610b1690612146565b60405180910390fd5b60045460068281548110610b3657610b35611e6d565b5b906000526020600020906007020160020154610b529190612166565b4210610e4657600160068281548110610b6e57610b6d611e6d565b5b906000526020600020906007020160060160016101000a81548160ff021916908315150217905550600073ffffffffffffffffffffffffffffffffffffffff1660068281548110610bc257610bc1611e6d565b5b906000526020600020906007020160030160009054906101000a900473ffffffffffffffffffffffffffffffffffffffff1673ffffffffffffffffffffffffffffffffffffffff1614610cd05760068181548110610c2357610c22611e6d565b5b9060005260206000209060070201600501546005600060068481548110610c4d57610c4c611e6d565b5b906000526020600020906007020160030160009054906101000a900473ffffffffffffffffffffffffffffffffffffffff1673ffffffffffffffffffffffffffffffffffffffff1673ffffffffffffffffffffffffffffffffffffffff1681526020019081526020016000206000828254610cc89190612166565b925050819055505b600073ffffffffffffffffffffffffffffffffffffffff1660068281548110610cfc57610cfb611e6d565b5b906000526020600020906007020160040160009054906101000a900473ffffffffffffffffffffffffffffffffffffffff1673ffffffffffffffffffffffffffffffffffffffff1614610e0a5760068181548110610d5d57610d5c611e6d565b5b9060005260206000209060070201600501546005600060068481548110610d8757610d86611e6d565b5b906000526020600020906007020160040160009054906101000a900473ffffffffffffffffffffffffffffffffffffffff1673ffffffffffffffffffffffffffffffffffffffff1673ffffffffffffffffffffffffffffffffffffffff1681526020019081526020016000206000828254610e029190612166565b925050819055505b7e21feea4608e6756f982d5bd71c09645176b4865cf6bd600fcc4aa990f0240481600080604051610e3d939291906121df565b60405180910390a15b50565b60008054906101000a900473ffffffffffffffffffffffffffffffffffffffff1681565b60008054906101000a900473ffffffffffffffffffffffffffffffffffffffff1673ffffffffffffffffffffffffffffffffffffffff163373ffffffffffffffffffffffffffffffffffffffff1614610efb576040517f08c379a0000000000000000000000000000000000000000000000000000000008152600401610ef290611e4d565b60405180910390fd5b600260009054906101000a900460ff1615600260006101000a81548160ff021916908315150217905550565b600260009054906101000a900460ff1681565b60035481565b60056020528060005260406000206000915090505481565b600260009054906101000a900460ff1615610fa8576040517f08c379a0000000000000000000000000000000000000000000000000000000008152600401610f9f90612262565b60405180910390fd5b7f0000000000000000000000000000000000000000000000000000000000000000341161100a576040517f08c379a0000000000000000000000000000000000000000000000000000000008152600401611001906122ce565b60405180910390fd5b611012611979565b8181600001818152505060015481602001818152505033816060019073ffffffffffffffffffffffffffffffffffffffff16908173ffffffffffffffffffffffffffffffffffffffff168152505042816040018181525050348160a0018181525050600681908060018154018082558091505060019003906000526020600020906007020160009091909190915060008201518160000155602082015181600101556040820151816002015560608201518160030160006101000a81548173ffffffffffffffffffffffffffffffffffffffff021916908373ffffffffffffffffffffffffffffffffffffffff16021790555060808201518160040160006101000a81548173ffffffffffffffffffffffffffffffffffffffff021916908373ffffffffffffffffffffffffffffffffffffffff16021790555060a0820151816005015560c08201518160060160006101000a81548160ff02191690831515021790555060e08201518160060160016101000a81548160ff02191690831515021790555050507f84228d3018120f886d4debf807f1a71ddef36c16b96045e7a4aab36f838d8beb82333484604001516040516111d194939291906122ee565b60405180910390a1600160008154809291906111ec90612333565b91905055505050565b600260009054906101000a900460ff1615611245576040517f08c379a000000000000000000000000000000000000000000000000000000000815260040161123c90612262565b60405180910390fd5b60006006828154811061125b5761125a611e6d565b5b9060005260206000209060070201604051806101000160405290816000820154815260200160018201548152602001600282015481526020016003820160009054906101000a900473ffffffffffffffffffffffffffffffffffffffff1673ffffffffffffffffffffffffffffffffffffffff1673ffffffffffffffffffffffffffffffffffffffff1681526020016004820160009054906101000a900473ffffffffffffffffffffffffffffffffffffffff1673ffffffffffffffffffffffffffffffffffffffff1673ffffffffffffffffffffffffffffffffffffffff168152602001600582015481526020016006820160009054906101000a900460ff161515151581526020016006820160019054906101000a900460ff16151515158152505090508060a0015134146113c7576040517f08c379a00000000000000000000000000000000000000000000000000000000081526004016113be906123c7565b60405180910390fd5b8060c001511561140c576040517f08c379a000000000000000000000000000000000000000000000000000000000815260040161140390612433565b60405180910390fd5b3373ffffffffffffffffffffffffffffffffffffffff16816060015173ffffffffffffffffffffffffffffffffffffffff160361147e576040517f08c379a00000000000000000000000000000000000000000000000000000000081526004016114759061249f565b60405180910390fd5b33816080019073ffffffffffffffffffffffffffffffffffffffff16908173ffffffffffffffffffffffffffffffffffffffff1681525050348160a0018181516114c89190612166565b9150818152505060018160c001901515908115158152505080600683815481106114f5576114f4611e6d565b5b906000526020600020906007020160008201518160000155602082015181600101556040820151816002015560608201518160030160006101000a81548173ffffffffffffffffffffffffffffffffffffffff021916908373ffffffffffffffffffffffffffffffffffffffff16021790555060808201518160040160006101000a81548173ffffffffffffffffffffffffffffffffffffffff021916908373ffffffffffffffffffffffffffffffffffffffff16021790555060a0820151816005015560c08201518160060160006101000a81548160ff02191690831515021790555060e08201518160060160016101000a81548160ff0219169083151502179055509050507f1f8563b32a0bf618f00d2cbcb52b004d5757561ee12274f8c1d85b6f44fa551a823360405161162d9291906124bf565b60405180910390a15050565b6001600381111561164d5761164c611f74565b5b8360038111156116605761165f611f74565b5b03611760576000606460035460646116789190611d1b565b8661168391906124e8565b61168d9190612559565b905060006064600354876116a191906124e8565b6116ab9190612559565b905081600560008673ffffffffffffffffffffffffffffffffffffffff1673ffffffffffffffffffffffffffffffffffffffff16815260200190815260200160002060008282546116fc9190612166565b9250508190555080600560003073ffffffffffffffffffffffffffffffffffffffff1673ffffffffffffffffffffffffffffffffffffffff16815260200190815260200160002060008282546117529190612166565b925050819055505050611973565b6002600381111561177457611773611f74565b5b83600381111561178757611786611f74565b5b036118875760006064600354606461179f9190611d1b565b866117aa91906124e8565b6117b49190612559565b905060006064600354876117c891906124e8565b6117d29190612559565b905081600560008573ffffffffffffffffffffffffffffffffffffffff1673ffffffffffffffffffffffffffffffffffffffff16815260200190815260200160002060008282546118239190612166565b9250508190555080600560003073ffffffffffffffffffffffffffffffffffffffff1673ffffffffffffffffffffffffffffffffffffffff16815260200190815260200160002060008282546118799190612166565b925050819055505050611972565b60038081111561189a57611899611f74565b5b8360038111156118ad576118ac611f74565b5b036119715760006002856118c19190612559565b905080600560008573ffffffffffffffffffffffffffffffffffffffff1673ffffffffffffffffffffffffffffffffffffffff16815260200190815260200160002060008282546119129190612166565b9250508190555080600560008473ffffffffffffffffffffffffffffffffffffffff1673ffffffffffffffffffffffffffffffffffffffff16815260200190815260200160002060008282546119689190612166565b92505081905550505b5b5b50505050565b604051806101000160405280600081526020016000815260200160008152602001600073ffffffffffffffffffffffffffffffffffffffff168152602001600073ffffffffffffffffffffffffffffffffffffffff168152602001600081526020016000151581526020016000151581525090565b600080fd5b6000819050919050565b611a06816119f3565b8114611a1157600080fd5b50565b600081359050611a23816119fd565b92915050565b600060208284031215611a3f57611a3e6119ee565b5b6000611a4d84828501611a14565b91505092915050565b611a5f816119f3565b82525050565b600073ffffffffffffffffffffffffffffffffffffffff82169050919050565b6000611a9082611a65565b9050919050565b611aa081611a85565b82525050565b60008115159050919050565b611abb81611aa6565b82525050565b600061010082019050611ad7600083018b611a56565b611ae4602083018a611a56565b611af16040830189611a56565b611afe6060830188611a97565b611b0b6080830187611a97565b611b1860a0830186611a56565b611b2560c0830185611ab2565b611b3260e0830184611ab2565b9998505050505050505050565b6000602082019050611b546000830184611a56565b92915050565b60048110611b6757600080fd5b50565b600081359050611b7981611b5a565b92915050565b60008060408385031215611b9657611b956119ee565b5b6000611ba485828601611a14565b9250506020611bb585828601611b6a565b9150509250929050565b6000611bca82611a65565b9050919050565b611bda81611bbf565b82525050565b6000602082019050611bf56000830184611bd1565b92915050565b6000602082019050611c106000830184611ab2565b92915050565b611c1f81611a85565b8114611c2a57600080fd5b50565b600081359050611c3c81611c16565b92915050565b600060208284031215611c5857611c576119ee565b5b6000611c6684828501611c2d565b91505092915050565b600082825260208201905092915050565b7f4e6f7420656e6f7567682062616c616e63652e00000000000000000000000000600082015250565b6000611cb6601383611c6f565b9150611cc182611c80565b602082019050919050565b60006020820190508181036000830152611ce581611ca9565b9050919050565b7f4e487b7100000000000000000000000000000000000000000000000000000000600052601160045260246000fd5b6000611d26826119f3565b9150611d31836119f3565b9250828203905081811115611d4957611d48611cec565b5b92915050565b600081905092915050565b50565b6000611d6a600083611d4f565b9150611d7582611d5a565b600082019050919050565b6000611d8b82611d5d565b9150819050919050565b7f4661696c656420746f20636c61696d20726577617264732e0000000000000000600082015250565b6000611dcb601883611c6f565b9150611dd682611d95565b602082019050919050565b60006020820190508181036000830152611dfa81611dbe565b9050919050565b7f4e6f74206f776e65722e00000000000000000000000000000000000000000000600082015250565b6000611e37600a83611c6f565b9150611e4282611e01565b602082019050919050565b60006020820190508181036000830152611e6681611e2a565b9050919050565b7f4e487b7100000000000000000000000000000000000000000000000000000000600052603260045260246000fd5b7f47616d65206e6f7420737461727465642e000000000000000000000000000000600082015250565b6000611ed2601183611c6f565b9150611edd82611e9c565b602082019050919050565b60006020820190508181036000830152611f0181611ec5565b9050919050565b7f47616d6520616c72656164792066696e69736865642e00000000000000000000600082015250565b6000611f3e601683611c6f565b9150611f4982611f08565b602082019050919050565b60006020820190508181036000830152611f6d81611f31565b9050919050565b7f4e487b7100000000000000000000000000000000000000000000000000000000600052602160045260246000fd5b60048110611fb457611fb3611f74565b5b50565b6000819050611fc582611fa3565b919050565b6000611fd582611fb7565b9050919050565b611fe581611fca565b82525050565b60006060820190506120006000830186611a56565b61200d6020830185611fdc565b61201a6040830184611a56565b949350505050565b7f4661696c656420746f2077697468647261772e00000000000000000000000000600082015250565b6000612058601383611c6f565b915061206382612022565b602082019050919050565b600060208201905081810360008301526120878161204b565b9050919050565b7f556e617574686f72697a65640000000000000000000000000000000000000000600082015250565b60006120c4600c83611c6f565b91506120cf8261208e565b602082019050919050565b600060208201905081810360008301526120f3816120b7565b9050919050565b7f47616d6520616c72656164792073746172746564000000000000000000000000600082015250565b6000612130601483611c6f565b915061213b826120fa565b602082019050919050565b6000602082019050818103600083015261215f81612123565b9050919050565b6000612171826119f3565b915061217c836119f3565b925082820190508082111561219457612193611cec565b5b92915050565b6000819050919050565b6000819050919050565b60006121c96121c46121bf8461219a565b6121a4565b6119f3565b9050919050565b6121d9816121ae565b82525050565b60006060820190506121f46000830186611a56565b6122016020830185611fdc565b61220e60408301846121d0565b949350505050565b7f47616d657320617265207061757365642e000000000000000000000000000000600082015250565b600061224c601183611c6f565b915061225782612216565b602082019050919050565b6000602082019050818103600083015261227b8161223f565b9050919050565b7f53657420666565206869676865722e0000000000000000000000000000000000600082015250565b60006122b8600f83611c6f565b91506122c382612282565b602082019050919050565b600060208201905081810360008301526122e7816122ab565b9050919050565b60006080820190506123036000830187611a56565b6123106020830186611a97565b61231d6040830185611a56565b61232a6060830184611a56565b95945050505050565b600061233e826119f3565b91507fffffffffffffffffffffffffffffffffffffffffffffffffffffffffffffffff82036123705761236f611cec565b5b600182019050919050565b7f57726f6e6720656e747279206665652e00000000000000000000000000000000600082015250565b60006123b1601083611c6f565b91506123bc8261237b565b602082019050919050565b600060208201905081810360008301526123e0816123a4565b9050919050565b7f416c726561647920737461727465642e00000000000000000000000000000000600082015250565b600061241d601083611c6f565b9150612428826123e7565b602082019050919050565b6000602082019050818103600083015261244c81612410565b9050919050565b7f596f752061726520503120616c736f2e00000000000000000000000000000000600082015250565b6000612489601083611c6f565b915061249482612453565b602082019050919050565b600060208201905081810360008301526124b88161247c565b9050919050565b60006040820190506124d46000830185611a56565b6124e16020830184611a97565b9392505050565b60006124f3826119f3565b91506124fe836119f3565b925082820261250c816119f3565b9150828204841483151761252357612522611cec565b5b5092915050565b7f4e487b7100000000000000000000000000000000000000000000000000000000600052601260045260246000fd5b6000612564826119f3565b915061256f836119f3565b92508261257f5761257e61252a565b5b82820490509291505056fea264697066735822122049a7737577b904789e3468b408406db5406f1189eba691c45f08a6b844bea2f164736f6c63430008180033",
  "linkReferences": {},
  "deployedLinkReferences": {}
}