{
  "_format": "hh-sol-artifact-1",
  "contractName": "ChessGame",
  "sourceName": "contracts/Game.sol",
  "abi": [
    {
      "inputs": [
        {
          "internalType": "uint256",
          "name": "_commission",
          "type": "uint256"
        },
        {
          "internalType": "uint256",
          "name": "_MINIMUM_ENTRY_FEE",
          "type": "uint256"
        }
      ],
      "stateMutability": "payable",
      "type": "constructor"
    },
    {
      "anonymous": false,
      "inputs": [
        {
          "indexed": false,
          "internalType": "uint256",
          "name": "gameId",
          "type": "uint256"
        },
        {
          "indexed": false,
          "internalType": "enum ChessGame.Winner",
          "name": "winner",
          "type": "uint8"
        },
        {
          "indexed": false,
          "internalType": "uint256",
          "name": "reward",
          "type": "uint256"
        }
      ],
      "name": "GameFinished",
      "type": "event"
    },
    {
      "anonymous": false,
      "inputs": [
        {
          "indexed": false,
          "internalType": "uint256",
          "name": "gameId",
          "type": "uint256"
        },
        {
          "indexed": false,
          "internalType": "address",
          "name": "playerOne",
          "type": "address"
        },
        {
          "indexed": false,
          "internalType": "uint256",
          "name": "entryFee",
          "type": "uint256"
        }
      ],
      "name": "GameStarted",
      "type": "event"
    },
    {
      "anonymous": false,
      "inputs": [
        {
          "indexed": false,
          "internalType": "uint256",
          "name": "gameId",
          "type": "uint256"
        },
        {
          "indexed": false,
          "internalType": "address",
          "name": "playerTwo",
          "type": "address"
        }
      ],
      "name": "JoinedGame",
      "type": "event"
    },
    {
      "inputs": [
        {
          "internalType": "address",
          "name": "",
          "type": "address"
        }
      ],
      "name": "balance",
      "outputs": [
        {
          "internalType": "uint256",
          "name": "",
          "type": "uint256"
        }
      ],
      "stateMutability": "view",
      "type": "function"
    },
    {
      "inputs": [
        {
          "internalType": "uint256",
          "name": "_amount",
          "type": "uint256"
        }
      ],
      "name": "claimRewards",
      "outputs": [],
      "stateMutability": "payable",
      "type": "function"
    },
    {
      "inputs": [],
      "name": "commission",
      "outputs": [
        {
          "internalType": "uint256",
          "name": "",
          "type": "uint256"
        }
      ],
      "stateMutability": "view",
      "type": "function"
    },
    {
      "inputs": [],
      "name": "countGame",
      "outputs": [
        {
          "internalType": "uint256",
          "name": "",
          "type": "uint256"
        }
      ],
      "stateMutability": "view",
      "type": "function"
    },
    {
      "inputs": [
        {
          "internalType": "uint256",
          "name": "_gameId",
          "type": "uint256"
        },
        {
          "internalType": "enum ChessGame.Winner",
          "name": "_winner",
          "type": "uint8"
        }
      ],
      "name": "finishGame",
      "outputs": [],
      "stateMutability": "nonpayable",
      "type": "function"
    },
    {
      "inputs": [
        {
          "internalType": "uint256",
          "name": "",
          "type": "uint256"
        }
      ],
      "name": "games",
      "outputs": [
        {
          "internalType": "uint256",
          "name": "gameId",
          "type": "uint256"
        },
        {
          "internalType": "uint256",
          "name": "creatingTime",
          "type": "uint256"
        },
        {
          "internalType": "address",
          "name": "playerOne",
          "type": "address"
        },
        {
          "internalType": "address",
          "name": "playerTwo",
          "type": "address"
        },
        {
          "internalType": "uint256",
          "name": "rewardPool",
          "type": "uint256"
        },
        {
          "internalType": "bool",
          "name": "isStarted",
          "type": "bool"
        },
        {
          "internalType": "bool",
          "name": "isFinished",
          "type": "bool"
        }
      ],
      "stateMutability": "view",
      "type": "function"
    },
    {
      "inputs": [
        {
          "internalType": "uint256",
          "name": "_gameId",
          "type": "uint256"
        }
      ],
      "name": "joinGame",
      "outputs": [],
      "stateMutability": "payable",
      "type": "function"
    },
    {
      "inputs": [],
      "name": "owner",
      "outputs": [
        {
          "internalType": "address payable",
          "name": "",
          "type": "address"
        }
      ],
      "stateMutability": "view",
      "type": "function"
    },
    {
      "inputs": [],
      "name": "pausedAllGames",
      "outputs": [
        {
          "internalType": "bool",
          "name": "",
          "type": "bool"
        }
      ],
      "stateMutability": "view",
      "type": "function"
    },
    {
      "inputs": [],
      "name": "startGame",
      "outputs": [],
      "stateMutability": "payable",
      "type": "function"
    },
    {
      "inputs": [],
      "name": "toggleContract",
      "outputs": [],
      "stateMutability": "nonpayable",
      "type": "function"
    },
    {
      "inputs": [
        {
          "internalType": "uint256",
          "name": "_amount",
          "type": "uint256"
        }
      ],
      "name": "withdraw",
      "outputs": [],
      "stateMutability": "payable",
      "type": "function"
    }
  ],
  "bytecode": "0x60a060405260018055604051620022e0380380620022e083398181016040528101906200002d9190620002e3565b6032821062000073576040517f08c379a00000000000000000000000000000000000000000000000000000000081526004016200006a906200038b565b60405180910390fd5b6064811015620000ba576040517f08c379a0000000000000000000000000000000000000000000000000000000008152600401620000b190620003fd565b60405180910390fd5b336000806101000a81548173ffffffffffffffffffffffffffffffffffffffff021916908373ffffffffffffffffffffffffffffffffffffffff1602179055508160038190555080608081815250506200011362000236565b6005819080600181540180825580915050600190039060005260206000209060060201600090919091909150600082015181600001556020820151816001015560408201518160020160006101000a81548173ffffffffffffffffffffffffffffffffffffffff021916908373ffffffffffffffffffffffffffffffffffffffff16021790555060608201518160030160006101000a81548173ffffffffffffffffffffffffffffffffffffffff021916908373ffffffffffffffffffffffffffffffffffffffff1602179055506080820151816004015560a08201518160050160006101000a81548160ff02191690831515021790555060c08201518160050160016101000a81548160ff02191690831515021790555050505050506200041f565b6040518060e001604052806000815260200160008152602001600073ffffffffffffffffffffffffffffffffffffffff168152602001600073ffffffffffffffffffffffffffffffffffffffff168152602001600081526020016000151581526020016000151581525090565b600080fd5b6000819050919050565b620002bd81620002a8565b8114620002c957600080fd5b50565b600081519050620002dd81620002b2565b92915050565b60008060408385031215620002fd57620002fc620002a3565b5b60006200030d85828601620002cc565b92505060206200032085828601620002cc565b9150509250929050565b600082825260208201905092915050565b7f436f6d6d697373696f6e2073686f756c64206265203c2035302e000000000000600082015250565b600062000373601a836200032a565b915062000380826200033b565b602082019050919050565b60006020820190508181036000830152620003a68162000364565b9050919050565b7f4d696e206665652073686f756c64206265203e3d203130300000000000000000600082015250565b6000620003e56018836200032a565b9150620003f282620003ad565b602082019050919050565b600060208201905081810360008301526200041881620003d6565b9050919050565b608051611ea56200043b6000396000610a180152611ea56000f3fe6080604052600436106100a75760003560e01c80639df90028116100645780639df90028146101a6578063d0232c70146101bd578063d65ab5f2146101e8578063e1489191146101f2578063e3d670d71461021d578063efaa55a01461025a576100a7565b80630962ef79146100ac578063117a5b90146100c85780632d4e8c461461010b5780632e1a7d4d146101345780633bb6c5f4146101505780638da5cb5b1461017b575b600080fd5b6100c660048036038101906100c1919061147f565b610276565b005b3480156100d457600080fd5b506100ef60048036038101906100ea919061147f565b6103fe565b6040516101029796959493929190611517565b60405180910390f35b34801561011757600080fd5b50610132600480360381019061012d91906115ab565b6104aa565b005b61014e6004803603810190610149919061147f565b6106b9565b005b34801561015c57600080fd5b506101656108cf565b60405161017291906115eb565b60405180910390f35b34801561018757600080fd5b506101906108d5565b60405161019d9190611627565b60405180910390f35b3480156101b257600080fd5b506101bb6108f9565b005b3480156101c957600080fd5b506101d26109b3565b6040516101df9190611642565b60405180910390f35b6101f06109c6565b005b3480156101fe57600080fd5b50610207610c4a565b60405161021491906115eb565b60405180910390f35b34801561022957600080fd5b50610244600480360381019061023f9190611689565b610c50565b60405161025191906115eb565b60405180910390f35b610274600480360381019061026f919061147f565b610c68565b005b80600460003373ffffffffffffffffffffffffffffffffffffffff1673ffffffffffffffffffffffffffffffffffffffff1681526020019081526020016000205410156102f8576040517f08c379a00000000000000000000000000000000000000000000000000000000081526004016102ef90611713565b60405180910390fd5b80600460003373ffffffffffffffffffffffffffffffffffffffff1673ffffffffffffffffffffffffffffffffffffffff16815260200190815260200160002060008282546103479190611762565b9250508190555060003373ffffffffffffffffffffffffffffffffffffffff1682604051610374906117c7565b60006040518083038185875af1925050503d80600081146103b1576040519150601f19603f3d011682016040523d82523d6000602084013e6103b6565b606091505b50509050806103fa576040517f08c379a00000000000000000000000000000000000000000000000000000000081526004016103f190611828565b60405180910390fd5b5050565b6005818154811061040e57600080fd5b90600052602060002090600602016000915090508060000154908060010154908060020160009054906101000a900473ffffffffffffffffffffffffffffffffffffffff16908060030160009054906101000a900473ffffffffffffffffffffffffffffffffffffffff16908060040154908060050160009054906101000a900460ff16908060050160019054906101000a900460ff16905087565b60008054906101000a900473ffffffffffffffffffffffffffffffffffffffff1673ffffffffffffffffffffffffffffffffffffffff163373ffffffffffffffffffffffffffffffffffffffff1614610538576040517f08c379a000000000000000000000000000000000000000000000000000000000815260040161052f90611894565b60405180910390fd5b60006005838154811061054e5761054d6118b4565b5b906000526020600020906006020190508060050160009054906101000a900460ff166105af576040517f08c379a00000000000000000000000000000000000000000000000000000000081526004016105a69061192f565b60405180910390fd5b8060050160019054906101000a900460ff1615610601576040517f08c379a00000000000000000000000000000000000000000000000000000000081526004016105f89061199b565b60405180910390fd5b60018160050160016101000a81548160ff0219169083151502179055507e21feea4608e6756f982d5bd71c09645176b4865cf6bd600fcc4aa990f024048383836004015460405161065493929190611a32565b60405180910390a16106b48160040154838360020160009054906101000a900473ffffffffffffffffffffffffffffffffffffffff168460030160009054906101000a900473ffffffffffffffffffffffffffffffffffffffff16611097565b505050565b60008054906101000a900473ffffffffffffffffffffffffffffffffffffffff1673ffffffffffffffffffffffffffffffffffffffff163373ffffffffffffffffffffffffffffffffffffffff1614610747576040517f08c379a000000000000000000000000000000000000000000000000000000000815260040161073e90611894565b60405180910390fd5b80600460003073ffffffffffffffffffffffffffffffffffffffff1673ffffffffffffffffffffffffffffffffffffffff1681526020019081526020016000205410156107c9576040517f08c379a00000000000000000000000000000000000000000000000000000000081526004016107c090611713565b60405180910390fd5b80600460003073ffffffffffffffffffffffffffffffffffffffff1673ffffffffffffffffffffffffffffffffffffffff16815260200190815260200160002060008282546108189190611762565b9250508190555060003373ffffffffffffffffffffffffffffffffffffffff1682604051610845906117c7565b60006040518083038185875af1925050503d8060008114610882576040519150601f19603f3d011682016040523d82523d6000602084013e610887565b606091505b50509050806108cb576040517f08c379a00000000000000000000000000000000000000000000000000000000081526004016108c290611ab5565b60405180910390fd5b5050565b60015481565b60008054906101000a900473ffffffffffffffffffffffffffffffffffffffff1681565b60008054906101000a900473ffffffffffffffffffffffffffffffffffffffff1673ffffffffffffffffffffffffffffffffffffffff163373ffffffffffffffffffffffffffffffffffffffff1614610987576040517f08c379a000000000000000000000000000000000000000000000000000000000815260040161097e90611894565b60405180910390fd5b600260009054906101000a900460ff1615600260006101000a81548160ff021916908315150217905550565b600260009054906101000a900460ff1681565b600260009054906101000a900460ff1615610a16576040517f08c379a0000000000000000000000000000000000000000000000000000000008152600401610a0d90611b21565b60405180910390fd5b7f00000000000000000000000000000000000000000000000000000000000000003411610a78576040517f08c379a0000000000000000000000000000000000000000000000000000000008152600401610a6f90611b8d565b60405180910390fd5b610a806113d7565b60015481600001818152505033816040019073ffffffffffffffffffffffffffffffffffffffff16908173ffffffffffffffffffffffffffffffffffffffff168152505042816020018181525050348160800181815250506005819080600181540180825580915050600190039060005260206000209060060201600090919091909150600082015181600001556020820151816001015560408201518160020160006101000a81548173ffffffffffffffffffffffffffffffffffffffff021916908373ffffffffffffffffffffffffffffffffffffffff16021790555060608201518160030160006101000a81548173ffffffffffffffffffffffffffffffffffffffff021916908373ffffffffffffffffffffffffffffffffffffffff1602179055506080820151816004015560a08201518160050160006101000a81548160ff02191690831515021790555060c08201518160050160016101000a81548160ff02191690831515021790555050507f0c82908456d66c43e9de63edd66f9faf875c8f3a12f936e162d675ec42c354446001543334604051610c2793929190611bad565b60405180910390a160016000815480929190610c4290611be4565b919050555050565b60035481565b60046020528060005260406000206000915090505481565b600260009054906101000a900460ff1615610cb8576040517f08c379a0000000000000000000000000000000000000000000000000000000008152600401610caf90611b21565b60405180910390fd5b600060058281548110610cce57610ccd6118b4565b5b90600052602060002090600602016040518060e001604052908160008201548152602001600182015481526020016002820160009054906101000a900473ffffffffffffffffffffffffffffffffffffffff1673ffffffffffffffffffffffffffffffffffffffff1673ffffffffffffffffffffffffffffffffffffffff1681526020016003820160009054906101000a900473ffffffffffffffffffffffffffffffffffffffff1673ffffffffffffffffffffffffffffffffffffffff1673ffffffffffffffffffffffffffffffffffffffff168152602001600482015481526020016005820160009054906101000a900460ff161515151581526020016005820160019054906101000a900460ff161515151581525050905080608001513414610e2f576040517f08c379a0000000000000000000000000000000000000000000000000000000008152600401610e2690611c78565b60405180910390fd5b8060a0015115610e74576040517f08c379a0000000000000000000000000000000000000000000000000000000008152600401610e6b90611ce4565b60405180910390fd5b3373ffffffffffffffffffffffffffffffffffffffff16816040015173ffffffffffffffffffffffffffffffffffffffff1603610ee6576040517f08c379a0000000000000000000000000000000000000000000000000000000008152600401610edd90611d50565b60405180910390fd5b33816060019073ffffffffffffffffffffffffffffffffffffffff16908173ffffffffffffffffffffffffffffffffffffffff16815250503481608001818151610f309190611d70565b9150818152505060018160a00190151590811515815250508060058381548110610f5d57610f5c6118b4565b5b9060005260206000209060060201600082015181600001556020820151816001015560408201518160020160006101000a81548173ffffffffffffffffffffffffffffffffffffffff021916908373ffffffffffffffffffffffffffffffffffffffff16021790555060608201518160030160006101000a81548173ffffffffffffffffffffffffffffffffffffffff021916908373ffffffffffffffffffffffffffffffffffffffff1602179055506080820151816004015560a08201518160050160006101000a81548160ff02191690831515021790555060c08201518160050160016101000a81548160ff0219169083151502179055509050507f1f8563b32a0bf618f00d2cbcb52b004d5757561ee12274f8c1d85b6f44fa551a823360405161108b929190611da4565b60405180910390a15050565b600160038111156110ab576110aa6119bb565b5b8360038111156110be576110bd6119bb565b5b036111be576000606460035460646110d69190611762565b866110e19190611dcd565b6110eb9190611e3e565b905060006064600354876110ff9190611dcd565b6111099190611e3e565b905081600460008673ffffffffffffffffffffffffffffffffffffffff1673ffffffffffffffffffffffffffffffffffffffff168152602001908152602001600020600082825461115a9190611d70565b9250508190555080600460003073ffffffffffffffffffffffffffffffffffffffff1673ffffffffffffffffffffffffffffffffffffffff16815260200190815260200160002060008282546111b09190611d70565b9250508190555050506113d1565b600260038111156111d2576111d16119bb565b5b8360038111156111e5576111e46119bb565b5b036112e5576000606460035460646111fd9190611762565b866112089190611dcd565b6112129190611e3e565b905060006064600354876112269190611dcd565b6112309190611e3e565b905081600460008573ffffffffffffffffffffffffffffffffffffffff1673ffffffffffffffffffffffffffffffffffffffff16815260200190815260200160002060008282546112819190611d70565b9250508190555080600460003073ffffffffffffffffffffffffffffffffffffffff1673ffffffffffffffffffffffffffffffffffffffff16815260200190815260200160002060008282546112d79190611d70565b9250508190555050506113d0565b6003808111156112f8576112f76119bb565b5b83600381111561130b5761130a6119bb565b5b036113cf57600060028561131f9190611e3e565b905080600460008573ffffffffffffffffffffffffffffffffffffffff1673ffffffffffffffffffffffffffffffffffffffff16815260200190815260200160002060008282546113709190611d70565b9250508190555080600460008473ffffffffffffffffffffffffffffffffffffffff1673ffffffffffffffffffffffffffffffffffffffff16815260200190815260200160002060008282546113c69190611d70565b92505081905550505b5b5b50505050565b6040518060e001604052806000815260200160008152602001600073ffffffffffffffffffffffffffffffffffffffff168152602001600073ffffffffffffffffffffffffffffffffffffffff168152602001600081526020016000151581526020016000151581525090565b600080fd5b6000819050919050565b61145c81611449565b811461146757600080fd5b50565b60008135905061147981611453565b92915050565b60006020828403121561149557611494611444565b5b60006114a38482850161146a565b91505092915050565b6114b581611449565b82525050565b600073ffffffffffffffffffffffffffffffffffffffff82169050919050565b60006114e6826114bb565b9050919050565b6114f6816114db565b82525050565b60008115159050919050565b611511816114fc565b82525050565b600060e08201905061152c600083018a6114ac565b61153960208301896114ac565b61154660408301886114ed565b61155360608301876114ed565b61156060808301866114ac565b61156d60a0830185611508565b61157a60c0830184611508565b98975050505050505050565b6004811061159357600080fd5b50565b6000813590506115a581611586565b92915050565b600080604083850312156115c2576115c1611444565b5b60006115d08582860161146a565b92505060206115e185828601611596565b9150509250929050565b600060208201905061160060008301846114ac565b92915050565b6000611611826114bb565b9050919050565b61162181611606565b82525050565b600060208201905061163c6000830184611618565b92915050565b60006020820190506116576000830184611508565b92915050565b611666816114db565b811461167157600080fd5b50565b6000813590506116838161165d565b92915050565b60006020828403121561169f5761169e611444565b5b60006116ad84828501611674565b91505092915050565b600082825260208201905092915050565b7f4e6f7420656e6f7567682062616c616e63652e00000000000000000000000000600082015250565b60006116fd6013836116b6565b9150611708826116c7565b602082019050919050565b6000602082019050818103600083015261172c816116f0565b9050919050565b7f4e487b7100000000000000000000000000000000000000000000000000000000600052601160045260246000fd5b600061176d82611449565b915061177883611449565b92508282039050818111156117905761178f611733565b5b92915050565b600081905092915050565b50565b60006117b1600083611796565b91506117bc826117a1565b600082019050919050565b60006117d2826117a4565b9150819050919050565b7f4661696c656420746f20636c61696d20726577617264732e0000000000000000600082015250565b60006118126018836116b6565b915061181d826117dc565b602082019050919050565b6000602082019050818103600083015261184181611805565b9050919050565b7f4e6f74206f776e65722e00000000000000000000000000000000000000000000600082015250565b600061187e600a836116b6565b915061188982611848565b602082019050919050565b600060208201905081810360008301526118ad81611871565b9050919050565b7f4e487b7100000000000000000000000000000000000000000000000000000000600052603260045260246000fd5b7f47616d65206e6f7420737461727465642e000000000000000000000000000000600082015250565b60006119196011836116b6565b9150611924826118e3565b602082019050919050565b600060208201905081810360008301526119488161190c565b9050919050565b7f47616d6520616c72656164792066696e69736865642e00000000000000000000600082015250565b60006119856016836116b6565b91506119908261194f565b602082019050919050565b600060208201905081810360008301526119b481611978565b9050919050565b7f4e487b7100000000000000000000000000000000000000000000000000000000600052602160045260246000fd5b600481106119fb576119fa6119bb565b5b50565b6000819050611a0c826119ea565b919050565b6000611a1c826119fe565b9050919050565b611a2c81611a11565b82525050565b6000606082019050611a4760008301866114ac565b611a546020830185611a23565b611a6160408301846114ac565b949350505050565b7f4661696c656420746f2077697468647261772e00000000000000000000000000600082015250565b6000611a9f6013836116b6565b9150611aaa82611a69565b602082019050919050565b60006020820190508181036000830152611ace81611a92565b9050919050565b7f47616d657320617265207061757365642e000000000000000000000000000000600082015250565b6000611b0b6011836116b6565b9150611b1682611ad5565b602082019050919050565b60006020820190508181036000830152611b3a81611afe565b9050919050565b7f53657420666565206869676865722e0000000000000000000000000000000000600082015250565b6000611b77600f836116b6565b9150611b8282611b41565b602082019050919050565b60006020820190508181036000830152611ba681611b6a565b9050919050565b6000606082019050611bc260008301866114ac565b611bcf60208301856114ed565b611bdc60408301846114ac565b949350505050565b6000611bef82611449565b91507fffffffffffffffffffffffffffffffffffffffffffffffffffffffffffffffff8203611c2157611c20611733565b5b600182019050919050565b7f57726f6e6720656e747279206665652e00000000000000000000000000000000600082015250565b6000611c626010836116b6565b9150611c6d82611c2c565b602082019050919050565b60006020820190508181036000830152611c9181611c55565b9050919050565b7f416c726561647920737461727465642e00000000000000000000000000000000600082015250565b6000611cce6010836116b6565b9150611cd982611c98565b602082019050919050565b60006020820190508181036000830152611cfd81611cc1565b9050919050565b7f596f752061726520503120616c736f2e00000000000000000000000000000000600082015250565b6000611d3a6010836116b6565b9150611d4582611d04565b602082019050919050565b60006020820190508181036000830152611d6981611d2d565b9050919050565b6000611d7b82611449565b9150611d8683611449565b9250828201905080821115611d9e57611d9d611733565b5b92915050565b6000604082019050611db960008301856114ac565b611dc660208301846114ed565b9392505050565b6000611dd882611449565b9150611de383611449565b9250828202611df181611449565b91508282048414831517611e0857611e07611733565b5b5092915050565b7f4e487b7100000000000000000000000000000000000000000000000000000000600052601260045260246000fd5b6000611e4982611449565b9150611e5483611449565b925082611e6457611e63611e0f565b5b82820490509291505056fea264697066735822122002f03f0ed711058945d50cdda9c14b42280a83a9f883eb0a7c4ea530dda600f564736f6c63430008180033",
  "linkReferences": {},
  "deployedLinkReferences": {}
}