{
  "_format": "hh-sol-artifact-1",
  "contractName": "ChessGame",
  "sourceName": "contracts/Game.sol",
  "abi": [
    {
      "inputs": [
        {
          "internalType": "uint256",
          "name": "_commission",
          "type": "uint256"
        },
        {
          "internalType": "uint256",
          "name": "_MINIMUM_ENTRY_FEE",
          "type": "uint256"
        }
      ],
      "stateMutability": "payable",
      "type": "constructor"
    },
    {
      "anonymous": false,
      "inputs": [
        {
          "indexed": false,
          "internalType": "uint256",
          "name": "gameId",
          "type": "uint256"
        },
        {
          "indexed": false,
          "internalType": "enum ChessGame.Winner",
          "name": "winner",
          "type": "uint8"
        },
        {
          "indexed": false,
          "internalType": "uint256",
          "name": "reward",
          "type": "uint256"
        }
      ],
      "name": "GameFinished",
      "type": "event"
    },
    {
      "anonymous": false,
      "inputs": [
        {
          "indexed": false,
          "internalType": "uint256",
          "name": "gameId",
          "type": "uint256"
        },
        {
          "indexed": false,
          "internalType": "address",
          "name": "playerOne",
          "type": "address"
        },
        {
          "indexed": false,
          "internalType": "uint256",
          "name": "entryFee",
          "type": "uint256"
        }
      ],
      "name": "GameStarted",
      "type": "event"
    },
    {
      "anonymous": false,
      "inputs": [
        {
          "indexed": false,
          "internalType": "uint256",
          "name": "gameId",
          "type": "uint256"
        },
        {
          "indexed": false,
          "internalType": "address",
          "name": "playerTwo",
          "type": "address"
        }
      ],
      "name": "JoinedGame",
      "type": "event"
    },
    {
      "inputs": [
        {
          "internalType": "address",
          "name": "",
          "type": "address"
        }
      ],
      "name": "balance",
      "outputs": [
        {
          "internalType": "uint256",
          "name": "",
          "type": "uint256"
        }
      ],
      "stateMutability": "view",
      "type": "function"
    },
    {
      "inputs": [
        {
          "internalType": "uint256",
          "name": "gameId",
          "type": "uint256"
        }
      ],
      "name": "cancelGameIfTimeout",
      "outputs": [],
      "stateMutability": "nonpayable",
      "type": "function"
    },
    {
      "inputs": [
        {
          "internalType": "uint256",
          "name": "_amount",
          "type": "uint256"
        }
      ],
      "name": "claimRewards",
      "outputs": [],
      "stateMutability": "payable",
      "type": "function"
    },
    {
      "inputs": [],
      "name": "commission",
      "outputs": [
        {
          "internalType": "uint256",
          "name": "",
          "type": "uint256"
        }
      ],
      "stateMutability": "view",
      "type": "function"
    },
    {
      "inputs": [],
      "name": "countGame",
      "outputs": [
        {
          "internalType": "uint256",
          "name": "",
          "type": "uint256"
        }
      ],
      "stateMutability": "view",
      "type": "function"
    },
    {
      "inputs": [
        {
          "internalType": "uint256",
          "name": "_gameId",
          "type": "uint256"
        },
        {
          "internalType": "enum ChessGame.Winner",
          "name": "_winner",
          "type": "uint8"
        }
      ],
      "name": "finishGame",
      "outputs": [],
      "stateMutability": "nonpayable",
      "type": "function"
    },
    {
      "inputs": [],
      "name": "gameTimeout",
      "outputs": [
        {
          "internalType": "uint256",
          "name": "",
          "type": "uint256"
        }
      ],
      "stateMutability": "view",
      "type": "function"
    },
    {
      "inputs": [
        {
          "internalType": "uint256",
          "name": "",
          "type": "uint256"
        }
      ],
      "name": "games",
      "outputs": [
        {
          "internalType": "uint256",
          "name": "gameId",
          "type": "uint256"
        },
        {
          "internalType": "uint256",
          "name": "gameCount",
          "type": "uint256"
        },
        {
          "internalType": "uint256",
          "name": "creatingTime",
          "type": "uint256"
        },
        {
          "internalType": "address",
          "name": "playerOne",
          "type": "address"
        },
        {
          "internalType": "address",
          "name": "playerTwo",
          "type": "address"
        },
        {
          "internalType": "uint256",
          "name": "rewardPool",
          "type": "uint256"
        },
        {
          "internalType": "bool",
          "name": "isStarted",
          "type": "bool"
        },
        {
          "internalType": "bool",
          "name": "isFinished",
          "type": "bool"
        }
      ],
      "stateMutability": "view",
      "type": "function"
    },
    {
      "inputs": [
        {
          "internalType": "uint256",
          "name": "_gameId",
          "type": "uint256"
        }
      ],
      "name": "joinGame",
      "outputs": [],
      "stateMutability": "payable",
      "type": "function"
    },
    {
      "inputs": [],
      "name": "owner",
      "outputs": [
        {
          "internalType": "address payable",
          "name": "",
          "type": "address"
        }
      ],
      "stateMutability": "view",
      "type": "function"
    },
    {
      "inputs": [],
      "name": "pausedAllGames",
      "outputs": [
        {
          "internalType": "bool",
          "name": "",
          "type": "bool"
        }
      ],
      "stateMutability": "view",
      "type": "function"
    },
    {
      "inputs": [
        {
          "internalType": "uint256",
          "name": "gameId",
          "type": "uint256"
        }
      ],
      "name": "startGame",
      "outputs": [],
      "stateMutability": "payable",
      "type": "function"
    },
    {
      "inputs": [],
      "name": "toggleContract",
      "outputs": [],
      "stateMutability": "nonpayable",
      "type": "function"
    },
    {
      "inputs": [
        {
          "internalType": "uint256",
          "name": "_amount",
          "type": "uint256"
        }
      ],
      "name": "withdraw",
      "outputs": [],
      "stateMutability": "payable",
      "type": "function"
    }
  ],
  "bytecode": "0x60a060405260018055603c60045560405162002b1938038062002b198339818101604052810190620000329190620002fa565b6032821062000078576040517f08c379a00000000000000000000000000000000000000000000000000000000081526004016200006f90620003a2565b60405180910390fd5b6064811015620000bf576040517f08c379a0000000000000000000000000000000000000000000000000000000008152600401620000b69062000414565b60405180910390fd5b336000806101000a81548173ffffffffffffffffffffffffffffffffffffffff021916908373ffffffffffffffffffffffffffffffffffffffff1602179055508160038190555080608081815250506200011862000245565b600681908060018154018082558091505060019003906000526020600020906007020160009091909190915060008201518160000155602082015181600101556040820151816002015560608201518160030160006101000a81548173ffffffffffffffffffffffffffffffffffffffff021916908373ffffffffffffffffffffffffffffffffffffffff16021790555060808201518160040160006101000a81548173ffffffffffffffffffffffffffffffffffffffff021916908373ffffffffffffffffffffffffffffffffffffffff16021790555060a0820151816005015560c08201518160060160006101000a81548160ff02191690831515021790555060e08201518160060160016101000a81548160ff021916908315150217905550505050505062000436565b604051806101000160405280600081526020016000815260200160008152602001600073ffffffffffffffffffffffffffffffffffffffff168152602001600073ffffffffffffffffffffffffffffffffffffffff168152602001600081526020016000151581526020016000151581525090565b600080fd5b6000819050919050565b620002d481620002bf565b8114620002e057600080fd5b50565b600081519050620002f481620002c9565b92915050565b60008060408385031215620003145762000313620002ba565b5b60006200032485828601620002e3565b92505060206200033785828601620002e3565b9150509250929050565b600082825260208201905092915050565b7f436f6d6d697373696f6e2073686f756c64206265203c2035302e000000000000600082015250565b60006200038a601a8362000341565b9150620003978262000352565b602082019050919050565b60006020820190508181036000830152620003bd816200037b565b9050919050565b7f4d696e206665652073686f756c64206265203e3d203130300000000000000000600082015250565b6000620003fc60188362000341565b91506200040982620003c4565b602082019050919050565b600060208201905081810360008301526200042f81620003ed565b9050919050565b6080516126c7620004526000396000610faa01526126c76000f3fe6080604052600436106100dd5760003560e01c80638da5cb5b1161007f578063e148919111610059578063e148919114610273578063e3d670d71461029e578063e5ed1d59146102db578063efaa55a0146102f7576100dd565b80638da5cb5b146102065780639df9002814610231578063d0232c7014610248576100dd565b80632d4e8c46116100bb5780632d4e8c461461016d5780632e1a7d4d146101965780633bb6c5f4146101b25780633efcf78e146101dd576100dd565b80630962ef79146100e2578063117a5b90146100fe5780631e72553d14610142575b600080fd5b6100fc60048036038101906100f79190611ad2565b610313565b005b34801561010a57600080fd5b5061012560048036038101906101209190611ad2565b61049b565b604051610139989796959493929190611b6a565b60405180910390f35b34801561014e57600080fd5b5061015761054d565b6040516101649190611be8565b60405180910390f35b34801561017957600080fd5b50610194600480360381019061018f9190611c28565b610553565b005b6101b060048036038101906101ab9190611ad2565b610762565b005b3480156101be57600080fd5b506101c7610978565b6040516101d49190611be8565b60405180910390f35b3480156101e957600080fd5b5061020460048036038101906101ff9190611ad2565b61097e565b005b34801561021257600080fd5b5061021b610e49565b6040516102289190611c89565b60405180910390f35b34801561023d57600080fd5b50610246610e6d565b005b34801561025457600080fd5b5061025d610f27565b60405161026a9190611ca4565b60405180910390f35b34801561027f57600080fd5b50610288610f3a565b6040516102959190611be8565b60405180910390f35b3480156102aa57600080fd5b506102c560048036038101906102c09190611ceb565b610f40565b6040516102d29190611be8565b60405180910390f35b6102f560048036038101906102f09190611ad2565b610f58565b005b610311600480360381019061030c9190611ad2565b6111f1565b005b80600560003373ffffffffffffffffffffffffffffffffffffffff1673ffffffffffffffffffffffffffffffffffffffff168152602001908152602001600020541015610395576040517f08c379a000000000000000000000000000000000000000000000000000000000815260040161038c90611d75565b60405180910390fd5b80600560003373ffffffffffffffffffffffffffffffffffffffff1673ffffffffffffffffffffffffffffffffffffffff16815260200190815260200160002060008282546103e49190611dc4565b9250508190555060003373ffffffffffffffffffffffffffffffffffffffff168260405161041190611e29565b60006040518083038185875af1925050503d806000811461044e576040519150601f19603f3d011682016040523d82523d6000602084013e610453565b606091505b5050905080610497576040517f08c379a000000000000000000000000000000000000000000000000000000000815260040161048e90611e8a565b60405180910390fd5b5050565b600681815481106104ab57600080fd5b90600052602060002090600702016000915090508060000154908060010154908060020154908060030160009054906101000a900473ffffffffffffffffffffffffffffffffffffffff16908060040160009054906101000a900473ffffffffffffffffffffffffffffffffffffffff16908060050154908060060160009054906101000a900460ff16908060060160019054906101000a900460ff16905088565b60045481565b60008054906101000a900473ffffffffffffffffffffffffffffffffffffffff1673ffffffffffffffffffffffffffffffffffffffff163373ffffffffffffffffffffffffffffffffffffffff16146105e1576040517f08c379a00000000000000000000000000000000000000000000000000000000081526004016105d890611ef6565b60405180910390fd5b6000600683815481106105f7576105f6611f16565b5b906000526020600020906007020190508060060160009054906101000a900460ff16610658576040517f08c379a000000000000000000000000000000000000000000000000000000000815260040161064f90611f91565b60405180910390fd5b8060060160019054906101000a900460ff16156106aa576040517f08c379a00000000000000000000000000000000000000000000000000000000081526004016106a190611ffd565b60405180910390fd5b60018160060160016101000a81548160ff0219169083151502179055507e21feea4608e6756f982d5bd71c09645176b4865cf6bd600fcc4aa990f02404838383600501546040516106fd93929190612094565b60405180910390a161075d8160050154838360030160009054906101000a900473ffffffffffffffffffffffffffffffffffffffff168460040160009054906101000a900473ffffffffffffffffffffffffffffffffffffffff166116e2565b505050565b60008054906101000a900473ffffffffffffffffffffffffffffffffffffffff1673ffffffffffffffffffffffffffffffffffffffff163373ffffffffffffffffffffffffffffffffffffffff16146107f0576040517f08c379a00000000000000000000000000000000000000000000000000000000081526004016107e790611ef6565b60405180910390fd5b80600560003073ffffffffffffffffffffffffffffffffffffffff1673ffffffffffffffffffffffffffffffffffffffff168152602001908152602001600020541015610872576040517f08c379a000000000000000000000000000000000000000000000000000000000815260040161086990611d75565b60405180910390fd5b80600560003073ffffffffffffffffffffffffffffffffffffffff1673ffffffffffffffffffffffffffffffffffffffff16815260200190815260200160002060008282546108c19190611dc4565b9250508190555060003373ffffffffffffffffffffffffffffffffffffffff16826040516108ee90611e29565b60006040518083038185875af1925050503d806000811461092b576040519150601f19603f3d011682016040523d82523d6000602084013e610930565b606091505b5050905080610974576040517f08c379a000000000000000000000000000000000000000000000000000000000815260040161096b90612117565b60405180910390fd5b5050565b60015481565b3373ffffffffffffffffffffffffffffffffffffffff16600682815481106109a9576109a8611f16565b5b906000526020600020906007020160030160009054906101000a900473ffffffffffffffffffffffffffffffffffffffff1673ffffffffffffffffffffffffffffffffffffffff161480610a6d57503373ffffffffffffffffffffffffffffffffffffffff1660068281548110610a2357610a22611f16565b5b906000526020600020906007020160040160009054906101000a900473ffffffffffffffffffffffffffffffffffffffff1673ffffffffffffffffffffffffffffffffffffffff16145b610aac576040517f08c379a0000000000000000000000000000000000000000000000000000000008152600401610aa390612183565b60405180910390fd5b60068181548110610ac057610abf611f16565b5b906000526020600020906007020160060160009054906101000a900460ff1615610b1f576040517f08c379a0000000000000000000000000000000000000000000000000000000008152600401610b16906121ef565b60405180910390fd5b60045460068281548110610b3657610b35611f16565b5b906000526020600020906007020160020154610b52919061220f565b4210610e4657600160068281548110610b6e57610b6d611f16565b5b906000526020600020906007020160060160016101000a81548160ff021916908315150217905550600073ffffffffffffffffffffffffffffffffffffffff1660068281548110610bc257610bc1611f16565b5b906000526020600020906007020160030160009054906101000a900473ffffffffffffffffffffffffffffffffffffffff1673ffffffffffffffffffffffffffffffffffffffff1614610cd05760068181548110610c2357610c22611f16565b5b9060005260206000209060070201600501546005600060068481548110610c4d57610c4c611f16565b5b906000526020600020906007020160030160009054906101000a900473ffffffffffffffffffffffffffffffffffffffff1673ffffffffffffffffffffffffffffffffffffffff1673ffffffffffffffffffffffffffffffffffffffff1681526020019081526020016000206000828254610cc8919061220f565b925050819055505b600073ffffffffffffffffffffffffffffffffffffffff1660068281548110610cfc57610cfb611f16565b5b906000526020600020906007020160040160009054906101000a900473ffffffffffffffffffffffffffffffffffffffff1673ffffffffffffffffffffffffffffffffffffffff1614610e0a5760068181548110610d5d57610d5c611f16565b5b9060005260206000209060070201600501546005600060068481548110610d8757610d86611f16565b5b906000526020600020906007020160040160009054906101000a900473ffffffffffffffffffffffffffffffffffffffff1673ffffffffffffffffffffffffffffffffffffffff1673ffffffffffffffffffffffffffffffffffffffff1681526020019081526020016000206000828254610e02919061220f565b925050819055505b7e21feea4608e6756f982d5bd71c09645176b4865cf6bd600fcc4aa990f0240481600080604051610e3d93929190612288565b60405180910390a15b50565b60008054906101000a900473ffffffffffffffffffffffffffffffffffffffff1681565b60008054906101000a900473ffffffffffffffffffffffffffffffffffffffff1673ffffffffffffffffffffffffffffffffffffffff163373ffffffffffffffffffffffffffffffffffffffff1614610efb576040517f08c379a0000000000000000000000000000000000000000000000000000000008152600401610ef290611ef6565b60405180910390fd5b600260009054906101000a900460ff1615600260006101000a81548160ff021916908315150217905550565b600260009054906101000a900460ff1681565b60035481565b60056020528060005260406000206000915090505481565b600260009054906101000a900460ff1615610fa8576040517f08c379a0000000000000000000000000000000000000000000000000000000008152600401610f9f9061230b565b60405180910390fd5b7f0000000000000000000000000000000000000000000000000000000000000000341161100a576040517f08c379a000000000000000000000000000000000000000000000000000000000815260040161100190612377565b60405180910390fd5b611012611a22565b8181600001818152505060015481602001818152505033816060019073ffffffffffffffffffffffffffffffffffffffff16908173ffffffffffffffffffffffffffffffffffffffff168152505042816040018181525050348160a0018181525050600681908060018154018082558091505060019003906000526020600020906007020160009091909190915060008201518160000155602082015181600101556040820151816002015560608201518160030160006101000a81548173ffffffffffffffffffffffffffffffffffffffff021916908373ffffffffffffffffffffffffffffffffffffffff16021790555060808201518160040160006101000a81548173ffffffffffffffffffffffffffffffffffffffff021916908373ffffffffffffffffffffffffffffffffffffffff16021790555060a0820151816005015560c08201518160060160006101000a81548160ff02191690831515021790555060e08201518160060160016101000a81548160ff02191690831515021790555050507f0c82908456d66c43e9de63edd66f9faf875c8f3a12f936e162d675ec42c3544460015433346040516111cd93929190612397565b60405180910390a1600160008154809291906111e8906123ce565b91905055505050565b600260009054906101000a900460ff1615611241576040517f08c379a00000000000000000000000000000000000000000000000000000000081526004016112389061230b565b60405180910390fd5b60006006828154811061125757611256611f16565b5b9060005260206000209060070201604051806101000160405290816000820154815260200160018201548152602001600282015481526020016003820160009054906101000a900473ffffffffffffffffffffffffffffffffffffffff1673ffffffffffffffffffffffffffffffffffffffff1673ffffffffffffffffffffffffffffffffffffffff1681526020016004820160009054906101000a900473ffffffffffffffffffffffffffffffffffffffff1673ffffffffffffffffffffffffffffffffffffffff1673ffffffffffffffffffffffffffffffffffffffff168152602001600582015481526020016006820160009054906101000a900460ff161515151581526020016006820160019054906101000a900460ff16151515158152505090508060a0015134146113c3576040517f08c379a00000000000000000000000000000000000000000000000000000000081526004016113ba90612462565b60405180910390fd5b8060c0015115611408576040517f08c379a00000000000000000000000000000000000000000000000000000000081526004016113ff906124ce565b60405180910390fd5b3373ffffffffffffffffffffffffffffffffffffffff16816060015173ffffffffffffffffffffffffffffffffffffffff160361147a576040517f08c379a00000000000000000000000000000000000000000000000000000000081526004016114719061253a565b60405180910390fd5b60003073ffffffffffffffffffffffffffffffffffffffff16346040516114a090611e29565b60006040518083038185875af1925050503d80600081146114dd576040519150601f19603f3d011682016040523d82523d6000602084013e6114e2565b606091505b5050905080611526576040517f08c379a000000000000000000000000000000000000000000000000000000000815260040161151d906125a6565b60405180910390fd5b33826080019073ffffffffffffffffffffffffffffffffffffffff16908173ffffffffffffffffffffffffffffffffffffffff1681525050348260a001818151611570919061220f565b9150818152505060018260c0019015159081151581525050816006848154811061159d5761159c611f16565b5b906000526020600020906007020160008201518160000155602082015181600101556040820151816002015560608201518160030160006101000a81548173ffffffffffffffffffffffffffffffffffffffff021916908373ffffffffffffffffffffffffffffffffffffffff16021790555060808201518160040160006101000a81548173ffffffffffffffffffffffffffffffffffffffff021916908373ffffffffffffffffffffffffffffffffffffffff16021790555060a0820151816005015560c08201518160060160006101000a81548160ff02191690831515021790555060e08201518160060160016101000a81548160ff0219169083151502179055509050507f1f8563b32a0bf618f00d2cbcb52b004d5757561ee12274f8c1d85b6f44fa551a83336040516116d59291906125c6565b60405180910390a1505050565b600160038111156116f6576116f561201d565b5b8360038111156117095761170861201d565b5b03611809576000606460035460646117219190611dc4565b8661172c91906125ef565b6117369190612660565b9050600060646003548761174a91906125ef565b6117549190612660565b905081600560008673ffffffffffffffffffffffffffffffffffffffff1673ffffffffffffffffffffffffffffffffffffffff16815260200190815260200160002060008282546117a5919061220f565b9250508190555080600560003073ffffffffffffffffffffffffffffffffffffffff1673ffffffffffffffffffffffffffffffffffffffff16815260200190815260200160002060008282546117fb919061220f565b925050819055505050611a1c565b6002600381111561181d5761181c61201d565b5b8360038111156118305761182f61201d565b5b03611930576000606460035460646118489190611dc4565b8661185391906125ef565b61185d9190612660565b9050600060646003548761187191906125ef565b61187b9190612660565b905081600560008573ffffffffffffffffffffffffffffffffffffffff1673ffffffffffffffffffffffffffffffffffffffff16815260200190815260200160002060008282546118cc919061220f565b9250508190555080600560003073ffffffffffffffffffffffffffffffffffffffff1673ffffffffffffffffffffffffffffffffffffffff1681526020019081526020016000206000828254611922919061220f565b925050819055505050611a1b565b6003808111156119435761194261201d565b5b8360038111156119565761195561201d565b5b03611a1a57600060028561196a9190612660565b905080600560008573ffffffffffffffffffffffffffffffffffffffff1673ffffffffffffffffffffffffffffffffffffffff16815260200190815260200160002060008282546119bb919061220f565b9250508190555080600560008473ffffffffffffffffffffffffffffffffffffffff1673ffffffffffffffffffffffffffffffffffffffff1681526020019081526020016000206000828254611a11919061220f565b92505081905550505b5b5b50505050565b604051806101000160405280600081526020016000815260200160008152602001600073ffffffffffffffffffffffffffffffffffffffff168152602001600073ffffffffffffffffffffffffffffffffffffffff168152602001600081526020016000151581526020016000151581525090565b600080fd5b6000819050919050565b611aaf81611a9c565b8114611aba57600080fd5b50565b600081359050611acc81611aa6565b92915050565b600060208284031215611ae857611ae7611a97565b5b6000611af684828501611abd565b91505092915050565b611b0881611a9c565b82525050565b600073ffffffffffffffffffffffffffffffffffffffff82169050919050565b6000611b3982611b0e565b9050919050565b611b4981611b2e565b82525050565b60008115159050919050565b611b6481611b4f565b82525050565b600061010082019050611b80600083018b611aff565b611b8d602083018a611aff565b611b9a6040830189611aff565b611ba76060830188611b40565b611bb46080830187611b40565b611bc160a0830186611aff565b611bce60c0830185611b5b565b611bdb60e0830184611b5b565b9998505050505050505050565b6000602082019050611bfd6000830184611aff565b92915050565b60048110611c1057600080fd5b50565b600081359050611c2281611c03565b92915050565b60008060408385031215611c3f57611c3e611a97565b5b6000611c4d85828601611abd565b9250506020611c5e85828601611c13565b9150509250929050565b6000611c7382611b0e565b9050919050565b611c8381611c68565b82525050565b6000602082019050611c9e6000830184611c7a565b92915050565b6000602082019050611cb96000830184611b5b565b92915050565b611cc881611b2e565b8114611cd357600080fd5b50565b600081359050611ce581611cbf565b92915050565b600060208284031215611d0157611d00611a97565b5b6000611d0f84828501611cd6565b91505092915050565b600082825260208201905092915050565b7f4e6f7420656e6f7567682062616c616e63652e00000000000000000000000000600082015250565b6000611d5f601383611d18565b9150611d6a82611d29565b602082019050919050565b60006020820190508181036000830152611d8e81611d52565b9050919050565b7f4e487b7100000000000000000000000000000000000000000000000000000000600052601160045260246000fd5b6000611dcf82611a9c565b9150611dda83611a9c565b9250828203905081811115611df257611df1611d95565b5b92915050565b600081905092915050565b50565b6000611e13600083611df8565b9150611e1e82611e03565b600082019050919050565b6000611e3482611e06565b9150819050919050565b7f4661696c656420746f20636c61696d20726577617264732e0000000000000000600082015250565b6000611e74601883611d18565b9150611e7f82611e3e565b602082019050919050565b60006020820190508181036000830152611ea381611e67565b9050919050565b7f4e6f74206f776e65722e00000000000000000000000000000000000000000000600082015250565b6000611ee0600a83611d18565b9150611eeb82611eaa565b602082019050919050565b60006020820190508181036000830152611f0f81611ed3565b9050919050565b7f4e487b7100000000000000000000000000000000000000000000000000000000600052603260045260246000fd5b7f47616d65206e6f7420737461727465642e000000000000000000000000000000600082015250565b6000611f7b601183611d18565b9150611f8682611f45565b602082019050919050565b60006020820190508181036000830152611faa81611f6e565b9050919050565b7f47616d6520616c72656164792066696e69736865642e00000000000000000000600082015250565b6000611fe7601683611d18565b9150611ff282611fb1565b602082019050919050565b6000602082019050818103600083015261201681611fda565b9050919050565b7f4e487b7100000000000000000000000000000000000000000000000000000000600052602160045260246000fd5b6004811061205d5761205c61201d565b5b50565b600081905061206e8261204c565b919050565b600061207e82612060565b9050919050565b61208e81612073565b82525050565b60006060820190506120a96000830186611aff565b6120b66020830185612085565b6120c36040830184611aff565b949350505050565b7f4661696c656420746f2077697468647261772e00000000000000000000000000600082015250565b6000612101601383611d18565b915061210c826120cb565b602082019050919050565b60006020820190508181036000830152612130816120f4565b9050919050565b7f556e617574686f72697a65640000000000000000000000000000000000000000600082015250565b600061216d600c83611d18565b915061217882612137565b602082019050919050565b6000602082019050818103600083015261219c81612160565b9050919050565b7f47616d6520616c72656164792073746172746564000000000000000000000000600082015250565b60006121d9601483611d18565b91506121e4826121a3565b602082019050919050565b60006020820190508181036000830152612208816121cc565b9050919050565b600061221a82611a9c565b915061222583611a9c565b925082820190508082111561223d5761223c611d95565b5b92915050565b6000819050919050565b6000819050919050565b600061227261226d61226884612243565b61224d565b611a9c565b9050919050565b61228281612257565b82525050565b600060608201905061229d6000830186611aff565b6122aa6020830185612085565b6122b76040830184612279565b949350505050565b7f47616d657320617265207061757365642e000000000000000000000000000000600082015250565b60006122f5601183611d18565b9150612300826122bf565b602082019050919050565b60006020820190508181036000830152612324816122e8565b9050919050565b7f53657420666565206869676865722e0000000000000000000000000000000000600082015250565b6000612361600f83611d18565b915061236c8261232b565b602082019050919050565b6000602082019050818103600083015261239081612354565b9050919050565b60006060820190506123ac6000830186611aff565b6123b96020830185611b40565b6123c66040830184611aff565b949350505050565b60006123d982611a9c565b91507fffffffffffffffffffffffffffffffffffffffffffffffffffffffffffffffff820361240b5761240a611d95565b5b600182019050919050565b7f57726f6e6720656e747279206665652e00000000000000000000000000000000600082015250565b600061244c601083611d18565b915061245782612416565b602082019050919050565b6000602082019050818103600083015261247b8161243f565b9050919050565b7f416c726561647920737461727465642e00000000000000000000000000000000600082015250565b60006124b8601083611d18565b91506124c382612482565b602082019050919050565b600060208201905081810360008301526124e7816124ab565b9050919050565b7f596f752061726520503120616c736f2e00000000000000000000000000000000600082015250565b6000612524601083611d18565b915061252f826124ee565b602082019050919050565b6000602082019050818103600083015261255381612517565b9050919050565b7f4661696c656420746f2073656e64204574686572000000000000000000000000600082015250565b6000612590601483611d18565b915061259b8261255a565b602082019050919050565b600060208201905081810360008301526125bf81612583565b9050919050565b60006040820190506125db6000830185611aff565b6125e86020830184611b40565b9392505050565b60006125fa82611a9c565b915061260583611a9c565b925082820261261381611a9c565b9150828204841483151761262a57612629611d95565b5b5092915050565b7f4e487b7100000000000000000000000000000000000000000000000000000000600052601260045260246000fd5b600061266b82611a9c565b915061267683611a9c565b92508261268657612685612631565b5b82820490509291505056fea2646970667358221220b0c6519cc20539ca07392ff29f0f09bc804f2b87884926a5d75fe9c2d576b4b564736f6c63430008180033",
  "linkReferences": {},
  "deployedLinkReferences": {}
}