{
    "_format": "hh-sol-artifact-1",
    "contractName": "Game",
    "sourceName": "contracts/Game.sol",
    "abi": [
        {
            "inputs": [
                {
                    "internalType": "uint256",
                    "name": "_rakeAmount",
                    "type": "uint256"
                }
            ],
            "stateMutability": "nonpayable",
            "type": "constructor"
        },
        {
            "anonymous": false,
            "inputs": [
                {
                    "indexed": true,
                    "internalType": "uint256",
                    "name": "gameId",
                    "type": "uint256"
                },
                {
                    "indexed": true,
                    "internalType": "address",
                    "name": "aborter",
                    "type": "address"
                }
            ],
            "name": "GameAborted",
            "type": "event"
        },
        {
            "anonymous": false,
            "inputs": [
                {
                    "indexed": true,
                    "internalType": "uint256",
                    "name": "gameId",
                    "type": "uint256"
                },
                {
                    "indexed": true,
                    "internalType": "address",
                    "name": "player1",
                    "type": "address"
                },
                {
                    "indexed": false,
                    "internalType": "uint256",
                    "name": "buyInAmount",
                    "type": "uint256"
                }
            ],
            "name": "GameCreated",
            "type": "event"
        },
        {
            "anonymous": false,
            "inputs": [
                {
                    "indexed": true,
                    "internalType": "uint256",
                    "name": "gameId",
                    "type": "uint256"
                },
                {
                    "indexed": true,
                    "internalType": "address",
                    "name": "winner",
                    "type": "address"
                }
            ],
            "name": "GameEnded",
            "type": "event"
        },
        {
            "anonymous": false,
            "inputs": [
                {
                    "indexed": true,
                    "internalType": "uint256",
                    "name": "gameId",
                    "type": "uint256"
                },
                {
                    "indexed": true,
                    "internalType": "address",
                    "name": "player2",
                    "type": "address"
                }
            ],
            "name": "PlayerJoined",
            "type": "event"
        },
        {
            "inputs": [
                {
                    "internalType": "uint256",
                    "name": "gameId",
                    "type": "uint256"
                }
            ],
            "name": "abortGame",
            "outputs": [],
            "stateMutability": "nonpayable",
            "type": "function"
        },
        {
            "inputs": [
                {
                    "internalType": "uint256",
                    "name": "gameId",
                    "type": "uint256"
                },
                {
                    "internalType": "uint256",
                    "name": "buyInAmount",
                    "type": "uint256"
                }
            ],
            "name": "createGame",
            "outputs": [],
            "stateMutability": "nonpayable",
            "type": "function"
        },
        {
            "inputs": [
                {
                    "internalType": "uint256",
                    "name": "gameId",
                    "type": "uint256"
                },
                {
                    "internalType": "address",
                    "name": "winner",
                    "type": "address"
                }
            ],
            "name": "endGame",
            "outputs": [],
            "stateMutability": "nonpayable",
            "type": "function"
        },
        {
            "inputs": [],
            "name": "gameCreator",
            "outputs": [
                {
                    "internalType": "address",
                    "name": "",
                    "type": "address"
                }
            ],
            "stateMutability": "view",
            "type": "function"
        },
        {
            "inputs": [
                {
                    "internalType": "uint256",
                    "name": "",
                    "type": "uint256"
                }
            ],
            "name": "games",
            "outputs": [
                {
                    "internalType": "address",
                    "name": "player1",
                    "type": "address"
                },
                {
                    "internalType": "address",
                    "name": "player2",
                    "type": "address"
                },
                {
                    "internalType": "uint256",
                    "name": "buyInAmount",
                    "type": "uint256"
                },
                {
                    "internalType": "address",
                    "name": "winner",
                    "type": "address"
                },
                {
                    "internalType": "bool",
                    "name": "paidOut",
                    "type": "bool"
                },
                {
                    "internalType": "bool",
                    "name": "aborted",
                    "type": "bool"
                }
            ],
            "stateMutability": "view",
            "type": "function"
        },
        {
            "inputs": [
                {
                    "internalType": "uint256",
                    "name": "gameId",
                    "type": "uint256"
                }
            ],
            "name": "joinGame",
            "outputs": [],
            "stateMutability": "payable",
            "type": "function"
        },
        {
            "inputs": [],
            "name": "rakeAmount",
            "outputs": [
                {
                    "internalType": "uint256",
                    "name": "",
                    "type": "uint256"
                }
            ],
            "stateMutability": "view",
            "type": "function"
        },
        {
            "inputs": [
                {
                    "internalType": "uint256",
                    "name": "gameId",
                    "type": "uint256"
                }
            ],
            "name": "withdrawWinnings",
            "outputs": [],
            "stateMutability": "nonpayable",
            "type": "function"
        },
        {
            "stateMutability": "payable",
            "type": "receive"
        }
    ],
    "bytecode": "0x60806040523480156200001157600080fd5b5060405162001a6738038062001a678339818101604052810190620000379190620000c5565b336000806101000a81548173ffffffffffffffffffffffffffffffffffffffff021916908373ffffffffffffffffffffffffffffffffffffffff1602179055508060018190555050620000f7565b600080fd5b6000819050919050565b6200009f816200008a565b8114620000ab57600080fd5b50565b600081519050620000bf8162000094565b92915050565b600060208284031215620000de57620000dd62000085565b5b6000620000ee84828501620000ae565b91505092915050565b61196080620001076000396000f3fe60806040526004361061007f5760003560e01c806360104cef1161004e57806360104cef1461018557806386514131146101ae5780639e231e2d146101d7578063efaa55a014610200576100bf565b80630b083e78146100c4578063117a5b90146100ef578063147947021461013157806337b1b2291461015a576100bf565b366100bf576040517f08c379a00000000000000000000000000000000000000000000000000000000081526004016100b69061106d565b60405180910390fd5b600080fd5b3480156100d057600080fd5b506100d961021c565b6040516100e691906110a6565b60405180910390f35b3480156100fb57600080fd5b50610116600480360381019061011191906110f2565b610222565b6040516101289695949392919061117b565b60405180910390f35b34801561013d57600080fd5b50610158600480360381019061015391906110f2565b6102d8565b005b34801561016657600080fd5b5061016f6104f1565b60405161017c91906111dc565b60405180910390f35b34801561019157600080fd5b506101ac60048036038101906101a791906111f7565b610515565b005b3480156101ba57600080fd5b506101d560048036038101906101d09190611263565b6107b9565b005b3480156101e357600080fd5b506101fe60048036038101906101f991906110f2565b610bed565b005b61021a600480360381019061021591906110f2565b610ddc565b005b60015481565b60026020528060005260406000206000915090508060000160009054906101000a900473ffffffffffffffffffffffffffffffffffffffff16908060010160009054906101000a900473ffffffffffffffffffffffffffffffffffffffff16908060020154908060030160009054906101000a900473ffffffffffffffffffffffffffffffffffffffff16908060030160149054906101000a900460ff16908060030160159054906101000a900460ff16905086565b60006002600083815260200190815260200160002090503373ffffffffffffffffffffffffffffffffffffffff168160030160009054906101000a900473ffffffffffffffffffffffffffffffffffffffff1673ffffffffffffffffffffffffffffffffffffffff1614610381576040517f08c379a000000000000000000000000000000000000000000000000000000000815260040161037890611315565b60405180910390fd5b8060030160149054906101000a900460ff16156103d3576040517f08c379a00000000000000000000000000000000000000000000000000000000081526004016103ca90611381565b60405180910390fd5b6000600282600201546103e691906113d0565b90506000600154111561048857600060646001548361040591906113d0565b61040f9190611441565b9050808261041d9190611472565b915060008054906101000a900473ffffffffffffffffffffffffffffffffffffffff1673ffffffffffffffffffffffffffffffffffffffff166108fc829081150290604051600060405180830381858888f19350505050158015610485573d6000803e3d6000fd5b50505b3373ffffffffffffffffffffffffffffffffffffffff166108fc829081150290604051600060405180830381858888f193505050501580156104ce573d6000803e3d6000fd5b5060018260030160146101000a81548160ff021916908315150217905550505050565b60008054906101000a900473ffffffffffffffffffffffffffffffffffffffff1681565b600073ffffffffffffffffffffffffffffffffffffffff166002600084815260200190815260200160002060000160009054906101000a900473ffffffffffffffffffffffffffffffffffffffff1673ffffffffffffffffffffffffffffffffffffffff16146105ba576040517f08c379a00000000000000000000000000000000000000000000000000000000081526004016105b190611518565b60405180910390fd5b6040518060c001604052803373ffffffffffffffffffffffffffffffffffffffff168152602001600073ffffffffffffffffffffffffffffffffffffffff168152602001828152602001600073ffffffffffffffffffffffffffffffffffffffff168152602001600015158152602001600015158152506002600084815260200190815260200160002060008201518160000160006101000a81548173ffffffffffffffffffffffffffffffffffffffff021916908373ffffffffffffffffffffffffffffffffffffffff16021790555060208201518160010160006101000a81548173ffffffffffffffffffffffffffffffffffffffff021916908373ffffffffffffffffffffffffffffffffffffffff1602179055506040820151816002015560608201518160030160006101000a81548173ffffffffffffffffffffffffffffffffffffffff021916908373ffffffffffffffffffffffffffffffffffffffff16021790555060808201518160030160146101000a81548160ff02191690831515021790555060a08201518160030160156101000a81548160ff0219169083151502179055509050503373ffffffffffffffffffffffffffffffffffffffff16827f7dfb67e9ff596fca4da65c7eedb128cd1aac553af54b3c0cb733625a2480d8bd836040516107ad91906110a6565b60405180910390a35050565b6000600260008481526020019081526020016000209050600073ffffffffffffffffffffffffffffffffffffffff168160000160009054906101000a900473ffffffffffffffffffffffffffffffffffffffff1673ffffffffffffffffffffffffffffffffffffffff1603610863576040517f08c379a000000000000000000000000000000000000000000000000000000000815260040161085a90611584565b60405180910390fd5b600073ffffffffffffffffffffffffffffffffffffffff168160010160009054906101000a900473ffffffffffffffffffffffffffffffffffffffff1673ffffffffffffffffffffffffffffffffffffffff16036108f6576040517f08c379a00000000000000000000000000000000000000000000000000000000081526004016108ed906115f0565b60405180910390fd5b8060000160009054906101000a900473ffffffffffffffffffffffffffffffffffffffff1673ffffffffffffffffffffffffffffffffffffffff163373ffffffffffffffffffffffffffffffffffffffff1614806109a357508060010160009054906101000a900473ffffffffffffffffffffffffffffffffffffffff1673ffffffffffffffffffffffffffffffffffffffff163373ffffffffffffffffffffffffffffffffffffffff16145b6109e2576040517f08c379a00000000000000000000000000000000000000000000000000000000081526004016109d99061165c565b60405180910390fd5b8060000160009054906101000a900473ffffffffffffffffffffffffffffffffffffffff1673ffffffffffffffffffffffffffffffffffffffff168273ffffffffffffffffffffffffffffffffffffffff161480610a8f57508060010160009054906101000a900473ffffffffffffffffffffffffffffffffffffffff1673ffffffffffffffffffffffffffffffffffffffff168273ffffffffffffffffffffffffffffffffffffffff16145b610ace576040517f08c379a0000000000000000000000000000000000000000000000000000000008152600401610ac5906116c8565b60405180910390fd5b600073ffffffffffffffffffffffffffffffffffffffff168160030160009054906101000a900473ffffffffffffffffffffffffffffffffffffffff1673ffffffffffffffffffffffffffffffffffffffff1614610b61576040517f08c379a0000000000000000000000000000000000000000000000000000000008152600401610b5890611734565b60405180910390fd5b818160030160006101000a81548173ffffffffffffffffffffffffffffffffffffffff021916908373ffffffffffffffffffffffffffffffffffffffff1602179055508173ffffffffffffffffffffffffffffffffffffffff16837f3d5fcd8fa3235aeb3897f25c8ea49989174981afcb01b9d03189d1056a16775b60405160405180910390a3505050565b6000600260008381526020019081526020016000209050600073ffffffffffffffffffffffffffffffffffffffff168160000160009054906101000a900473ffffffffffffffffffffffffffffffffffffffff1673ffffffffffffffffffffffffffffffffffffffff1603610c97576040517f08c379a0000000000000000000000000000000000000000000000000000000008152600401610c8e90611584565b60405180910390fd5b60008054906101000a900473ffffffffffffffffffffffffffffffffffffffff1673ffffffffffffffffffffffffffffffffffffffff163373ffffffffffffffffffffffffffffffffffffffff1614610d25576040517f08c379a0000000000000000000000000000000000000000000000000000000008152600401610d1c906117c6565b60405180910390fd5b8060030160159054906101000a900460ff1615610d77576040517f08c379a0000000000000000000000000000000000000000000000000000000008152600401610d6e90611832565b60405180910390fd5b60018160030160156101000a81548160ff0219169083151502179055503373ffffffffffffffffffffffffffffffffffffffff16827fccd90f394edb121676fbdafd2a2d20c173f98e29c9d3cadbd5b8cde393bbb54b60405160405180910390a35050565b6000600260008381526020019081526020016000209050600073ffffffffffffffffffffffffffffffffffffffff168160000160009054906101000a900473ffffffffffffffffffffffffffffffffffffffff1673ffffffffffffffffffffffffffffffffffffffff1603610e86576040517f08c379a0000000000000000000000000000000000000000000000000000000008152600401610e7d90611584565b60405180910390fd5b600073ffffffffffffffffffffffffffffffffffffffff168160010160009054906101000a900473ffffffffffffffffffffffffffffffffffffffff1673ffffffffffffffffffffffffffffffffffffffff1614610f19576040517f08c379a0000000000000000000000000000000000000000000000000000000008152600401610f109061189e565b60405180910390fd5b80600201543414610f5f576040517f08c379a0000000000000000000000000000000000000000000000000000000008152600401610f569061190a565b60405180910390fd5b338160010160006101000a81548173ffffffffffffffffffffffffffffffffffffffff021916908373ffffffffffffffffffffffffffffffffffffffff1602179055503373ffffffffffffffffffffffffffffffffffffffff16827f87969bc7faf902221a147b95ceba76e011c5efb0339a0a8ee7a2bb82d9cfbbd660405160405180910390a35050565b600082825260208201905092915050565b7f5468697320636f6e747261637420646f6573206e6f742061636365707420457460008201527f686572206469726563746c790000000000000000000000000000000000000000602082015250565b6000611057602c83610fea565b915061106282610ffb565b604082019050919050565b600060208201905081810360008301526110868161104a565b9050919050565b6000819050919050565b6110a08161108d565b82525050565b60006020820190506110bb6000830184611097565b92915050565b600080fd5b6110cf8161108d565b81146110da57600080fd5b50565b6000813590506110ec816110c6565b92915050565b600060208284031215611108576111076110c1565b5b6000611116848285016110dd565b91505092915050565b600073ffffffffffffffffffffffffffffffffffffffff82169050919050565b600061114a8261111f565b9050919050565b61115a8161113f565b82525050565b60008115159050919050565b61117581611160565b82525050565b600060c0820190506111906000830189611151565b61119d6020830188611151565b6111aa6040830187611097565b6111b76060830186611151565b6111c4608083018561116c565b6111d160a083018461116c565b979650505050505050565b60006020820190506111f16000830184611151565b92915050565b6000806040838503121561120e5761120d6110c1565b5b600061121c858286016110dd565b925050602061122d858286016110dd565b9150509250929050565b6112408161113f565b811461124b57600080fd5b50565b60008135905061125d81611237565b92915050565b6000806040838503121561127a576112796110c1565b5b6000611288858286016110dd565b92505060206112998582860161124e565b9150509250929050565b7f596f7520617265206e6f74207468652077696e6e6572206f662074686973206760008201527f616d650000000000000000000000000000000000000000000000000000000000602082015250565b60006112ff602383610fea565b915061130a826112a3565b604082019050919050565b6000602082019050818103600083015261132e816112f2565b9050919050565b7f57696e6e696e677320616c72656164792077697468647261776e000000000000600082015250565b600061136b601a83610fea565b915061137682611335565b602082019050919050565b6000602082019050818103600083015261139a8161135e565b9050919050565b7f4e487b7100000000000000000000000000000000000000000000000000000000600052601160045260246000fd5b60006113db8261108d565b91506113e68361108d565b92508282026113f48161108d565b9150828204841483151761140b5761140a6113a1565b5b5092915050565b7f4e487b7100000000000000000000000000000000000000000000000000000000600052601260045260246000fd5b600061144c8261108d565b91506114578361108d565b92508261146757611466611412565b5b828204905092915050565b600061147d8261108d565b91506114888361108d565b92508282039050818111156114a05761149f6113a1565b5b92915050565b7f47616d6520616c726561647920657869737473206f7220696e2070726f67726560008201527f7373000000000000000000000000000000000000000000000000000000000000602082015250565b6000611502602283610fea565b915061150d826114a6565b604082019050919050565b60006020820190508181036000830152611531816114f5565b9050919050565b7f47616d6520646f6573206e6f7420657869737400000000000000000000000000600082015250565b600061156e601383610fea565b915061157982611538565b602082019050919050565b6000602082019050818103600083015261159d81611561565b9050919050565b7f47616d65206973206e6f74207965742066756c6c000000000000000000000000600082015250565b60006115da601483610fea565b91506115e5826115a4565b602082019050919050565b60006020820190508181036000830152611609816115cd565b9050919050565b7f4e6f7420617574686f72697a656420746f20656e64207468652067616d650000600082015250565b6000611646601e83610fea565b915061165182611610565b602082019050919050565b6000602082019050818103600083015261167581611639565b9050919050565b7f496e76616c69642077696e6e6572206164647265737300000000000000000000600082015250565b60006116b2601683610fea565b91506116bd8261167c565b602082019050919050565b600060208201905081810360008301526116e1816116a5565b9050919050565b7f47616d6520616c726561647920656e6465640000000000000000000000000000600082015250565b600061171e601283610fea565b9150611729826116e8565b602082019050919050565b6000602082019050818103600083015261174d81611711565b9050919050565b7f4f6e6c792067616d652063726561746f722063616e2061626f7274207468652060008201527f67616d6500000000000000000000000000000000000000000000000000000000602082015250565b60006117b0602483610fea565b91506117bb82611754565b604082019050919050565b600060208201905081810360008301526117df816117a3565b9050919050565b7f47616d6520616c72656164792061626f72746564000000000000000000000000600082015250565b600061181c601483610fea565b9150611827826117e6565b602082019050919050565b6000602082019050818103600083015261184b8161180f565b9050919050565b7f47616d6520697320616c72656164792066756c6c000000000000000000000000600082015250565b6000611888601483610fea565b915061189382611852565b602082019050919050565b600060208201905081810360008301526118b78161187b565b9050919050565b7f496e636f7272656374206275792d696e20616d6f756e74000000000000000000600082015250565b60006118f4601783610fea565b91506118ff826118be565b602082019050919050565b60006020820190508181036000830152611923816118e7565b905091905056fea26469706673582212200183cc385b7d4aab06a07e86287b2450324efb49d0c06872e1e8b7359acf2aae64736f6c63430008180033",
    "linkReferences": {},
    "deployedLinkReferences": {}
}